Archive member included to satisfy reference by file (symbol)

c:/users/baile/documents/mcha toolchain/toolchain/gcc-arm-none-eabi/bin/../lib/gcc/arm-none-eabi/9.2.1/../../../../arm-none-eabi/lib/thumb/v7e-m+fp/hard\libm.a(lib_a-s_sin.o)
                              build/data_logging.o (sin)
c:/users/baile/documents/mcha toolchain/toolchain/gcc-arm-none-eabi/bin/../lib/gcc/arm-none-eabi/9.2.1/../../../../arm-none-eabi/lib/thumb/v7e-m+fp/hard\libm.a(lib_a-w_atan2.o)
                              build/IMU.o (atan2)
c:/users/baile/documents/mcha toolchain/toolchain/gcc-arm-none-eabi/bin/../lib/gcc/arm-none-eabi/9.2.1/../../../../arm-none-eabi/lib/thumb/v7e-m+fp/hard\libm.a(lib_a-wf_sqrt.o)
                              build/qpas_sub_noblas.o (sqrtf)
c:/users/baile/documents/mcha toolchain/toolchain/gcc-arm-none-eabi/bin/../lib/gcc/arm-none-eabi/9.2.1/../../../../arm-none-eabi/lib/thumb/v7e-m+fp/hard\libm.a(lib_a-e_atan2.o)
                              c:/users/baile/documents/mcha toolchain/toolchain/gcc-arm-none-eabi/bin/../lib/gcc/arm-none-eabi/9.2.1/../../../../arm-none-eabi/lib/thumb/v7e-m+fp/hard\libm.a(lib_a-w_atan2.o) (__ieee754_atan2)
c:/users/baile/documents/mcha toolchain/toolchain/gcc-arm-none-eabi/bin/../lib/gcc/arm-none-eabi/9.2.1/../../../../arm-none-eabi/lib/thumb/v7e-m+fp/hard\libm.a(lib_a-e_rem_pio2.o)
                              c:/users/baile/documents/mcha toolchain/toolchain/gcc-arm-none-eabi/bin/../lib/gcc/arm-none-eabi/9.2.1/../../../../arm-none-eabi/lib/thumb/v7e-m+fp/hard\libm.a(lib_a-s_sin.o) (__ieee754_rem_pio2)
c:/users/baile/documents/mcha toolchain/toolchain/gcc-arm-none-eabi/bin/../lib/gcc/arm-none-eabi/9.2.1/../../../../arm-none-eabi/lib/thumb/v7e-m+fp/hard\libm.a(lib_a-ef_sqrt.o)
                              c:/users/baile/documents/mcha toolchain/toolchain/gcc-arm-none-eabi/bin/../lib/gcc/arm-none-eabi/9.2.1/../../../../arm-none-eabi/lib/thumb/v7e-m+fp/hard\libm.a(lib_a-wf_sqrt.o) (__ieee754_sqrtf)
c:/users/baile/documents/mcha toolchain/toolchain/gcc-arm-none-eabi/bin/../lib/gcc/arm-none-eabi/9.2.1/../../../../arm-none-eabi/lib/thumb/v7e-m+fp/hard\libm.a(lib_a-k_cos.o)
                              c:/users/baile/documents/mcha toolchain/toolchain/gcc-arm-none-eabi/bin/../lib/gcc/arm-none-eabi/9.2.1/../../../../arm-none-eabi/lib/thumb/v7e-m+fp/hard\libm.a(lib_a-s_sin.o) (__kernel_cos)
c:/users/baile/documents/mcha toolchain/toolchain/gcc-arm-none-eabi/bin/../lib/gcc/arm-none-eabi/9.2.1/../../../../arm-none-eabi/lib/thumb/v7e-m+fp/hard\libm.a(lib_a-k_rem_pio2.o)
                              c:/users/baile/documents/mcha toolchain/toolchain/gcc-arm-none-eabi/bin/../lib/gcc/arm-none-eabi/9.2.1/../../../../arm-none-eabi/lib/thumb/v7e-m+fp/hard\libm.a(lib_a-e_rem_pio2.o) (__kernel_rem_pio2)
c:/users/baile/documents/mcha toolchain/toolchain/gcc-arm-none-eabi/bin/../lib/gcc/arm-none-eabi/9.2.1/../../../../arm-none-eabi/lib/thumb/v7e-m+fp/hard\libm.a(lib_a-k_sin.o)
                              c:/users/baile/documents/mcha toolchain/toolchain/gcc-arm-none-eabi/bin/../lib/gcc/arm-none-eabi/9.2.1/../../../../arm-none-eabi/lib/thumb/v7e-m+fp/hard\libm.a(lib_a-s_sin.o) (__kernel_sin)
c:/users/baile/documents/mcha toolchain/toolchain/gcc-arm-none-eabi/bin/../lib/gcc/arm-none-eabi/9.2.1/../../../../arm-none-eabi/lib/thumb/v7e-m+fp/hard\libm.a(lib_a-s_atan.o)
                              c:/users/baile/documents/mcha toolchain/toolchain/gcc-arm-none-eabi/bin/../lib/gcc/arm-none-eabi/9.2.1/../../../../arm-none-eabi/lib/thumb/v7e-m+fp/hard\libm.a(lib_a-e_atan2.o) (atan)
c:/users/baile/documents/mcha toolchain/toolchain/gcc-arm-none-eabi/bin/../lib/gcc/arm-none-eabi/9.2.1/../../../../arm-none-eabi/lib/thumb/v7e-m+fp/hard\libm.a(lib_a-s_fabs.o)
                              c:/users/baile/documents/mcha toolchain/toolchain/gcc-arm-none-eabi/bin/../lib/gcc/arm-none-eabi/9.2.1/../../../../arm-none-eabi/lib/thumb/v7e-m+fp/hard\libm.a(lib_a-e_atan2.o) (fabs)
c:/users/baile/documents/mcha toolchain/toolchain/gcc-arm-none-eabi/bin/../lib/gcc/arm-none-eabi/9.2.1/../../../../arm-none-eabi/lib/thumb/v7e-m+fp/hard\libm.a(lib_a-s_floor.o)
                              c:/users/baile/documents/mcha toolchain/toolchain/gcc-arm-none-eabi/bin/../lib/gcc/arm-none-eabi/9.2.1/../../../../arm-none-eabi/lib/thumb/v7e-m+fp/hard\libm.a(lib_a-k_rem_pio2.o) (floor)
c:/users/baile/documents/mcha toolchain/toolchain/gcc-arm-none-eabi/bin/../lib/gcc/arm-none-eabi/9.2.1/../../../../arm-none-eabi/lib/thumb/v7e-m+fp/hard\libm.a(lib_a-s_lib_ver.o)
                              c:/users/baile/documents/mcha toolchain/toolchain/gcc-arm-none-eabi/bin/../lib/gcc/arm-none-eabi/9.2.1/../../../../arm-none-eabi/lib/thumb/v7e-m+fp/hard\libm.a(lib_a-wf_sqrt.o) (__fdlib_version)
c:/users/baile/documents/mcha toolchain/toolchain/gcc-arm-none-eabi/bin/../lib/gcc/arm-none-eabi/9.2.1/../../../../arm-none-eabi/lib/thumb/v7e-m+fp/hard\libm.a(lib_a-s_matherr.o)
                              c:/users/baile/documents/mcha toolchain/toolchain/gcc-arm-none-eabi/bin/../lib/gcc/arm-none-eabi/9.2.1/../../../../arm-none-eabi/lib/thumb/v7e-m+fp/hard\libm.a(lib_a-wf_sqrt.o) (matherr)
c:/users/baile/documents/mcha toolchain/toolchain/gcc-arm-none-eabi/bin/../lib/gcc/arm-none-eabi/9.2.1/../../../../arm-none-eabi/lib/thumb/v7e-m+fp/hard\libm.a(lib_a-s_scalbn.o)
                              c:/users/baile/documents/mcha toolchain/toolchain/gcc-arm-none-eabi/bin/../lib/gcc/arm-none-eabi/9.2.1/../../../../arm-none-eabi/lib/thumb/v7e-m+fp/hard\libm.a(lib_a-k_rem_pio2.o) (scalbn)
../STM32Cube_F4_FW/Drivers/CMSIS/Lib/GCC/libarm_cortexM4lf_math.a(arm_mat_sub_f32.o)
                              build/Observer.o (arm_mat_sub_f32)
../STM32Cube_F4_FW/Drivers/CMSIS/Lib/GCC/libarm_cortexM4lf_math.a(arm_mat_mult_f32.o)
                              build/controller.o (arm_mat_mult_f32)
../STM32Cube_F4_FW/Drivers/CMSIS/Lib/GCC/libarm_cortexM4lf_math.a(arm_mat_init_f32.o)
                              build/controller.o (arm_mat_init_f32)
../STM32Cube_F4_FW/Drivers/CMSIS/Lib/GCC/libarm_cortexM4lf_math.a(arm_mat_add_f32.o)
                              build/Observer.o (arm_mat_add_f32)
c:/users/baile/documents/mcha toolchain/toolchain/gcc-arm-none-eabi/bin/../lib/gcc/arm-none-eabi/9.2.1/thumb/v7e-m+fp/hard\libgcc.a(_arm_muldf3.o)
                              build/Curr_Sen.o (__aeabi_dmul)
c:/users/baile/documents/mcha toolchain/toolchain/gcc-arm-none-eabi/bin/../lib/gcc/arm-none-eabi/9.2.1/thumb/v7e-m+fp/hard\libgcc.a(_arm_addsubdf3.o)
                              c:/users/baile/documents/mcha toolchain/toolchain/gcc-arm-none-eabi/bin/../lib/gcc/arm-none-eabi/9.2.1/../../../../arm-none-eabi/lib/thumb/v7e-m+fp/hard\libm.a(lib_a-s_sin.o) (__aeabi_dsub)
c:/users/baile/documents/mcha toolchain/toolchain/gcc-arm-none-eabi/bin/../lib/gcc/arm-none-eabi/9.2.1/thumb/v7e-m+fp/hard\libgcc.a(_arm_muldivdf3.o)
                              build/Curr_Sen.o (__aeabi_ddiv)
c:/users/baile/documents/mcha toolchain/toolchain/gcc-arm-none-eabi/bin/../lib/gcc/arm-none-eabi/9.2.1/thumb/v7e-m+fp/hard\libgcc.a(_arm_cmpdf2.o)
                              c:/users/baile/documents/mcha toolchain/toolchain/gcc-arm-none-eabi/bin/../lib/gcc/arm-none-eabi/9.2.1/../../../../arm-none-eabi/lib/thumb/v7e-m+fp/hard\libm.a(lib_a-e_rem_pio2.o) (__aeabi_dcmpeq)
c:/users/baile/documents/mcha toolchain/toolchain/gcc-arm-none-eabi/bin/../lib/gcc/arm-none-eabi/9.2.1/thumb/v7e-m+fp/hard\libgcc.a(_arm_fixdfsi.o)
                              c:/users/baile/documents/mcha toolchain/toolchain/gcc-arm-none-eabi/bin/../lib/gcc/arm-none-eabi/9.2.1/../../../../arm-none-eabi/lib/thumb/v7e-m+fp/hard\libm.a(lib_a-e_rem_pio2.o) (__aeabi_d2iz)
c:/users/baile/documents/mcha toolchain/toolchain/gcc-arm-none-eabi/bin/../lib/gcc/arm-none-eabi/9.2.1/thumb/v7e-m+fp/hard\libgcc.a(_arm_truncdfsf2.o)
                              build/cmd_parser.o (__aeabi_d2f)
c:/users/baile/documents/mcha toolchain/toolchain/gcc-arm-none-eabi/bin/../lib/gcc/arm-none-eabi/9.2.1/thumb/v7e-m+fp/hard\libgcc.a(_aeabi_ldivmod.o)
                              build/uart.o (__aeabi_ldivmod)
c:/users/baile/documents/mcha toolchain/toolchain/gcc-arm-none-eabi/bin/../lib/gcc/arm-none-eabi/9.2.1/thumb/v7e-m+fp/hard\libgcc.a(_aeabi_uldivmod.o)
                              build/uart.o (__aeabi_uldivmod)
c:/users/baile/documents/mcha toolchain/toolchain/gcc-arm-none-eabi/bin/../lib/gcc/arm-none-eabi/9.2.1/thumb/v7e-m+fp/hard\libgcc.a(_udivmoddi4.o)
                              c:/users/baile/documents/mcha toolchain/toolchain/gcc-arm-none-eabi/bin/../lib/gcc/arm-none-eabi/9.2.1/thumb/v7e-m+fp/hard\libgcc.a(_aeabi_ldivmod.o) (__udivmoddi4)
c:/users/baile/documents/mcha toolchain/toolchain/gcc-arm-none-eabi/bin/../lib/gcc/arm-none-eabi/9.2.1/thumb/v7e-m+fp/hard\libgcc.a(_dvmd_tls.o)
                              c:/users/baile/documents/mcha toolchain/toolchain/gcc-arm-none-eabi/bin/../lib/gcc/arm-none-eabi/9.2.1/thumb/v7e-m+fp/hard\libgcc.a(_aeabi_ldivmod.o) (__aeabi_ldiv0)
c:/users/baile/documents/mcha toolchain/toolchain/gcc-arm-none-eabi/bin/../lib/gcc/arm-none-eabi/9.2.1/../../../../arm-none-eabi/lib/thumb/v7e-m+fp/hard\libc_nano.a(lib_a-atof.o)
                              build/cmd_parser.o (atof)
c:/users/baile/documents/mcha toolchain/toolchain/gcc-arm-none-eabi/bin/../lib/gcc/arm-none-eabi/9.2.1/../../../../arm-none-eabi/lib/thumb/v7e-m+fp/hard\libc_nano.a(lib_a-ctype_.o)
                              build/cmd_parser.o (_ctype_)
c:/users/baile/documents/mcha toolchain/toolchain/gcc-arm-none-eabi/bin/../lib/gcc/arm-none-eabi/9.2.1/../../../../arm-none-eabi/lib/thumb/v7e-m+fp/hard\libc_nano.a(lib_a-errno.o)
                              c:/users/baile/documents/mcha toolchain/toolchain/gcc-arm-none-eabi/bin/../lib/gcc/arm-none-eabi/9.2.1/../../../../arm-none-eabi/lib/thumb/v7e-m+fp/hard\libm.a(lib_a-wf_sqrt.o) (__errno)
c:/users/baile/documents/mcha toolchain/toolchain/gcc-arm-none-eabi/bin/../lib/gcc/arm-none-eabi/9.2.1/../../../../arm-none-eabi/lib/thumb/v7e-m+fp/hard\libc_nano.a(lib_a-exit.o)
                              c:/users/baile/documents/mcha toolchain/toolchain/gcc-arm-none-eabi/bin/../lib/gcc/arm-none-eabi/9.2.1/../../../../arm-none-eabi/lib/thumb/v7e-m+fp/hard/crt0.o (exit)
c:/users/baile/documents/mcha toolchain/toolchain/gcc-arm-none-eabi/bin/../lib/gcc/arm-none-eabi/9.2.1/../../../../arm-none-eabi/lib/thumb/v7e-m+fp/hard\libc_nano.a(lib_a-getchar.o)
                              build/cmd_line_buffer.o (getchar)
c:/users/baile/documents/mcha toolchain/toolchain/gcc-arm-none-eabi/bin/../lib/gcc/arm-none-eabi/9.2.1/../../../../arm-none-eabi/lib/thumb/v7e-m+fp/hard\libc_nano.a(lib_a-impure.o)
                              c:/users/baile/documents/mcha toolchain/toolchain/gcc-arm-none-eabi/bin/../lib/gcc/arm-none-eabi/9.2.1/../../../../arm-none-eabi/lib/thumb/v7e-m+fp/hard\libc_nano.a(lib_a-exit.o) (_global_impure_ptr)
c:/users/baile/documents/mcha toolchain/toolchain/gcc-arm-none-eabi/bin/../lib/gcc/arm-none-eabi/9.2.1/../../../../arm-none-eabi/lib/thumb/v7e-m+fp/hard\libc_nano.a(lib_a-init.o)
                              c:/users/baile/documents/mcha toolchain/toolchain/gcc-arm-none-eabi/bin/../lib/gcc/arm-none-eabi/9.2.1/../../../../arm-none-eabi/lib/thumb/v7e-m+fp/hard/crt0.o (__libc_init_array)
c:/users/baile/documents/mcha toolchain/toolchain/gcc-arm-none-eabi/bin/../lib/gcc/arm-none-eabi/9.2.1/../../../../arm-none-eabi/lib/thumb/v7e-m+fp/hard\libc_nano.a(lib_a-malloc.o)
                              build/qpas_sub_noblas.o (malloc)
c:/users/baile/documents/mcha toolchain/toolchain/gcc-arm-none-eabi/bin/../lib/gcc/arm-none-eabi/9.2.1/../../../../arm-none-eabi/lib/thumb/v7e-m+fp/hard\libc_nano.a(lib_a-memcpy-stub.o)
                              build/FreeRTOS/queue.o (memcpy)
c:/users/baile/documents/mcha toolchain/toolchain/gcc-arm-none-eabi/bin/../lib/gcc/arm-none-eabi/9.2.1/../../../../arm-none-eabi/lib/thumb/v7e-m+fp/hard\libc_nano.a(lib_a-memset.o)
                              c:/users/baile/documents/mcha toolchain/toolchain/gcc-arm-none-eabi/bin/../lib/gcc/arm-none-eabi/9.2.1/../../../../arm-none-eabi/lib/thumb/v7e-m+fp/hard/crt0.o (memset)
c:/users/baile/documents/mcha toolchain/toolchain/gcc-arm-none-eabi/bin/../lib/gcc/arm-none-eabi/9.2.1/../../../../arm-none-eabi/lib/thumb/v7e-m+fp/hard\libc_nano.a(lib_a-mstats.o)
                              build/FreeRTOS/heap_useNewlib.o (mallinfo)
c:/users/baile/documents/mcha toolchain/toolchain/gcc-arm-none-eabi/bin/../lib/gcc/arm-none-eabi/9.2.1/../../../../arm-none-eabi/lib/thumb/v7e-m+fp/hard\libc_nano.a(lib_a-nano-freer.o)
                              c:/users/baile/documents/mcha toolchain/toolchain/gcc-arm-none-eabi/bin/../lib/gcc/arm-none-eabi/9.2.1/../../../../arm-none-eabi/lib/thumb/v7e-m+fp/hard\libc_nano.a(lib_a-malloc.o) (_free_r)
c:/users/baile/documents/mcha toolchain/toolchain/gcc-arm-none-eabi/bin/../lib/gcc/arm-none-eabi/9.2.1/../../../../arm-none-eabi/lib/thumb/v7e-m+fp/hard\libc_nano.a(lib_a-nano-mallinfor.o)
                              c:/users/baile/documents/mcha toolchain/toolchain/gcc-arm-none-eabi/bin/../lib/gcc/arm-none-eabi/9.2.1/../../../../arm-none-eabi/lib/thumb/v7e-m+fp/hard\libc_nano.a(lib_a-mstats.o) (_mallinfo_r)
c:/users/baile/documents/mcha toolchain/toolchain/gcc-arm-none-eabi/bin/../lib/gcc/arm-none-eabi/9.2.1/../../../../arm-none-eabi/lib/thumb/v7e-m+fp/hard\libc_nano.a(lib_a-nano-mallocr.o)
                              c:/users/baile/documents/mcha toolchain/toolchain/gcc-arm-none-eabi/bin/../lib/gcc/arm-none-eabi/9.2.1/../../../../arm-none-eabi/lib/thumb/v7e-m+fp/hard\libc_nano.a(lib_a-malloc.o) (_malloc_r)
c:/users/baile/documents/mcha toolchain/toolchain/gcc-arm-none-eabi/bin/../lib/gcc/arm-none-eabi/9.2.1/../../../../arm-none-eabi/lib/thumb/v7e-m+fp/hard\libc_nano.a(lib_a-nano-malloptr.o)
                              c:/users/baile/documents/mcha toolchain/toolchain/gcc-arm-none-eabi/bin/../lib/gcc/arm-none-eabi/9.2.1/../../../../arm-none-eabi/lib/thumb/v7e-m+fp/hard\libc_nano.a(lib_a-mstats.o) (_mallopt_r)
c:/users/baile/documents/mcha toolchain/toolchain/gcc-arm-none-eabi/bin/../lib/gcc/arm-none-eabi/9.2.1/../../../../arm-none-eabi/lib/thumb/v7e-m+fp/hard\libc_nano.a(lib_a-nano-mallstatsr.o)
                              c:/users/baile/documents/mcha toolchain/toolchain/gcc-arm-none-eabi/bin/../lib/gcc/arm-none-eabi/9.2.1/../../../../arm-none-eabi/lib/thumb/v7e-m+fp/hard\libc_nano.a(lib_a-mstats.o) (_malloc_stats_r)
c:/users/baile/documents/mcha toolchain/toolchain/gcc-arm-none-eabi/bin/../lib/gcc/arm-none-eabi/9.2.1/../../../../arm-none-eabi/lib/thumb/v7e-m+fp/hard\libc_nano.a(lib_a-nano-vfprintf_float.o)
                              (_printf_float)
c:/users/baile/documents/mcha toolchain/toolchain/gcc-arm-none-eabi/bin/../lib/gcc/arm-none-eabi/9.2.1/../../../../arm-none-eabi/lib/thumb/v7e-m+fp/hard\libc_nano.a(lib_a-nano-vfprintf_i.o)
                              c:/users/baile/documents/mcha toolchain/toolchain/gcc-arm-none-eabi/bin/../lib/gcc/arm-none-eabi/9.2.1/../../../../arm-none-eabi/lib/thumb/v7e-m+fp/hard\libc_nano.a(lib_a-nano-vfprintf_float.o) (_printf_common)
c:/users/baile/documents/mcha toolchain/toolchain/gcc-arm-none-eabi/bin/../lib/gcc/arm-none-eabi/9.2.1/../../../../arm-none-eabi/lib/thumb/v7e-m+fp/hard\libc_nano.a(lib_a-nano-vfscanf_float.o)
                              (_scanf_float)
c:/users/baile/documents/mcha toolchain/toolchain/gcc-arm-none-eabi/bin/../lib/gcc/arm-none-eabi/9.2.1/../../../../arm-none-eabi/lib/thumb/v7e-m+fp/hard\libc_nano.a(lib_a-printf.o)
                              build/cmd_line_buffer.o (printf)
c:/users/baile/documents/mcha toolchain/toolchain/gcc-arm-none-eabi/bin/../lib/gcc/arm-none-eabi/9.2.1/../../../../arm-none-eabi/lib/thumb/v7e-m+fp/hard\libc_nano.a(lib_a-reent.o)
                              build/FreeRTOS/tasks.o (_reclaim_reent)
c:/users/baile/documents/mcha toolchain/toolchain/gcc-arm-none-eabi/bin/../lib/gcc/arm-none-eabi/9.2.1/../../../../arm-none-eabi/lib/thumb/v7e-m+fp/hard\libc_nano.a(lib_a-sbrkr.o)
                              c:/users/baile/documents/mcha toolchain/toolchain/gcc-arm-none-eabi/bin/../lib/gcc/arm-none-eabi/9.2.1/../../../../arm-none-eabi/lib/thumb/v7e-m+fp/hard\libc_nano.a(lib_a-nano-mallinfor.o) (_sbrk_r)
c:/users/baile/documents/mcha toolchain/toolchain/gcc-arm-none-eabi/bin/../lib/gcc/arm-none-eabi/9.2.1/../../../../arm-none-eabi/lib/thumb/v7e-m+fp/hard\libc_nano.a(lib_a-setvbuf.o)
                              build/uart.o (setvbuf)
c:/users/baile/documents/mcha toolchain/toolchain/gcc-arm-none-eabi/bin/../lib/gcc/arm-none-eabi/9.2.1/../../../../arm-none-eabi/lib/thumb/v7e-m+fp/hard\libc_nano.a(lib_a-sf_nan.o)
                              c:/users/baile/documents/mcha toolchain/toolchain/gcc-arm-none-eabi/bin/../lib/gcc/arm-none-eabi/9.2.1/../../../../arm-none-eabi/lib/thumb/v7e-m+fp/hard\libc_nano.a(lib_a-nano-vfscanf_float.o) (nanf)
c:/users/baile/documents/mcha toolchain/toolchain/gcc-arm-none-eabi/bin/../lib/gcc/arm-none-eabi/9.2.1/../../../../arm-none-eabi/lib/thumb/v7e-m+fp/hard\libc_nano.a(lib_a-sprintf.o)
                              c:/users/baile/documents/mcha toolchain/toolchain/gcc-arm-none-eabi/bin/../lib/gcc/arm-none-eabi/9.2.1/../../../../arm-none-eabi/lib/thumb/v7e-m+fp/hard\libc_nano.a(lib_a-nano-vfscanf_float.o) (sprintf)
c:/users/baile/documents/mcha toolchain/toolchain/gcc-arm-none-eabi/bin/../lib/gcc/arm-none-eabi/9.2.1/../../../../arm-none-eabi/lib/thumb/v7e-m+fp/hard\libc_nano.a(lib_a-strcmp.o)
                              build/cmd_parser.o (strcmp)
c:/users/baile/documents/mcha toolchain/toolchain/gcc-arm-none-eabi/bin/../lib/gcc/arm-none-eabi/9.2.1/../../../../arm-none-eabi/lib/thumb/v7e-m+fp/hard\libc_nano.a(lib_a-strcpy.o)
                              build/qpas_sub_noblas.o (strcpy)
c:/users/baile/documents/mcha toolchain/toolchain/gcc-arm-none-eabi/bin/../lib/gcc/arm-none-eabi/9.2.1/../../../../arm-none-eabi/lib/thumb/v7e-m+fp/hard\libc_nano.a(lib_a-strlen.o)
                              c:/users/baile/documents/mcha toolchain/toolchain/gcc-arm-none-eabi/bin/../lib/gcc/arm-none-eabi/9.2.1/../../../../arm-none-eabi/lib/thumb/v7e-m+fp/hard\libc_nano.a(lib_a-nano-vfprintf_float.o) (strlen)
c:/users/baile/documents/mcha toolchain/toolchain/gcc-arm-none-eabi/bin/../lib/gcc/arm-none-eabi/9.2.1/../../../../arm-none-eabi/lib/thumb/v7e-m+fp/hard\libc_nano.a(lib_a-strtod.o)
                              c:/users/baile/documents/mcha toolchain/toolchain/gcc-arm-none-eabi/bin/../lib/gcc/arm-none-eabi/9.2.1/../../../../arm-none-eabi/lib/thumb/v7e-m+fp/hard\libc_nano.a(lib_a-nano-vfscanf_float.o) (_strtod_r)
c:/users/baile/documents/mcha toolchain/toolchain/gcc-arm-none-eabi/bin/../lib/gcc/arm-none-eabi/9.2.1/../../../../arm-none-eabi/lib/thumb/v7e-m+fp/hard\libc_nano.a(lib_a-strtol.o)
                              c:/users/baile/documents/mcha toolchain/toolchain/gcc-arm-none-eabi/bin/../lib/gcc/arm-none-eabi/9.2.1/../../../../arm-none-eabi/lib/thumb/v7e-m+fp/hard\libc_nano.a(lib_a-nano-vfscanf_float.o) (_strtol_r)
c:/users/baile/documents/mcha toolchain/toolchain/gcc-arm-none-eabi/bin/../lib/gcc/arm-none-eabi/9.2.1/../../../../arm-none-eabi/lib/thumb/v7e-m+fp/hard\libc_nano.a(lib_a-vprintf.o)
                              build/uart.o (vprintf)
c:/users/baile/documents/mcha toolchain/toolchain/gcc-arm-none-eabi/bin/../lib/gcc/arm-none-eabi/9.2.1/../../../../arm-none-eabi/lib/thumb/v7e-m+fp/hard\libc_nano.a(lib_a-dtoa.o)
                              c:/users/baile/documents/mcha toolchain/toolchain/gcc-arm-none-eabi/bin/../lib/gcc/arm-none-eabi/9.2.1/../../../../arm-none-eabi/lib/thumb/v7e-m+fp/hard\libc_nano.a(lib_a-nano-vfprintf_float.o) (_dtoa_r)
c:/users/baile/documents/mcha toolchain/toolchain/gcc-arm-none-eabi/bin/../lib/gcc/arm-none-eabi/9.2.1/../../../../arm-none-eabi/lib/thumb/v7e-m+fp/hard\libc_nano.a(lib_a-fflush.o)
                              c:/users/baile/documents/mcha toolchain/toolchain/gcc-arm-none-eabi/bin/../lib/gcc/arm-none-eabi/9.2.1/../../../../arm-none-eabi/lib/thumb/v7e-m+fp/hard\libc_nano.a(lib_a-setvbuf.o) (_fflush_r)
c:/users/baile/documents/mcha toolchain/toolchain/gcc-arm-none-eabi/bin/../lib/gcc/arm-none-eabi/9.2.1/../../../../arm-none-eabi/lib/thumb/v7e-m+fp/hard\libc_nano.a(lib_a-findfp.o)
                              c:/users/baile/documents/mcha toolchain/toolchain/gcc-arm-none-eabi/bin/../lib/gcc/arm-none-eabi/9.2.1/../../../../arm-none-eabi/lib/thumb/v7e-m+fp/hard\libc_nano.a(lib_a-getchar.o) (__sinit)
c:/users/baile/documents/mcha toolchain/toolchain/gcc-arm-none-eabi/bin/../lib/gcc/arm-none-eabi/9.2.1/../../../../arm-none-eabi/lib/thumb/v7e-m+fp/hard\libc_nano.a(lib_a-fprintf.o)
                              c:/users/baile/documents/mcha toolchain/toolchain/gcc-arm-none-eabi/bin/../lib/gcc/arm-none-eabi/9.2.1/../../../../arm-none-eabi/lib/thumb/v7e-m+fp/hard\libc_nano.a(lib_a-mstats.o) (fiprintf)
c:/users/baile/documents/mcha toolchain/toolchain/gcc-arm-none-eabi/bin/../lib/gcc/arm-none-eabi/9.2.1/../../../../arm-none-eabi/lib/thumb/v7e-m+fp/hard\libc_nano.a(lib_a-fwalk.o)
                              c:/users/baile/documents/mcha toolchain/toolchain/gcc-arm-none-eabi/bin/../lib/gcc/arm-none-eabi/9.2.1/../../../../arm-none-eabi/lib/thumb/v7e-m+fp/hard\libc_nano.a(lib_a-findfp.o) (_fwalk)
c:/users/baile/documents/mcha toolchain/toolchain/gcc-arm-none-eabi/bin/../lib/gcc/arm-none-eabi/9.2.1/../../../../arm-none-eabi/lib/thumb/v7e-m+fp/hard\libc_nano.a(lib_a-gdtoa-gethex.o)
                              c:/users/baile/documents/mcha toolchain/toolchain/gcc-arm-none-eabi/bin/../lib/gcc/arm-none-eabi/9.2.1/../../../../arm-none-eabi/lib/thumb/v7e-m+fp/hard\libc_nano.a(lib_a-strtod.o) (__gethex)
c:/users/baile/documents/mcha toolchain/toolchain/gcc-arm-none-eabi/bin/../lib/gcc/arm-none-eabi/9.2.1/../../../../arm-none-eabi/lib/thumb/v7e-m+fp/hard\libc_nano.a(lib_a-gdtoa-hexnan.o)
                              c:/users/baile/documents/mcha toolchain/toolchain/gcc-arm-none-eabi/bin/../lib/gcc/arm-none-eabi/9.2.1/../../../../arm-none-eabi/lib/thumb/v7e-m+fp/hard\libc_nano.a(lib_a-strtod.o) (__match)
c:/users/baile/documents/mcha toolchain/toolchain/gcc-arm-none-eabi/bin/../lib/gcc/arm-none-eabi/9.2.1/../../../../arm-none-eabi/lib/thumb/v7e-m+fp/hard\libc_nano.a(lib_a-getc.o)
                              c:/users/baile/documents/mcha toolchain/toolchain/gcc-arm-none-eabi/bin/../lib/gcc/arm-none-eabi/9.2.1/../../../../arm-none-eabi/lib/thumb/v7e-m+fp/hard\libc_nano.a(lib_a-getchar.o) (_getc_r)
c:/users/baile/documents/mcha toolchain/toolchain/gcc-arm-none-eabi/bin/../lib/gcc/arm-none-eabi/9.2.1/../../../../arm-none-eabi/lib/thumb/v7e-m+fp/hard\libc_nano.a(lib_a-lnumeric.o)
                              c:/users/baile/documents/mcha toolchain/toolchain/gcc-arm-none-eabi/bin/../lib/gcc/arm-none-eabi/9.2.1/../../../../arm-none-eabi/lib/thumb/v7e-m+fp/hard\libc_nano.a(lib_a-strtod.o) (_C_numeric_locale)
c:/users/baile/documents/mcha toolchain/toolchain/gcc-arm-none-eabi/bin/../lib/gcc/arm-none-eabi/9.2.1/../../../../arm-none-eabi/lib/thumb/v7e-m+fp/hard\libc_nano.a(lib_a-locale.o)
                              c:/users/baile/documents/mcha toolchain/toolchain/gcc-arm-none-eabi/bin/../lib/gcc/arm-none-eabi/9.2.1/../../../../arm-none-eabi/lib/thumb/v7e-m+fp/hard\libc_nano.a(lib_a-strtod.o) (__global_locale)
c:/users/baile/documents/mcha toolchain/toolchain/gcc-arm-none-eabi/bin/../lib/gcc/arm-none-eabi/9.2.1/../../../../arm-none-eabi/lib/thumb/v7e-m+fp/hard\libc_nano.a(lib_a-localeconv.o)
                              c:/users/baile/documents/mcha toolchain/toolchain/gcc-arm-none-eabi/bin/../lib/gcc/arm-none-eabi/9.2.1/../../../../arm-none-eabi/lib/thumb/v7e-m+fp/hard\libc_nano.a(lib_a-nano-vfprintf_float.o) (_localeconv_r)
c:/users/baile/documents/mcha toolchain/toolchain/gcc-arm-none-eabi/bin/../lib/gcc/arm-none-eabi/9.2.1/../../../../arm-none-eabi/lib/thumb/v7e-m+fp/hard\libc_nano.a(lib_a-lock.o)
                              c:/users/baile/documents/mcha toolchain/toolchain/gcc-arm-none-eabi/bin/../lib/gcc/arm-none-eabi/9.2.1/../../../../arm-none-eabi/lib/thumb/v7e-m+fp/hard\libc_nano.a(lib_a-findfp.o) (__retarget_lock_init_recursive)
c:/users/baile/documents/mcha toolchain/toolchain/gcc-arm-none-eabi/bin/../lib/gcc/arm-none-eabi/9.2.1/../../../../arm-none-eabi/lib/thumb/v7e-m+fp/hard\libc_nano.a(lib_a-makebuf.o)
                              c:/users/baile/documents/mcha toolchain/toolchain/gcc-arm-none-eabi/bin/../lib/gcc/arm-none-eabi/9.2.1/../../../../arm-none-eabi/lib/thumb/v7e-m+fp/hard\libc_nano.a(lib_a-setvbuf.o) (__swhatbuf_r)
c:/users/baile/documents/mcha toolchain/toolchain/gcc-arm-none-eabi/bin/../lib/gcc/arm-none-eabi/9.2.1/../../../../arm-none-eabi/lib/thumb/v7e-m+fp/hard\libc_nano.a(lib_a-mbtowc_r.o)
                              c:/users/baile/documents/mcha toolchain/toolchain/gcc-arm-none-eabi/bin/../lib/gcc/arm-none-eabi/9.2.1/../../../../arm-none-eabi/lib/thumb/v7e-m+fp/hard\libc_nano.a(lib_a-locale.o) (__ascii_mbtowc)
c:/users/baile/documents/mcha toolchain/toolchain/gcc-arm-none-eabi/bin/../lib/gcc/arm-none-eabi/9.2.1/../../../../arm-none-eabi/lib/thumb/v7e-m+fp/hard\libc_nano.a(lib_a-memchr.o)
                              c:/users/baile/documents/mcha toolchain/toolchain/gcc-arm-none-eabi/bin/../lib/gcc/arm-none-eabi/9.2.1/../../../../arm-none-eabi/lib/thumb/v7e-m+fp/hard\libc_nano.a(lib_a-nano-vfprintf_i.o) (memchr)
c:/users/baile/documents/mcha toolchain/toolchain/gcc-arm-none-eabi/bin/../lib/gcc/arm-none-eabi/9.2.1/../../../../arm-none-eabi/lib/thumb/v7e-m+fp/hard\libc_nano.a(lib_a-mprec.o)
                              c:/users/baile/documents/mcha toolchain/toolchain/gcc-arm-none-eabi/bin/../lib/gcc/arm-none-eabi/9.2.1/../../../../arm-none-eabi/lib/thumb/v7e-m+fp/hard\libc_nano.a(lib_a-strtod.o) (_Balloc)
c:/users/baile/documents/mcha toolchain/toolchain/gcc-arm-none-eabi/bin/../lib/gcc/arm-none-eabi/9.2.1/../../../../arm-none-eabi/lib/thumb/v7e-m+fp/hard\libc_nano.a(lib_a-nano-callocr.o)
                              c:/users/baile/documents/mcha toolchain/toolchain/gcc-arm-none-eabi/bin/../lib/gcc/arm-none-eabi/9.2.1/../../../../arm-none-eabi/lib/thumb/v7e-m+fp/hard\libc_nano.a(lib_a-mprec.o) (_calloc_r)
c:/users/baile/documents/mcha toolchain/toolchain/gcc-arm-none-eabi/bin/../lib/gcc/arm-none-eabi/9.2.1/../../../../arm-none-eabi/lib/thumb/v7e-m+fp/hard\libc_nano.a(lib_a-nano-svfprintf.o)
                              c:/users/baile/documents/mcha toolchain/toolchain/gcc-arm-none-eabi/bin/../lib/gcc/arm-none-eabi/9.2.1/../../../../arm-none-eabi/lib/thumb/v7e-m+fp/hard\libc_nano.a(lib_a-sprintf.o) (_svfprintf_r)
c:/users/baile/documents/mcha toolchain/toolchain/gcc-arm-none-eabi/bin/../lib/gcc/arm-none-eabi/9.2.1/../../../../arm-none-eabi/lib/thumb/v7e-m+fp/hard\libc_nano.a(lib_a-nano-vfprintf.o)
                              c:/users/baile/documents/mcha toolchain/toolchain/gcc-arm-none-eabi/bin/../lib/gcc/arm-none-eabi/9.2.1/../../../../arm-none-eabi/lib/thumb/v7e-m+fp/hard\libc_nano.a(lib_a-printf.o) (_vfprintf_r)
c:/users/baile/documents/mcha toolchain/toolchain/gcc-arm-none-eabi/bin/../lib/gcc/arm-none-eabi/9.2.1/../../../../arm-none-eabi/lib/thumb/v7e-m+fp/hard\libc_nano.a(lib_a-rget.o)
                              c:/users/baile/documents/mcha toolchain/toolchain/gcc-arm-none-eabi/bin/../lib/gcc/arm-none-eabi/9.2.1/../../../../arm-none-eabi/lib/thumb/v7e-m+fp/hard\libc_nano.a(lib_a-getc.o) (__srget_r)
c:/users/baile/documents/mcha toolchain/toolchain/gcc-arm-none-eabi/bin/../lib/gcc/arm-none-eabi/9.2.1/../../../../arm-none-eabi/lib/thumb/v7e-m+fp/hard\libc_nano.a(lib_a-s_nan.o)
                              c:/users/baile/documents/mcha toolchain/toolchain/gcc-arm-none-eabi/bin/../lib/gcc/arm-none-eabi/9.2.1/../../../../arm-none-eabi/lib/thumb/v7e-m+fp/hard\libc_nano.a(lib_a-strtod.o) (nan)
c:/users/baile/documents/mcha toolchain/toolchain/gcc-arm-none-eabi/bin/../lib/gcc/arm-none-eabi/9.2.1/../../../../arm-none-eabi/lib/thumb/v7e-m+fp/hard\libc_nano.a(lib_a-stdio.o)
                              c:/users/baile/documents/mcha toolchain/toolchain/gcc-arm-none-eabi/bin/../lib/gcc/arm-none-eabi/9.2.1/../../../../arm-none-eabi/lib/thumb/v7e-m+fp/hard\libc_nano.a(lib_a-findfp.o) (__sread)
c:/users/baile/documents/mcha toolchain/toolchain/gcc-arm-none-eabi/bin/../lib/gcc/arm-none-eabi/9.2.1/../../../../arm-none-eabi/lib/thumb/v7e-m+fp/hard\libc_nano.a(lib_a-strncmp.o)
                              c:/users/baile/documents/mcha toolchain/toolchain/gcc-arm-none-eabi/bin/../lib/gcc/arm-none-eabi/9.2.1/../../../../arm-none-eabi/lib/thumb/v7e-m+fp/hard\libc_nano.a(lib_a-strtod.o) (strncmp)
c:/users/baile/documents/mcha toolchain/toolchain/gcc-arm-none-eabi/bin/../lib/gcc/arm-none-eabi/9.2.1/../../../../arm-none-eabi/lib/thumb/v7e-m+fp/hard\libc_nano.a(lib_a-wbuf.o)
                              c:/users/baile/documents/mcha toolchain/toolchain/gcc-arm-none-eabi/bin/../lib/gcc/arm-none-eabi/9.2.1/../../../../arm-none-eabi/lib/thumb/v7e-m+fp/hard\libc_nano.a(lib_a-nano-vfprintf.o) (__swbuf_r)
c:/users/baile/documents/mcha toolchain/toolchain/gcc-arm-none-eabi/bin/../lib/gcc/arm-none-eabi/9.2.1/../../../../arm-none-eabi/lib/thumb/v7e-m+fp/hard\libc_nano.a(lib_a-wctomb_r.o)
                              c:/users/baile/documents/mcha toolchain/toolchain/gcc-arm-none-eabi/bin/../lib/gcc/arm-none-eabi/9.2.1/../../../../arm-none-eabi/lib/thumb/v7e-m+fp/hard\libc_nano.a(lib_a-locale.o) (__ascii_wctomb)
c:/users/baile/documents/mcha toolchain/toolchain/gcc-arm-none-eabi/bin/../lib/gcc/arm-none-eabi/9.2.1/../../../../arm-none-eabi/lib/thumb/v7e-m+fp/hard\libc_nano.a(lib_a-writer.o)
                              c:/users/baile/documents/mcha toolchain/toolchain/gcc-arm-none-eabi/bin/../lib/gcc/arm-none-eabi/9.2.1/../../../../arm-none-eabi/lib/thumb/v7e-m+fp/hard\libc_nano.a(lib_a-stdio.o) (_write_r)
c:/users/baile/documents/mcha toolchain/toolchain/gcc-arm-none-eabi/bin/../lib/gcc/arm-none-eabi/9.2.1/../../../../arm-none-eabi/lib/thumb/v7e-m+fp/hard\libc_nano.a(lib_a-wsetup.o)
                              c:/users/baile/documents/mcha toolchain/toolchain/gcc-arm-none-eabi/bin/../lib/gcc/arm-none-eabi/9.2.1/../../../../arm-none-eabi/lib/thumb/v7e-m+fp/hard\libc_nano.a(lib_a-nano-vfprintf.o) (__swsetup_r)
c:/users/baile/documents/mcha toolchain/toolchain/gcc-arm-none-eabi/bin/../lib/gcc/arm-none-eabi/9.2.1/../../../../arm-none-eabi/lib/thumb/v7e-m+fp/hard\libc_nano.a(lib_a-closer.o)
                              c:/users/baile/documents/mcha toolchain/toolchain/gcc-arm-none-eabi/bin/../lib/gcc/arm-none-eabi/9.2.1/../../../../arm-none-eabi/lib/thumb/v7e-m+fp/hard\libc_nano.a(lib_a-stdio.o) (_close_r)
c:/users/baile/documents/mcha toolchain/toolchain/gcc-arm-none-eabi/bin/../lib/gcc/arm-none-eabi/9.2.1/../../../../arm-none-eabi/lib/thumb/v7e-m+fp/hard\libc_nano.a(lib_a-fstatr.o)
                              c:/users/baile/documents/mcha toolchain/toolchain/gcc-arm-none-eabi/bin/../lib/gcc/arm-none-eabi/9.2.1/../../../../arm-none-eabi/lib/thumb/v7e-m+fp/hard\libc_nano.a(lib_a-makebuf.o) (_fstat_r)
c:/users/baile/documents/mcha toolchain/toolchain/gcc-arm-none-eabi/bin/../lib/gcc/arm-none-eabi/9.2.1/../../../../arm-none-eabi/lib/thumb/v7e-m+fp/hard\libc_nano.a(lib_a-fvwrite.o)
                              c:/users/baile/documents/mcha toolchain/toolchain/gcc-arm-none-eabi/bin/../lib/gcc/arm-none-eabi/9.2.1/../../../../arm-none-eabi/lib/thumb/v7e-m+fp/hard\libc_nano.a(lib_a-nano-vfprintf.o) (__sfvwrite_r)
c:/users/baile/documents/mcha toolchain/toolchain/gcc-arm-none-eabi/bin/../lib/gcc/arm-none-eabi/9.2.1/../../../../arm-none-eabi/lib/thumb/v7e-m+fp/hard\libc_nano.a(lib_a-isattyr.o)
                              c:/users/baile/documents/mcha toolchain/toolchain/gcc-arm-none-eabi/bin/../lib/gcc/arm-none-eabi/9.2.1/../../../../arm-none-eabi/lib/thumb/v7e-m+fp/hard\libc_nano.a(lib_a-makebuf.o) (_isatty_r)
c:/users/baile/documents/mcha toolchain/toolchain/gcc-arm-none-eabi/bin/../lib/gcc/arm-none-eabi/9.2.1/../../../../arm-none-eabi/lib/thumb/v7e-m+fp/hard\libc_nano.a(lib_a-lseekr.o)
                              c:/users/baile/documents/mcha toolchain/toolchain/gcc-arm-none-eabi/bin/../lib/gcc/arm-none-eabi/9.2.1/../../../../arm-none-eabi/lib/thumb/v7e-m+fp/hard\libc_nano.a(lib_a-stdio.o) (_lseek_r)
c:/users/baile/documents/mcha toolchain/toolchain/gcc-arm-none-eabi/bin/../lib/gcc/arm-none-eabi/9.2.1/../../../../arm-none-eabi/lib/thumb/v7e-m+fp/hard\libc_nano.a(lib_a-memmove.o)
                              c:/users/baile/documents/mcha toolchain/toolchain/gcc-arm-none-eabi/bin/../lib/gcc/arm-none-eabi/9.2.1/../../../../arm-none-eabi/lib/thumb/v7e-m+fp/hard\libc_nano.a(lib_a-nano-svfprintf.o) (memmove)
c:/users/baile/documents/mcha toolchain/toolchain/gcc-arm-none-eabi/bin/../lib/gcc/arm-none-eabi/9.2.1/../../../../arm-none-eabi/lib/thumb/v7e-m+fp/hard\libc_nano.a(lib_a-nano-reallocr.o)
                              c:/users/baile/documents/mcha toolchain/toolchain/gcc-arm-none-eabi/bin/../lib/gcc/arm-none-eabi/9.2.1/../../../../arm-none-eabi/lib/thumb/v7e-m+fp/hard\libc_nano.a(lib_a-nano-svfprintf.o) (_realloc_r)
c:/users/baile/documents/mcha toolchain/toolchain/gcc-arm-none-eabi/bin/../lib/gcc/arm-none-eabi/9.2.1/../../../../arm-none-eabi/lib/thumb/v7e-m+fp/hard\libc_nano.a(lib_a-readr.o)
                              c:/users/baile/documents/mcha toolchain/toolchain/gcc-arm-none-eabi/bin/../lib/gcc/arm-none-eabi/9.2.1/../../../../arm-none-eabi/lib/thumb/v7e-m+fp/hard\libc_nano.a(lib_a-stdio.o) (_read_r)
c:/users/baile/documents/mcha toolchain/toolchain/gcc-arm-none-eabi/bin/../lib/gcc/arm-none-eabi/9.2.1/../../../../arm-none-eabi/lib/thumb/v7e-m+fp/hard\libc_nano.a(lib_a-refill.o)
                              c:/users/baile/documents/mcha toolchain/toolchain/gcc-arm-none-eabi/bin/../lib/gcc/arm-none-eabi/9.2.1/../../../../arm-none-eabi/lib/thumb/v7e-m+fp/hard\libc_nano.a(lib_a-rget.o) (__srefill_r)
c:/users/baile/documents/mcha toolchain/toolchain/gcc-arm-none-eabi/bin/../lib/gcc/arm-none-eabi/9.2.1/../../../../arm-none-eabi/lib/thumb/v7e-m+fp/hard\libc_nano.a(lib_a-nano-msizer.o)
                              c:/users/baile/documents/mcha toolchain/toolchain/gcc-arm-none-eabi/bin/../lib/gcc/arm-none-eabi/9.2.1/../../../../arm-none-eabi/lib/thumb/v7e-m+fp/hard\libc_nano.a(lib_a-nano-reallocr.o) (_malloc_usable_size_r)
c:/users/baile/documents/mcha toolchain/toolchain/gcc-arm-none-eabi/bin/../lib/gcc/arm-none-eabi/9.2.1/thumb/v7e-m+fp/hard\libgcc.a(_arm_unorddf2.o)
                              c:/users/baile/documents/mcha toolchain/toolchain/gcc-arm-none-eabi/bin/../lib/gcc/arm-none-eabi/9.2.1/../../../../arm-none-eabi/lib/thumb/v7e-m+fp/hard\libc_nano.a(lib_a-nano-vfprintf_float.o) (__aeabi_dcmpun)
c:/users/baile/documents/mcha toolchain/toolchain/gcc-arm-none-eabi/bin/../lib/gcc/arm-none-eabi/9.2.1/thumb/v7e-m+fp/hard\libgcc.a(_arm_fixunsdfsi.o)
                              c:/users/baile/documents/mcha toolchain/toolchain/gcc-arm-none-eabi/bin/../lib/gcc/arm-none-eabi/9.2.1/../../../../arm-none-eabi/lib/thumb/v7e-m+fp/hard\libc_nano.a(lib_a-strtod.o) (__aeabi_d2uiz)
c:/users/baile/documents/mcha toolchain/toolchain/gcc-arm-none-eabi/bin/../lib/gcc/arm-none-eabi/9.2.1/thumb/v7e-m+fp/hard\libgcc.a(_fixdfdi.o)
                              c:/users/baile/documents/mcha toolchain/toolchain/gcc-arm-none-eabi/bin/../lib/gcc/arm-none-eabi/9.2.1/../../../../arm-none-eabi/lib/thumb/v7e-m+fp/hard\libc_nano.a(lib_a-strtod.o) (__aeabi_d2lz)
c:/users/baile/documents/mcha toolchain/toolchain/gcc-arm-none-eabi/bin/../lib/gcc/arm-none-eabi/9.2.1/thumb/v7e-m+fp/hard\libgcc.a(_fixunsdfdi.o)
                              c:/users/baile/documents/mcha toolchain/toolchain/gcc-arm-none-eabi/bin/../lib/gcc/arm-none-eabi/9.2.1/thumb/v7e-m+fp/hard\libgcc.a(_fixdfdi.o) (__aeabi_d2ulz)
c:/users/baile/documents/mcha toolchain/toolchain/gcc-arm-none-eabi/bin/../lib/gcc/arm-none-eabi/9.2.1/../../../../arm-none-eabi/lib/thumb/v7e-m+fp/hard\libnosys.a(close.o)
                              c:/users/baile/documents/mcha toolchain/toolchain/gcc-arm-none-eabi/bin/../lib/gcc/arm-none-eabi/9.2.1/../../../../arm-none-eabi/lib/thumb/v7e-m+fp/hard\libc_nano.a(lib_a-closer.o) (_close)
c:/users/baile/documents/mcha toolchain/toolchain/gcc-arm-none-eabi/bin/../lib/gcc/arm-none-eabi/9.2.1/../../../../arm-none-eabi/lib/thumb/v7e-m+fp/hard\libnosys.a(fstat.o)
                              c:/users/baile/documents/mcha toolchain/toolchain/gcc-arm-none-eabi/bin/../lib/gcc/arm-none-eabi/9.2.1/../../../../arm-none-eabi/lib/thumb/v7e-m+fp/hard\libc_nano.a(lib_a-fstatr.o) (_fstat)
c:/users/baile/documents/mcha toolchain/toolchain/gcc-arm-none-eabi/bin/../lib/gcc/arm-none-eabi/9.2.1/../../../../arm-none-eabi/lib/thumb/v7e-m+fp/hard\libnosys.a(isatty.o)
                              c:/users/baile/documents/mcha toolchain/toolchain/gcc-arm-none-eabi/bin/../lib/gcc/arm-none-eabi/9.2.1/../../../../arm-none-eabi/lib/thumb/v7e-m+fp/hard\libc_nano.a(lib_a-isattyr.o) (_isatty)
c:/users/baile/documents/mcha toolchain/toolchain/gcc-arm-none-eabi/bin/../lib/gcc/arm-none-eabi/9.2.1/../../../../arm-none-eabi/lib/thumb/v7e-m+fp/hard\libnosys.a(lseek.o)
                              c:/users/baile/documents/mcha toolchain/toolchain/gcc-arm-none-eabi/bin/../lib/gcc/arm-none-eabi/9.2.1/../../../../arm-none-eabi/lib/thumb/v7e-m+fp/hard\libc_nano.a(lib_a-lseekr.o) (_lseek)
c:/users/baile/documents/mcha toolchain/toolchain/gcc-arm-none-eabi/bin/../lib/gcc/arm-none-eabi/9.2.1/../../../../arm-none-eabi/lib/thumb/v7e-m+fp/hard\libnosys.a(_exit.o)
                              c:/users/baile/documents/mcha toolchain/toolchain/gcc-arm-none-eabi/bin/../lib/gcc/arm-none-eabi/9.2.1/../../../../arm-none-eabi/lib/thumb/v7e-m+fp/hard\libc_nano.a(lib_a-exit.o) (_exit)

Allocating common symbols
Common symbol       size              file

__lock___atexit_recursive_mutex
                    0x1               c:/users/baile/documents/mcha toolchain/toolchain/gcc-arm-none-eabi/bin/../lib/gcc/arm-none-eabi/9.2.1/../../../../arm-none-eabi/lib/thumb/v7e-m+fp/hard\libc_nano.a(lib_a-lock.o)
__lock___arc4random_mutex
                    0x1               c:/users/baile/documents/mcha toolchain/toolchain/gcc-arm-none-eabi/bin/../lib/gcc/arm-none-eabi/9.2.1/../../../../arm-none-eabi/lib/thumb/v7e-m+fp/hard\libc_nano.a(lib_a-lock.o)
errno               0x4               c:/users/baile/documents/mcha toolchain/toolchain/gcc-arm-none-eabi/bin/../lib/gcc/arm-none-eabi/9.2.1/../../../../arm-none-eabi/lib/thumb/v7e-m+fp/hard\libc_nano.a(lib_a-reent.o)
uwTick              0x4               build/stm32f4_HAL/stm32f4xx_hal.o
__lock___env_recursive_mutex
                    0x1               c:/users/baile/documents/mcha toolchain/toolchain/gcc-arm-none-eabi/bin/../lib/gcc/arm-none-eabi/9.2.1/../../../../arm-none-eabi/lib/thumb/v7e-m+fp/hard\libc_nano.a(lib_a-lock.o)
__lock___sinit_recursive_mutex
                    0x1               c:/users/baile/documents/mcha toolchain/toolchain/gcc-arm-none-eabi/bin/../lib/gcc/arm-none-eabi/9.2.1/../../../../arm-none-eabi/lib/thumb/v7e-m+fp/hard\libc_nano.a(lib_a-lock.o)
numdrop             0x4               build/controller.o
__lock___malloc_recursive_mutex
                    0x1               c:/users/baile/documents/mcha toolchain/toolchain/gcc-arm-none-eabi/bin/../lib/gcc/arm-none-eabi/9.2.1/../../../../arm-none-eabi/lib/thumb/v7e-m+fp/hard\libc_nano.a(lib_a-lock.o)
numadd              0x4               build/controller.o
time                0x8               build/data_logging.o
IMU_datastruct      0x1c              build/IMU.o
__lock___at_quick_exit_mutex
                    0x1               c:/users/baile/documents/mcha toolchain/toolchain/gcc-arm-none-eabi/bin/../lib/gcc/arm-none-eabi/9.2.1/../../../../arm-none-eabi/lib/thumb/v7e-m+fp/hard\libc_nano.a(lib_a-lock.o)
numits              0x4               build/controller.o
__lock___dd_hash_mutex
                    0x1               c:/users/baile/documents/mcha toolchain/toolchain/gcc-arm-none-eabi/bin/../lib/gcc/arm-none-eabi/9.2.1/../../../../arm-none-eabi/lib/thumb/v7e-m+fp/hard\libc_nano.a(lib_a-lock.o)
__lock___tz_mutex   0x1               c:/users/baile/documents/mcha toolchain/toolchain/gcc-arm-none-eabi/bin/../lib/gcc/arm-none-eabi/9.2.1/../../../../arm-none-eabi/lib/thumb/v7e-m+fp/hard\libc_nano.a(lib_a-lock.o)
__lock___sfp_recursive_mutex
                    0x1               c:/users/baile/documents/mcha toolchain/toolchain/gcc-arm-none-eabi/bin/../lib/gcc/arm-none-eabi/9.2.1/../../../../arm-none-eabi/lib/thumb/v7e-m+fp/hard\libc_nano.a(lib_a-lock.o)

Memory Configuration

Name             Origin             Length             Attributes
FLASH            0x08000000         0x00080000         xr
RAM              0x20000000         0x00020000         xrw
*default*        0x00000000         0xffffffff

Linker script and memory map

LOAD c:/users/baile/documents/mcha toolchain/toolchain/gcc-arm-none-eabi/bin/../lib/gcc/arm-none-eabi/9.2.1/thumb/v7e-m+fp/hard/crti.o
LOAD c:/users/baile/documents/mcha toolchain/toolchain/gcc-arm-none-eabi/bin/../lib/gcc/arm-none-eabi/9.2.1/thumb/v7e-m+fp/hard/crtbegin.o
LOAD c:/users/baile/documents/mcha toolchain/toolchain/gcc-arm-none-eabi/bin/../lib/gcc/arm-none-eabi/9.2.1/../../../../arm-none-eabi/lib/thumb/v7e-m+fp/hard/crt0.o
LOAD build/stm32f4xx_it.o
LOAD build/system_stm32f4xx.o
LOAD build/cmd_line_buffer.o
LOAD build/cmd_parser.o
LOAD build/cmd_task.o
LOAD build/main.o
LOAD build/uart.o
LOAD build/heartbeat_task.o
LOAD build/heartbeat_cmd.o
LOAD build/dummy_task.o
LOAD build/Curr_Sen.o
LOAD build/Meas_Volt.o
LOAD build/motor.o
LOAD build/data_logging.o
LOAD build/IMU.o
LOAD build/controller.o
LOAD build/Observer.o
LOAD build/qpas_sub_noblas.o
LOAD build/startup_stm32f446xx.o
LOAD build/stm32f4_HAL/stm32f4xx_hal.o
LOAD build/stm32f4_HAL/stm32f4xx_hal_dma.o
LOAD build/stm32f4_HAL/stm32f4xx_hal_adc.o
LOAD build/stm32f4_HAL/stm32f4xx_hal_adc_ex.o
LOAD build/stm32f4_HAL/stm32f4xx_hal_gpio.o
LOAD build/stm32f4_HAL/stm32f4xx_ll_gpio.o
LOAD build/stm32f4_HAL/stm32f4xx_ll_usart.o
LOAD build/stm32f4_HAL/stm32f4xx_ll_dma.o
LOAD build/stm32f4_HAL/stm32f4xx_ll_rcc.o
LOAD build/stm32f4_HAL/stm32f4xx_hal_i2c.o
LOAD build/stm32f4_HAL/stm32f4xx_hal_i2c_ex.o
LOAD build/stm32f4_HAL/stm32f4xx_hal_tim.o
LOAD build/stm32f4_HAL/stm32f4xx_hal_tim_ex.o
LOAD build/stm32f4_HAL/stm32f4xx_hal_rtc.o
LOAD build/stm32f4_HAL/stm32f4xx_hal_rcc.o
LOAD build/stm32f4_HAL/stm32f4xx_hal_rcc_ex.o
LOAD build/stm32f4_HAL/stm32f4xx_hal_pwr.o
LOAD build/stm32f4_HAL/stm32f4xx_hal_pwr_ex.o
LOAD build/stm32f4_HAL/stm32f4xx_hal_cortex.o
LOAD build/stm32f4_HAL/stm32f4xx_hal_spi.o
LOAD build/stm32f4_HAL/stm32f4xx_hal_dac.o
LOAD build/stm32f4_HAL/stm32f4xx_hal_dac_ex.o
LOAD build/stm32f4_HAL/stm32f4xx_hal_can.o
LOAD build/FreeRTOS/croutine.o
LOAD build/FreeRTOS/event_groups.o
LOAD build/FreeRTOS/list.o
LOAD build/FreeRTOS/queue.o
LOAD build/FreeRTOS/tasks.o
LOAD build/FreeRTOS/timers.o
LOAD build/FreeRTOS/stream_buffer.o
LOAD build/FreeRTOS/cmsis_os2.o
LOAD build/FreeRTOS/clib_arm.o
LOAD build/FreeRTOS/os_systick.o
LOAD build/FreeRTOS/heap_useNewlib.o
LOAD build/FreeRTOS/port.o
LOAD build/tm_stm32_gpio.o
LOAD build/tm_stm32_i2c.o
LOAD build/tm_stm32_mpu6050.o
LOAD c:/users/baile/documents/mcha toolchain/toolchain/gcc-arm-none-eabi/bin/../lib/gcc/arm-none-eabi/9.2.1/../../../../arm-none-eabi/lib/thumb/v7e-m+fp/hard\libm.a
LOAD ../STM32Cube_F4_FW/Drivers/CMSIS/Lib/GCC/libarm_cortexM4lf_math.a
START GROUP
LOAD c:/users/baile/documents/mcha toolchain/toolchain/gcc-arm-none-eabi/bin/../lib/gcc/arm-none-eabi/9.2.1/thumb/v7e-m+fp/hard\libgcc.a
LOAD c:/users/baile/documents/mcha toolchain/toolchain/gcc-arm-none-eabi/bin/../lib/gcc/arm-none-eabi/9.2.1/../../../../arm-none-eabi/lib/thumb/v7e-m+fp/hard\libc_nano.a
END GROUP
START GROUP
LOAD c:/users/baile/documents/mcha toolchain/toolchain/gcc-arm-none-eabi/bin/../lib/gcc/arm-none-eabi/9.2.1/thumb/v7e-m+fp/hard\libgcc.a
LOAD c:/users/baile/documents/mcha toolchain/toolchain/gcc-arm-none-eabi/bin/../lib/gcc/arm-none-eabi/9.2.1/../../../../arm-none-eabi/lib/thumb/v7e-m+fp/hard\libc_nano.a
LOAD c:/users/baile/documents/mcha toolchain/toolchain/gcc-arm-none-eabi/bin/../lib/gcc/arm-none-eabi/9.2.1/../../../../arm-none-eabi/lib/thumb/v7e-m+fp/hard\libnosys.a
END GROUP
START GROUP
LOAD c:/users/baile/documents/mcha toolchain/toolchain/gcc-arm-none-eabi/bin/../lib/gcc/arm-none-eabi/9.2.1/thumb/v7e-m+fp/hard\libgcc.a
LOAD c:/users/baile/documents/mcha toolchain/toolchain/gcc-arm-none-eabi/bin/../lib/gcc/arm-none-eabi/9.2.1/../../../../arm-none-eabi/lib/thumb/v7e-m+fp/hard\libc_nano.a
LOAD c:/users/baile/documents/mcha toolchain/toolchain/gcc-arm-none-eabi/bin/../lib/gcc/arm-none-eabi/9.2.1/../../../../arm-none-eabi/lib/thumb/v7e-m+fp/hard\libnosys.a
END GROUP
LOAD c:/users/baile/documents/mcha toolchain/toolchain/gcc-arm-none-eabi/bin/../lib/gcc/arm-none-eabi/9.2.1/thumb/v7e-m+fp/hard/crtend.o
LOAD c:/users/baile/documents/mcha toolchain/toolchain/gcc-arm-none-eabi/bin/../lib/gcc/arm-none-eabi/9.2.1/thumb/v7e-m+fp/hard/crtn.o
                0x20020000                _estack = 0x20020000
                0x00010000                _Min_Heap_Size = 0x10000
                0x00002000                _Min_Stack_Size = 0x2000

.isr_vector     0x08000000      0x1c4
                0x08000000                . = ALIGN (0x4)
 *(.isr_vector)
 .isr_vector    0x08000000      0x1c4 build/startup_stm32f446xx.o
                0x08000000                g_pfnVectors
                0x080001c4                . = ALIGN (0x4)

.text           0x080001d0    0x1b3cc
                0x080001d0                . = ALIGN (0x4)
 *(.text)
 .text          0x080001d0        0x0 c:/users/baile/documents/mcha toolchain/toolchain/gcc-arm-none-eabi/bin/../lib/gcc/arm-none-eabi/9.2.1/thumb/v7e-m+fp/hard/crti.o
 .text          0x080001d0       0x40 c:/users/baile/documents/mcha toolchain/toolchain/gcc-arm-none-eabi/bin/../lib/gcc/arm-none-eabi/9.2.1/thumb/v7e-m+fp/hard/crtbegin.o
 .text          0x08000210       0x74 c:/users/baile/documents/mcha toolchain/toolchain/gcc-arm-none-eabi/bin/../lib/gcc/arm-none-eabi/9.2.1/../../../../arm-none-eabi/lib/thumb/v7e-m+fp/hard/crt0.o
                0x08000210                _start
                0x08000210                _mainCRTStartup
 .text          0x08000284        0xc build/stm32f4xx_it.o
                0x08000284                NMI_Handler
                0x08000286                HardFault_Handler
                0x08000288                MemManage_Handler
                0x0800028a                BusFault_Handler
                0x0800028c                UsageFault_Handler
                0x0800028e                DebugMon_Handler
 .text          0x08000290       0xc0 build/system_stm32f4xx.o
                0x08000290                SystemInit
                0x080002dc                SystemCoreClockUpdate
 .text          0x08000350      0x104 build/cmd_line_buffer.o
                0x08000350                clb_init
                0x0800035a                clb_is_empty
                0x08000364                clb_is_full
                0x08000372                clb_delc
                0x0800037c                clb_is_cmd_ready
                0x08000394                clb_putc
                0x080003b4                clb_consume_char
                0x080003dc                clb_consume_str
                0x080003f6                clb_gets_at
                0x0800040e                clb_gets
                0x08000414                clb_process
 .text          0x08000454      0x344 build/cmd_parser.o
                0x080006e8                cmd_parse
 .text          0x08000798       0x4c build/cmd_task.o
                0x080007b8                cmd_task_init
 .text          0x080007e4        0x0 build/main.o
 .text          0x080007e4      0x47c build/uart.o
                0x080007e4                uart_init
                0x08000ab8                __wrap_printf
                0x08000af0                __io_putchar
                0x08000b20                __io_getchar
                0x08000b3c                _write
                0x08000b58                _read
                0x08000b6c                _uart_rxne_isr
                0x08000b94                _uart_txe_isr
                0x08000bcc                _uart_error
                0x08000c24                USART2_IRQHandler
 .text          0x08000c60       0xc4 build/heartbeat_task.o
                0x08000c7c                heartbeat_task_init
                0x08000cd8                heartbeat_task_start
                0x08000cf0                heartbeat_task_stop
                0x08000d08                heartbeat_task_is_running
                0x08000d14                heartbeat_task_deinit
 .text          0x08000d24       0x70 build/heartbeat_cmd.o
                0x08000d24                heartbeat_cmd
 .text          0x08000d94       0x80 build/dummy_task.o
                0x08000da0                dummy_task_init
                0x08000dc8                dummy_task_start
                0x08000de0                dummy_task_stop
                0x08000df8                dummy_task_is_running
                0x08000e04                dummy_task_deinit
 *fill*         0x08000e14        0x4 
 .text          0x08000e18      0x1a4 build/Curr_Sen.o
                0x08000e18                Sensor_init
                0x08000eb8                Sensor_read
                0x08000f8c                get_VoltageMotorA
                0x08000f98                get_CurrentMotorA
                0x08000fa4                get_VoltageMotorB
                0x08000fb0                get_CurrentMotorB
 *fill*         0x08000fbc        0x4 
 .text          0x08000fc0      0x15c build/Meas_Volt.o
                0x08000fc0                MeasureVolt_Init
                0x08001048                Measured_read_voltage
                0x080010a4                Battery_read_Volatage
 *fill*         0x0800111c        0x4 
 .text          0x08001120      0x478 build/motor.o
                0x08001120                motorA_PWM_init
                0x080011b8                motorB_PWM_init
                0x08001250                motorA_encoder_init
                0x080012b4                motorB_encoder_init
                0x08001318                motorA_encoder_getValue
                0x08001324                motorB_encoder_getValue
                0x08001330                DutyCycleA_Update
                0x080013e8                DutyCycleB_Update
                0x080014a8                EXTI0_IRQHandler
                0x080014e4                EXTI1_IRQHandler
                0x08001520                EXTI2_IRQHandler
                0x0800155c                EXTI3_IRQHandler
 .text          0x08001598      0x260 build/data_logging.o
                0x080015a4                logging_init
                0x080015c4                pend_logging_stop
                0x080017a4                imu_logging_start
                0x080017c0                MotorA_logging_start
                0x080017dc                Encoder_logg_start
 .text          0x080017f8      0x270 build/IMU.o
                0x080017f8                IMU_init
                0x08001808                IMU_read
                0x08001814                get_gyroX
                0x08001858                get_gyroY
                0x080018a0                get_accY
                0x080018dc                get_accZ
                0x08001914                get_acc_angle
                0x080019c0                get_acc_angle2
 .text          0x08001a68      0x13c build/controller.o
                0x08001a68                ctrl_init
                0x08001ab8                ctrl_update
                0x08001b74                controller_set_x1
                0x08001b80                controller_set_x2
                0x08001b8c                controller_set_x3
                0x08001b98                get_input
 .text          0x08001ba4      0x1c0 build/Observer.o
                0x08001ba4                observer_init
                0x08001c84                observer_update
                0x08001d00                observer_set_y1
                0x08001d0c                observer_set_y2
                0x08001d18                observer_set_u1
                0x08001d24                observer_get_xh
 *fill*         0x08001d64        0x4 
 .text          0x08001d68     0x16d8 build/qpas_sub_noblas.o
                0x08001d68                printvector
                0x08001df8                printmatrix
                0x08001edc                qpas_sub_noblas
 .text          0x08003440       0x14 build/startup_stm32f446xx.o
 .text          0x08003454      0x20c build/stm32f4_HAL/stm32f4xx_hal.o
                0x08003454                HAL_MspInit
                0x08003456                HAL_MspDeInit
                0x08003458                HAL_DeInit
                0x08003484                HAL_InitTick
                0x080034c8                HAL_Init
                0x080034fc                HAL_IncTick
                0x08003514                HAL_GetTick
                0x08003520                HAL_GetTickPrio
                0x0800352c                HAL_SetTickFreq
                0x0800354c                HAL_GetTickFreq
                0x08003558                HAL_Delay
                0x08003580                HAL_SuspendTick
                0x08003590                HAL_ResumeTick
                0x080035a0                HAL_GetHalVersion
                0x080035a8                HAL_GetREVID
                0x080035b4                HAL_GetDEVID
                0x080035c4                HAL_DBGMCU_EnableDBGSleepMode
                0x080035d4                HAL_DBGMCU_DisableDBGSleepMode
                0x080035e4                HAL_DBGMCU_EnableDBGStopMode
                0x080035f4                HAL_DBGMCU_DisableDBGStopMode
                0x08003604                HAL_DBGMCU_EnableDBGStandbyMode
                0x08003614                HAL_DBGMCU_DisableDBGStandbyMode
                0x08003624                HAL_EnableCompensationCell
                0x08003630                HAL_DisableCompensationCell
                0x0800363c                HAL_GetUIDw0
                0x08003648                HAL_GetUIDw1
                0x08003654                HAL_GetUIDw2
 .text          0x08003660      0x630 build/stm32f4_HAL/stm32f4xx_hal_dma.o
                0x0800368c                HAL_DMA_Init
                0x0800378c                HAL_DMA_DeInit
                0x080037e0                HAL_DMA_Start
                0x08003834                HAL_DMA_Start_IT
                0x080038a8                HAL_DMA_Abort
                0x08003930                HAL_DMA_Abort_IT
                0x08003954                HAL_DMA_PollForTransfer
                0x08003a62                HAL_DMA_IRQHandler
                0x08003bdc                HAL_DMA_RegisterCallback
                0x08003c24                HAL_DMA_UnRegisterCallback
                0x08003c86                HAL_DMA_GetState
                0x08003c8c                HAL_DMA_GetError
 .text          0x08003c90      0x9c8 build/stm32f4_HAL/stm32f4xx_hal_adc.o
                0x08003c90                HAL_ADC_MspInit
                0x08003c92                HAL_ADC_Init
                0x08003de0                HAL_ADC_MspDeInit
                0x08003de2                HAL_ADC_DeInit
                0x08003e16                HAL_ADC_Start
                0x08003f00                HAL_ADC_Stop
                0x08003f36                HAL_ADC_PollForConversion
                0x08003fd4                HAL_ADC_PollForEvent
                0x0800403a                HAL_ADC_Start_IT
                0x08004130                HAL_ADC_Stop_IT
                0x08004178                HAL_ADC_Start_DMA
                0x0800429c                HAL_ADC_Stop_DMA
                0x080042f6                HAL_ADC_GetValue
                0x080042fc                HAL_ADC_ConvCpltCallback
                0x080042fe                HAL_ADC_ConvHalfCpltCallback
                0x0800430a                HAL_ADC_LevelOutOfWindowCallback
                0x0800430c                HAL_ADC_ErrorCallback
                0x0800430e                HAL_ADC_IRQHandler
                0x080044b8                HAL_ADC_ConfigChannel
                0x080045f0                HAL_ADC_AnalogWDGConfig
                0x0800464e                HAL_ADC_GetState
                0x08004652                HAL_ADC_GetError
 .text          0x08004658      0x6ac build/stm32f4_HAL/stm32f4xx_hal_adc_ex.o
                0x080046c8                HAL_ADCEx_InjectedStart
                0x0800477c                HAL_ADCEx_InjectedStart_IT
                0x08004838                HAL_ADCEx_InjectedStop
                0x08004892                HAL_ADCEx_InjectedPollForConversion
                0x0800491a                HAL_ADCEx_InjectedStop_IT
                0x0800497c                HAL_ADCEx_InjectedGetValue
                0x080049ae                HAL_ADCEx_MultiModeStart_DMA
                0x08004aa8                HAL_ADCEx_MultiModeStop_DMA
                0x08004b08                HAL_ADCEx_MultiModeGetValue
                0x08004b14                HAL_ADCEx_InjectedConvCpltCallback
                0x08004b16                HAL_ADCEx_InjectedConfigChannel
                0x08004cb4                HAL_ADCEx_MultiModeConfigChannel
 .text          0x08004d04      0x334 build/stm32f4_HAL/stm32f4xx_hal_gpio.o
                0x08004d04                HAL_GPIO_Init
                0x08004eb4                HAL_GPIO_DeInit
                0x08004fd0                HAL_GPIO_ReadPin
                0x08004fdc                HAL_GPIO_WritePin
                0x08004fe6                HAL_GPIO_TogglePin
                0x08004ff4                HAL_GPIO_LockPin
                0x0800501e                HAL_GPIO_EXTI_Callback
                0x08005020                HAL_GPIO_EXTI_IRQHandler
 .text          0x08005038      0x220 build/stm32f4_HAL/stm32f4xx_ll_gpio.o
                0x08005058                LL_GPIO_DeInit
                0x08005104                LL_GPIO_Init
                0x08005240                LL_GPIO_StructInit
 .text          0x08005258      0x21c build/stm32f4_HAL/stm32f4xx_ll_usart.o
                0x08005258                LL_USART_DeInit
                0x08005318                LL_USART_Init
                0x08005414                LL_USART_StructInit
                0x0800542c                LL_USART_ClockInit
                0x08005466                LL_USART_ClockStructInit
 .text          0x08005474      0x238 build/stm32f4_HAL/stm32f4xx_ll_dma.o
                0x08005474                LL_DMA_DeInit
                0x08005604                LL_DMA_Init
                0x08005688                LL_DMA_StructInit
 .text          0x080056ac      0x604 build/stm32f4_HAL/stm32f4xx_ll_rcc.o
                0x080056bc                LL_RCC_DeInit
                0x0800576c                LL_RCC_GetCECClockFreq
                0x0800579c                RCC_GetHCLKClockFreq
                0x080057b4                RCC_GetPCLK1ClockFreq
                0x080057cc                RCC_GetPCLK2ClockFreq
                0x080057e4                RCC_PLL_GetFreqDomain_SYS
                0x0800582c                RCC_GetSystemClockFreq
                0x0800585c                LL_RCC_GetSystemClocksFreq
                0x0800587c                LL_RCC_GetFMPI2CClockFreq
                0x080058cc                RCC_PLL_GetFreqDomain_48M
                0x08005908                RCC_PLL_GetFreqDomain_I2S
                0x08005944                RCC_PLL_GetFreqDomain_SPDIFRX
                0x08005948                RCC_PLL_GetFreqDomain_SAI
                0x0800594c                RCC_PLLSAI_GetFreqDomain_SAI
                0x0800599c                RCC_PLLSAI_GetFreqDomain_48M
                0x080059e0                LL_RCC_GetSDIOClockFreq
                0x08005a28                LL_RCC_GetUSBClockFreq
                0x08005a5c                RCC_PLLI2S_GetFreqDomain_SAI
                0x08005aac                LL_RCC_GetSAIClockFreq
                0x08005b60                RCC_PLLI2S_GetFreqDomain_SPDIFRX
                0x08005ba4                LL_RCC_GetSPDIFRXClockFreq
                0x08005bd8                RCC_PLLI2S_GetFreqDomain_I2S
                0x08005c18                LL_RCC_GetI2SClockFreq
 .text          0x08005cb0     0x31e0 build/stm32f4_HAL/stm32f4xx_hal_i2c.o
                0x080060d4                HAL_I2C_MspInit
                0x080060d6                HAL_I2C_Init
                0x08006224                HAL_I2C_MspDeInit
                0x08006226                HAL_I2C_DeInit
                0x08006258                HAL_I2C_Master_Transmit
                0x08006408                HAL_I2C_Master_Receive
                0x080066e8                HAL_I2C_Slave_Transmit
                0x08006848                HAL_I2C_Slave_Receive
                0x080069c4                HAL_I2C_Master_Transmit_IT
                0x08006a74                HAL_I2C_Master_Receive_IT
                0x08006b2c                HAL_I2C_Slave_Transmit_IT
                0x08006b9c                HAL_I2C_Slave_Receive_IT
                0x08006c0c                HAL_I2C_Master_Transmit_DMA
                0x08006d38                HAL_I2C_Master_Receive_DMA
                0x08006e60                HAL_I2C_Slave_Transmit_DMA
                0x08006f20                HAL_I2C_Slave_Receive_DMA
                0x08006fe0                HAL_I2C_Mem_Write
                0x08007100                HAL_I2C_Mem_Read
                0x08007310                HAL_I2C_Mem_Write_IT
                0x080073cc                HAL_I2C_Mem_Read_IT
                0x08007498                HAL_I2C_Mem_Write_DMA
                0x080075e0                HAL_I2C_Mem_Read_DMA
                0x0800776c                HAL_I2C_IsDeviceReady
                0x080078cc                HAL_I2C_Master_Seq_Transmit_IT
                0x0800799c                HAL_I2C_Master_Seq_Transmit_DMA
                0x08007b10                HAL_I2C_Master_Seq_Receive_IT
                0x08007c1c                HAL_I2C_Master_Seq_Receive_DMA
                0x08007de8                HAL_I2C_Slave_Seq_Transmit_IT
                0x08007e5e                HAL_I2C_Slave_Seq_Transmit_DMA
                0x08007f9c                HAL_I2C_Slave_Seq_Receive_IT
                0x08008012                HAL_I2C_Slave_Seq_Receive_DMA
                0x08008150                HAL_I2C_EnableListen_IT
                0x08008186                HAL_I2C_DisableListen_IT
                0x080081c4                HAL_I2C_MasterTxCpltCallback
                0x080081c6                HAL_I2C_MasterRxCpltCallback
                0x080081c8                HAL_I2C_SlaveTxCpltCallback
                0x080081ca                HAL_I2C_SlaveRxCpltCallback
                0x080081cc                HAL_I2C_AddrCallback
                0x080081ce                HAL_I2C_ListenCpltCallback
                0x080081d0                HAL_I2C_MemTxCpltCallback
                0x080081d2                HAL_I2C_MemRxCpltCallback
                0x080081d4                HAL_I2C_ErrorCallback
                0x08008322                HAL_I2C_AbortCpltCallback
                0x080084f4                HAL_I2C_Master_Abort_IT
                0x08008540                HAL_I2C_EV_IRQHandler
                0x08008d4c                HAL_I2C_ER_IRQHandler
                0x08008e80                HAL_I2C_GetState
                0x08008e86                HAL_I2C_GetMode
                0x08008e8c                HAL_I2C_GetError
 .text          0x08008e90       0x7c build/stm32f4_HAL/stm32f4xx_hal_i2c_ex.o
                0x08008e90                HAL_I2CEx_ConfigAnalogFilter
                0x08008ece                HAL_I2CEx_ConfigDigitalFilter
 .text          0x08008f0c     0x1dec build/stm32f4_HAL/stm32f4xx_hal_tim.o
                0x08009028                HAL_TIM_Base_MspInit
                0x0800902a                HAL_TIM_Base_MspDeInit
                0x0800902c                HAL_TIM_Base_DeInit
                0x08009066                HAL_TIM_Base_Start
                0x0800908a                HAL_TIM_Base_Stop
                0x080090b8                HAL_TIM_Base_Start_IT
                0x080090d8                HAL_TIM_Base_Stop_IT
                0x08009102                HAL_TIM_Base_Start_DMA
                0x0800916c                HAL_TIM_Base_Stop_DMA
                0x080091a8                HAL_TIM_OC_MspInit
                0x080091aa                HAL_TIM_OC_MspDeInit
                0x080091ac                HAL_TIM_OC_DeInit
                0x080091e6                HAL_TIM_PWM_MspInit
                0x080091e8                HAL_TIM_PWM_MspDeInit
                0x080091ea                HAL_TIM_PWM_DeInit
                0x08009224                HAL_TIM_IC_MspInit
                0x08009226                HAL_TIM_IC_MspDeInit
                0x08009228                HAL_TIM_IC_DeInit
                0x08009262                HAL_TIM_OnePulse_MspInit
                0x08009264                HAL_TIM_OnePulse_MspDeInit
                0x08009266                HAL_TIM_OnePulse_DeInit
                0x080092a0                HAL_TIM_OnePulse_Start
                0x080092e0                HAL_TIM_OnePulse_Stop
                0x08009348                HAL_TIM_OnePulse_Start_IT
                0x08009398                HAL_TIM_OnePulse_Stop_IT
                0x08009410                HAL_TIM_Encoder_MspInit
                0x08009412                HAL_TIM_Encoder_MspDeInit
                0x08009414                HAL_TIM_Encoder_DeInit
                0x0800944e                HAL_TIM_Encoder_Start
                0x08009492                HAL_TIM_Encoder_Stop
                0x080094da                HAL_TIM_Encoder_Start_IT
                0x08009548                HAL_TIM_Encoder_Stop_IT
                0x080095bc                HAL_TIM_Encoder_Start_DMA
                0x080096fc                HAL_TIM_Encoder_Stop_DMA
                0x0800978e                HAL_TIM_DMABurst_WriteStart
                0x0800986c                HAL_TIM_DMABurst_WriteStop
                0x080098d0                HAL_TIM_DMABurst_ReadStart
                0x080099b4                HAL_TIM_DMABurst_ReadStop
                0x080099b8                HAL_TIM_GenerateEvent
                0x080099dc                HAL_TIM_ConfigTI1Input
                0x080099ec                HAL_TIM_ReadCapturedValue
                0x08009a18                HAL_TIM_PeriodElapsedCallback
                0x08009a2a                HAL_TIM_PeriodElapsedHalfCpltCallback
                0x08009a3c                HAL_TIM_OC_DelayElapsedCallback
                0x08009a3e                HAL_TIM_IC_CaptureCallback
                0x08009a40                TIM_DMACaptureCplt
                0x08009a7c                HAL_TIM_IC_CaptureHalfCpltCallback
                0x08009a7e                TIM_DMACaptureHalfCplt
                0x08009aba                HAL_TIM_PWM_PulseFinishedCallback
                0x08009abc                TIM_DMADelayPulseCplt
                0x08009af8                HAL_TIM_PWM_PulseFinishedHalfCpltCallback
                0x08009afa                TIM_DMADelayPulseHalfCplt
                0x08009b36                HAL_TIM_TriggerCallback
                0x08009b38                HAL_TIM_IRQHandler
                0x08009c8c                HAL_TIM_TriggerHalfCpltCallback
                0x08009c9e                HAL_TIM_ErrorCallback
                0x08009ca0                TIM_DMAError
                0x08009cb0                HAL_TIM_Base_GetState
                0x08009cb6                HAL_TIM_OC_GetState
                0x08009cbc                HAL_TIM_PWM_GetState
                0x08009cc2                HAL_TIM_IC_GetState
                0x08009cc8                HAL_TIM_OnePulse_GetState
                0x08009cce                HAL_TIM_Encoder_GetState
                0x08009cd4                TIM_Base_SetConfig
                0x08009da0                HAL_TIM_Base_Init
                0x08009dd4                HAL_TIM_OC_Init
                0x08009e08                HAL_TIM_PWM_Init
                0x08009e3c                HAL_TIM_IC_Init
                0x08009e70                HAL_TIM_OnePulse_Init
                0x08009eb6                HAL_TIM_Encoder_Init
                0x08009f4c                TIM_OC2_SetConfig
                0x08009fb8                HAL_TIM_OC_ConfigChannel
                0x0800a010                HAL_TIM_PWM_ConfigChannel
                0x0800a0d0                TIM_TI1_SetConfig
                0x0800a144                HAL_TIM_IC_ConfigChannel
                0x0800a258                HAL_TIM_OnePulse_ConfigChannel
                0x0800a34e                TIM_ETR_SetConfig
                0x0800a362                HAL_TIM_ConfigOCrefClear
                0x0800a42a                HAL_TIM_ConfigClockSource
                0x0800a5f6                HAL_TIM_SlaveConfigSynchro
                0x0800a644                HAL_TIM_SlaveConfigSynchro_IT
                0x0800a692                TIM_CCxChannelCmd
                0x0800a6ae                HAL_TIM_OC_Start
                0x0800a6ec                HAL_TIM_PWM_Start
                0x0800a6f0                HAL_TIM_OC_Stop
                0x0800a74c                HAL_TIM_OC_Start_IT
                0x0800a7bc                HAL_TIM_PWM_Start_IT
                0x0800a7c0                HAL_TIM_OC_Stop_IT
                0x0800a850                HAL_TIM_PWM_Stop_IT
                0x0800a854                HAL_TIM_OC_Start_DMA
                0x0800a964                HAL_TIM_PWM_Start_DMA
                0x0800a968                HAL_TIM_OC_Stop_DMA
                0x0800aa18                HAL_TIM_PWM_Stop_DMA
                0x0800aa1c                HAL_TIM_PWM_Stop
                0x0800aa80                HAL_TIM_IC_Start
                0x0800aaa4                HAL_TIM_IC_Stop
                0x0800aad2                HAL_TIM_IC_Start_IT
                0x0800ab28                HAL_TIM_IC_Stop_IT
                0x0800ab88                HAL_TIM_IC_Start_DMA
                0x0800ac78                HAL_TIM_IC_Stop_DMA
 .text          0x0800acf8      0x814 build/stm32f4_HAL/stm32f4xx_hal_tim_ex.o
                0x0800ad14                HAL_TIMEx_HallSensor_MspInit
                0x0800ad16                HAL_TIMEx_HallSensor_Init
                0x0800adc4                HAL_TIMEx_HallSensor_MspDeInit
                0x0800adc6                HAL_TIMEx_HallSensor_DeInit
                0x0800ae00                HAL_TIMEx_HallSensor_Start
                0x0800ae26                HAL_TIMEx_HallSensor_Stop
                0x0800ae56                HAL_TIMEx_HallSensor_Start_IT
                0x0800ae84                HAL_TIMEx_HallSensor_Stop_IT
                0x0800aebc                HAL_TIMEx_HallSensor_Start_DMA
                0x0800af38                HAL_TIMEx_HallSensor_Stop_DMA
                0x0800af78                HAL_TIMEx_OCN_Start
                0x0800afa4                HAL_TIMEx_OCN_Stop
                0x0800afee                HAL_TIMEx_OCN_Start_IT
                0x0800b044                HAL_TIMEx_OCN_Stop_IT
                0x0800b0c2                HAL_TIMEx_OCN_Start_DMA
                0x0800b194                HAL_TIMEx_OCN_Stop_DMA
                0x0800b21a                HAL_TIMEx_PWMN_Start
                0x0800b21e                HAL_TIMEx_PWMN_Stop
                0x0800b222                HAL_TIMEx_PWMN_Start_IT
                0x0800b226                HAL_TIMEx_PWMN_Stop_IT
                0x0800b22a                HAL_TIMEx_PWMN_Start_DMA
                0x0800b22e                HAL_TIMEx_PWMN_Stop_DMA
                0x0800b232                HAL_TIMEx_OnePulseN_Start
                0x0800b24c                HAL_TIMEx_OnePulseN_Stop
                0x0800b250                HAL_TIMEx_OnePulseN_Start_IT
                0x0800b27a                HAL_TIMEx_OnePulseN_Stop_IT
                0x0800b2d4                HAL_TIMEx_ConfigCommutEvent
                0x0800b32e                HAL_TIMEx_ConfigCommutEvent_IT
                0x0800b388                HAL_TIMEx_ConfigCommutEvent_DMA
                0x0800b3fc                HAL_TIMEx_MasterConfigSynchronization
                0x0800b478                HAL_TIMEx_ConfigBreakDeadTime
                0x0800b4c4                HAL_TIMEx_RemapConfig
                0x0800b4de                HAL_TIMEx_CommutCallback
                0x0800b4e0                TIMEx_DMACommutationCplt
                0x0800b4f0                HAL_TIMEx_CommutHalfCpltCallback
                0x0800b4f2                TIMEx_DMACommutationHalfCplt
                0x0800b502                HAL_TIMEx_BreakCallback
                0x0800b504                HAL_TIMEx_HallSensor_GetState
 .text          0x0800b50c        0x0 build/stm32f4_HAL/stm32f4xx_hal_rtc.o
 .text          0x0800b50c      0x6d4 build/stm32f4_HAL/stm32f4xx_hal_rcc.o
                0x0800b85e                HAL_RCC_MCOConfig
                0x0800b8f8                HAL_RCC_EnableCSS
                0x0800b904                HAL_RCC_DisableCSS
                0x0800b96c                HAL_RCC_ClockConfig
                0x0800baa4                HAL_RCC_GetHCLKFreq
                0x0800bab0                HAL_RCC_GetPCLK1Freq
                0x0800bad0                HAL_RCC_GetPCLK2Freq
                0x0800bb84                HAL_RCC_GetClockConfig
                0x0800bbc0                HAL_RCC_CSSCallback
                0x0800bbc2                HAL_RCC_NMI_IRQHandler
 .text          0x0800bbe0      0xdc8 build/stm32f4_HAL/stm32f4xx_hal_rcc_ex.o
                0x0800bbe0                HAL_RCCEx_PeriphCLKConfig
                0x0800bff8                HAL_RCCEx_GetPeriphCLKConfig
                0x0800c0f4                HAL_RCCEx_GetPeriphCLKFreq
                0x0800c29c                HAL_RCCEx_SelectLSEMode
                0x0800c2b4                HAL_RCCEx_EnablePLLI2S
                0x0800c328                HAL_RCCEx_DisablePLLI2S
                0x0800c35c                HAL_RCCEx_EnablePLLSAI
                0x0800c3c8                HAL_RCCEx_DisablePLLSAI
                0x0800c3fc                HAL_RCC_GetSysClockFreq
                0x0800c48c                HAL_RCC_DeInit
                0x0800c5e0                HAL_RCC_OscConfig
                0x0800c90c                HAL_RCC_GetOscConfig
 .text          0x0800c9a8      0x1ac build/stm32f4_HAL/stm32f4xx_hal_pwr.o
                0x0800c9a8                HAL_PWR_DeInit
                0x0800c9c0                HAL_PWR_EnableBkUpAccess
                0x0800c9cc                HAL_PWR_DisableBkUpAccess
                0x0800c9d8                HAL_PWR_ConfigPVD
                0x0800ca48                HAL_PWR_EnablePVD
                0x0800ca54                HAL_PWR_DisablePVD
                0x0800ca60                HAL_PWR_EnableWakeUpPin
                0x0800ca70                HAL_PWR_DisableWakeUpPin
                0x0800ca80                HAL_PWR_EnterSLEEPMode
                0x0800caa0                HAL_PWR_EnterSTOPMode
                0x0800cad8                HAL_PWR_EnterSTANDBYMode
                0x0800caf8                HAL_PWR_PVDCallback
                0x0800cafa                HAL_PWR_PVD_IRQHandler
                0x0800cb14                HAL_PWR_EnableSleepOnExit
                0x0800cb24                HAL_PWR_DisableSleepOnExit
                0x0800cb34                HAL_PWR_EnableSEVOnPend
                0x0800cb44                HAL_PWR_DisableSEVOnPend
 .text          0x0800cb54      0x298 build/stm32f4_HAL/stm32f4xx_hal_pwr_ex.o
                0x0800cb54                HAL_PWREx_EnableBkUpReg
                0x0800cb88                HAL_PWREx_DisableBkUpReg
                0x0800cbbc                HAL_PWREx_EnableFlashPowerDown
                0x0800cbc8                HAL_PWREx_DisableFlashPowerDown
                0x0800cbd4                HAL_PWREx_GetVoltageRange
                0x0800cbe4                HAL_PWREx_ControlVoltageScaling
                0x0800cc94                HAL_PWREx_EnableOverDrive
                0x0800cd0c                HAL_PWREx_DisableOverDrive
                0x0800cd84                HAL_PWREx_EnterUnderDriveSTOPMode
 .text          0x0800cdec      0x2c8 build/stm32f4_HAL/stm32f4xx_hal_cortex.o
                0x0800cdec                HAL_NVIC_SetPriorityGrouping
                0x0800ce10                HAL_NVIC_SetPriority
                0x0800ce74                HAL_NVIC_EnableIRQ
                0x0800ce90                HAL_NVIC_DisableIRQ
                0x0800ceb8                HAL_NVIC_SystemReset
                0x0800cedc                HAL_SYSTICK_Config
                0x0800cf08                HAL_MPU_Disable
                0x0800cf28                HAL_MPU_Enable
                0x0800cf4c                HAL_MPU_ConfigRegion
                0x0800cf9c                HAL_NVIC_GetPriorityGrouping
                0x0800cfac                HAL_NVIC_GetPriority
                0x0800d008                HAL_NVIC_SetPendingIRQ
                0x0800d028                HAL_NVIC_GetPendingIRQ
                0x0800d04c                HAL_NVIC_ClearPendingIRQ
                0x0800d06c                HAL_NVIC_GetActive
                0x0800d090                HAL_SYSTICK_CLKSourceConfig
                0x0800d0a8                HAL_SYSTICK_Callback
                0x0800d0aa                HAL_SYSTICK_IRQHandler
 .text          0x0800d0b4     0x1820 build/stm32f4_HAL/stm32f4xx_hal_spi.o
                0x0800d258                HAL_SPI_MspInit
                0x0800d25a                HAL_SPI_Init
                0x0800d2de                HAL_SPI_MspDeInit
                0x0800d2e0                HAL_SPI_DeInit
                0x0800d30c                HAL_SPI_Transmit
                0x0800d486                HAL_SPI_TransmitReceive
                0x0800d706                HAL_SPI_Receive
                0x0800d8c6                HAL_SPI_Transmit_IT
                0x0800d96c                HAL_SPI_TransmitReceive_IT
                0x0800da34                HAL_SPI_Receive_IT
                0x0800dafc                HAL_SPI_Transmit_DMA
                0x0800dbd4                HAL_SPI_TransmitReceive_DMA
                0x0800dcf8                HAL_SPI_Receive_DMA
                0x0800ddf4                HAL_SPI_Abort
                0x0800df1c                HAL_SPI_DMAPause
                0x0800df3c                HAL_SPI_DMAResume
                0x0800df5c                HAL_SPI_DMAStop
                0x0800dfa2                HAL_SPI_TxCpltCallback
                0x0800dfa4                HAL_SPI_RxCpltCallback
                0x0800dfa6                HAL_SPI_TxRxCpltCallback
                0x0800dfa8                HAL_SPI_TxHalfCpltCallback
                0x0800dfb4                HAL_SPI_RxHalfCpltCallback
                0x0800dfc0                HAL_SPI_TxRxHalfCpltCallback
                0x0800dfcc                HAL_SPI_ErrorCallback
                0x0800e58e                HAL_SPI_IRQHandler
                0x0800e6a8                HAL_SPI_AbortCpltCallback
                0x0800e6aa                HAL_SPI_Abort_IT
                0x0800e8c8                HAL_SPI_GetState
                0x0800e8ce                HAL_SPI_GetError
 .text          0x0800e8d4        0x0 build/stm32f4_HAL/stm32f4xx_hal_dac.o
 .text          0x0800e8d4        0x0 build/stm32f4_HAL/stm32f4xx_hal_dac_ex.o
 .text          0x0800e8d4        0x0 build/stm32f4_HAL/stm32f4xx_hal_can.o
 .text          0x0800e8d4        0x0 build/FreeRTOS/croutine.o
 .text          0x0800e8d4      0x274 build/FreeRTOS/event_groups.o
                0x0800e8d4                xEventGroupCreateStatic
                0x0800e8ec                xEventGroupCreate
                0x0800e908                xEventGroupWaitBits
                0x0800e9c0                xEventGroupClearBits
                0x0800e9da                vEventGroupClearBitsCallback
                0x0800e9de                xEventGroupClearBitsFromISR
                0x0800e9f0                xEventGroupGetBitsFromISR
                0x0800ea0c                xEventGroupSetBits
                0x0800ea68                xEventGroupSync
                0x0800eafc                vEventGroupSetBitsCallback
                0x0800eb00                vEventGroupDelete
                0x0800eb2a                xEventGroupSetBitsFromISR
                0x0800eb3c                uxEventGroupGetNumber
                0x0800eb42                vEventGroupSetNumber
 .text          0x0800eb48       0x82 build/FreeRTOS/list.o
                0x0800eb48                vListInitialise
                0x0800eb5e                vListInitialiseItem
                0x0800eb64                vListInsertEnd
                0x0800eb7c                vListInsert
                0x0800ebaa                uxListRemove
 *fill*         0x0800ebca        0x2 
 .text          0x0800ebcc      0x8fc build/FreeRTOS/queue.o
                0x0800ece8                xQueueGenericReset
                0x0800ed54                xQueueGenericCreateStatic
                0x0800ed80                xQueueGenericCreate
                0x0800edba                xQueueGetMutexHolder
                0x0800edd4                xQueueGetMutexHolderFromISR
                0x0800ede0                xQueueCreateCountingSemaphoreStatic
                0x0800edfa                xQueueCreateCountingSemaphore
                0x0800ee0c                xQueueGenericSend
                0x0800ef10                xQueueCreateMutexStatic
                0x0800ef3a                xQueueGiveMutexRecursive
                0x0800ef62                xQueueCreateMutex
                0x0800ef86                xQueueGenericSendFromISR
                0x0800eff0                xQueueGiveFromISR
                0x0800f04c                xQueueReceive
                0x0800f13c                xQueueSemaphoreTake
                0x0800f264                xQueueTakeMutexRecursive
                0x0800f294                xQueuePeek
                0x0800f384                xQueueReceiveFromISR
                0x0800f3ec                xQueuePeekFromISR
                0x0800f41c                uxQueueMessagesWaiting
                0x0800f432                uxQueueSpacesAvailable
                0x0800f44c                uxQueueMessagesWaitingFromISR
                0x0800f450                vQueueDelete
                0x0800f45c                uxQueueGetQueueNumber
                0x0800f460                vQueueSetQueueNumber
                0x0800f464                ucQueueGetQueueType
                0x0800f46a                xQueueIsQueueEmptyFromISR
                0x0800f474                xQueueIsQueueFullFromISR
                0x0800f480                vQueueWaitForMessageRestricted
 .text          0x0800f4c8     0x12d4 build/FreeRTOS/tasks.o
                0x0800f798                xTaskCreateStatic
                0x0800f7cc                xTaskCreate
                0x0800f828                vTaskDelete
                0x0800f8ac                eTaskGetState
                0x0800f914                uxTaskPriorityGet
                0x0800f934                uxTaskPriorityGetFromISR
                0x0800f95c                vTaskPrioritySet
                0x0800fa0c                vTaskResume
                0x0800fa90                xTaskResumeFromISR
                0x0800fb18                vTaskStartScheduler
                0x0800fb90                vTaskEndScheduler
                0x0800fbb0                vTaskSuspendAll
                0x0800fbc4                xTaskGetTickCount
                0x0800fbd0                xTaskGetTickCountFromISR
                0x0800fbdc                uxTaskGetNumberOfTasks
                0x0800fbe8                pcTaskGetName
                0x0800fbf8                xTaskIncrementTick
                0x0800fcdc                xTaskResumeAll
                0x0800fda0                vTaskDelayUntil
                0x0800fdf0                vTaskDelay
                0x0800fe20                xTaskCatchUpTicks
                0x0800fe40                vTaskSwitchContext
                0x0800fea4                vTaskSuspend
                0x0800ff34                vTaskPlaceOnEventList
                0x0800ff54                vTaskPlaceOnUnorderedEventList
                0x0800ff7c                vTaskPlaceOnEventListRestricted
                0x0800ffa4                xTaskRemoveFromEventList
                0x0801000c                vTaskRemoveFromUnorderedEventList
                0x08010060                vTaskSetTimeOutState
                0x08010084                vTaskInternalSetTimeOutState
                0x08010098                xTaskCheckForTimeOut
                0x080100e8                vTaskMissedYield
                0x080100f8                uxTaskGetTaskNumber
                0x080100fe                vTaskSetTaskNumber
                0x08010104                vTaskGetInfo
                0x080101de                uxTaskGetSystemState
                0x08010274                uxTaskGetStackHighWaterMark
                0x08010294                xTaskGetCurrentTaskHandle
                0x080102a0                xTaskGetSchedulerState
                0x080102c0                xTaskPriorityInherit
                0x08010340                xTaskPriorityDisinherit
                0x0801039c                vTaskPriorityDisinheritAfterTimeout
                0x0801040c                uxTaskResetEventItemValue
                0x08010424                pvTaskIncrementMutexHeldCount
                0x0801043c                ulTaskNotifyTake
                0x080104a8                xTaskNotifyWait
                0x0801053c                xTaskGenericNotify
                0x080105ec                xTaskGenericNotifyFromISR
                0x080106ac                vTaskNotifyGiveFromISR
                0x0801073c                xTaskNotifyStateClear
                0x08010768                ulTaskNotifyValueClear
 .text          0x0801079c      0x49c build/FreeRTOS/timers.o
                0x08010818                xTimerCreateTimerTask
                0x08010868                xTimerCreate
                0x080108ae                xTimerCreateStatic
                0x080108ee                xTimerGenericCommand
                0x08010b40                xTimerGetTimerDaemonTaskHandle
                0x08010b4c                xTimerGetPeriod
                0x08010b50                vTimerSetReloadMode
                0x08010b76                uxTimerGetReloadMode
                0x08010b92                xTimerGetExpiryTime
                0x08010b96                pcTimerGetName
                0x08010b9a                xTimerIsTimerActive
                0x08010bb6                pvTimerGetTimerID
                0x08010bcc                vTimerSetTimerID
                0x08010be0                xTimerPendFunctionCallFromISR
                0x08010c08                xTimerPendFunctionCall
                0x08010c30                uxTimerGetTimerNumber
                0x08010c34                vTimerSetTimerNumber
 .text          0x08010c38      0x532 build/FreeRTOS/stream_buffer.o
                0x08010cd8                xStreamBufferGenericCreate
                0x08010d14                xStreamBufferGenericCreateStatic
                0x08010d54                vStreamBufferDelete
                0x08010d66                xStreamBufferReset
                0x08010dac                xStreamBufferSetTriggerLevel
                0x08010dc0                xStreamBufferSpacesAvailable
                0x08010dd4                xStreamBufferBytesAvailable
                0x08010dd6                xStreamBufferSend
                0x08010eb4                xStreamBufferSendFromISR
                0x08010f48                xStreamBufferReceive
                0x08011000                xStreamBufferNextMessageLengthBytes
                0x0801102e                xStreamBufferReceiveFromISR
                0x080110c2                xStreamBufferIsEmpty
                0x080110ce                xStreamBufferIsFull
                0x080110ea                xStreamBufferSendCompletedFromISR
                0x08011122                xStreamBufferReceiveCompletedFromISR
                0x0801115a                uxStreamBufferGetStreamBufferNumber
                0x0801115e                vStreamBufferSetStreamBufferNumber
                0x08011162                ucStreamBufferGetStreamBufferType
 *fill*         0x0801116a        0x2 
 .text          0x0801116c     0x1160 build/FreeRTOS/cmsis_os2.o
                0x080111aa                SysTick_Handler
                0x080111c8                osKernelInitialize
                0x080111f4                osKernelGetInfo
                0x08011220                osKernelGetState
                0x08011240                osKernelStart
                0x08011280                osKernelLock
                0x080112ac                osKernelUnlock
                0x080112e4                osKernelRestoreLock
                0x08011328                osKernelGetTickCount
                0x08011340                osKernelGetTickFreq
                0x08011346                osKernelGetSysTimerCount
                0x08011386                osKernelGetSysTimerFreq
                0x08011390                osThreadNew
                0x0801142e                osThreadGetName
                0x08011448                osThreadGetId
                0x0801144c                osThreadGetState
                0x08011474                osThreadGetStackSpace
                0x0801148e                osThreadSetPriority
                0x080114bc                osThreadGetPriority
                0x080114d8                osThreadYield
                0x080114fc                osThreadSuspend
                0x08011520                osThreadResume
                0x08011544                osThreadExit
                0x0801154e                osThreadTerminate
                0x08011582                osThreadGetCount
                0x08011596                osThreadEnumerate
                0x08011600                osThreadFlagsSet
                0x08011680                osThreadFlagsClear
                0x080116d0                osThreadFlagsGet
                0x080116fe                osThreadFlagsWait
                0x08011798                osDelay
                0x080117b6                osDelayUntil
                0x080117e6                osTimerNew
                0x08011864                osTimerGetName
                0x0801187e                osTimerStart
                0x080118b4                osTimerStop
                0x080118f6                osTimerIsRunning
                0x08011910                osTimerDelete
                0x08011956                osEventFlagsNew
                0x08011982                osEventFlagsSet
                0x080119dc                osEventFlagsClear
                0x08011a22                osEventFlagsGet
                0x08011a44                osEventFlagsWait
                0x08011aa8                osEventFlagsDelete
                0x08011acc                osMutexNew
                0x08011b26                osMutexAcquire
                0x08011b6c                osMutexRelease
                0x08011bac                osMutexGetOwner
                0x08011bc8                osMutexDelete
                0x08011bee                osSemaphoreNew
                0x08011c7c                osSemaphoreAcquire
                0x08011ce0                osSemaphoreRelease
                0x08011d38                osSemaphoreGetCount
                0x08011d5a                osSemaphoreDelete
                0x08011d7e                osMessageQueueNew
                0x08011de2                osMessageQueuePut
                0x08011e50                osMessageQueueGet
                0x08011ebc                osMessageQueueGetCapacity
                0x08011ec2                osMessageQueueGetMsgSize
                0x08011ec8                osMessageQueueGetCount
                0x08011ecc                osMessageQueueGetSpace
                0x08011f02                osMessageQueueReset
                0x08011f28                osMessageQueueDelete
                0x08011f2c                osMemoryPoolNew
                0x08012020                osMemoryPoolGetName
                0x08012036                osMemoryPoolAlloc
                0x080120ec                osMemoryPoolFree
                0x080121a8                osMemoryPoolGetCapacity
                0x080121c0                osMemoryPoolGetBlockSize
                0x080121d8                osMemoryPoolGetCount
                0x08012208                osMemoryPoolGetSpace
                0x08012238                osMemoryPoolDelete
                0x08012294                vApplicationGetIdleTaskMemory
                0x080122b0                vApplicationGetTimerTaskMemory
 .text          0x080122cc        0x2 build/FreeRTOS/clib_arm.o
                0x080122cc                software_init_hook
 *fill*         0x080122ce        0x2 
 .text          0x080122d0       0xe0 build/FreeRTOS/os_systick.o
                0x080122d0                OS_Tick_Setup
                0x08012310                OS_Tick_Enable
                0x0801233c                OS_Tick_Disable
                0x08012368                OS_Tick_AcknowledgeIRQ
                0x08012374                OS_Tick_GetIRQn
                0x0801237a                OS_Tick_GetClock
                0x08012384                OS_Tick_GetInterval
                0x08012390                OS_Tick_GetCount
                0x080123a0                OS_Tick_GetOverflow
 .text          0x080123b0       0x8c build/FreeRTOS/heap_useNewlib.o
                0x080123b0                sbrk
                0x08012400                _sbrk
                0x08012404                __malloc_lock
                0x08012408                __malloc_unlock
                0x0801240c                __env_lock
                0x08012410                __env_unlock
                0x08012414                pvPortMalloc
                0x08012418                vPortFree
                0x0801241c                xPortGetFreeHeapSize
                0x08012438                vPortInitialiseBlocks
 *fill*         0x0801243c        0x4 
 .text          0x08012440      0x1f8 build/FreeRTOS/port.o
                0x08012490                pxPortInitialiseStack
                0x080124bc                SVC_Handler
                0x080124e4                vPortEndScheduler
                0x080124e6                vPortEnterCritical
                0x08012504                vPortExitCritical
                0x08012518                PendSV_Handler
                0x08012584                xPortSysTickHandler
                0x080125b4                vPortSetupTimerInterrupt
                0x080125e8                xPortStartScheduler
 .text          0x08012638      0x308 build/tm_stm32_gpio.o
                0x08012638                TM_GPIO_DeInit
                0x08012680                TM_GPIO_SetPinAsInput
                0x080126a4                TM_GPIO_SetPinAsOutput
                0x080126d0                TM_GPIO_SetPinAsAnalog
                0x080126f2                TM_GPIO_SetPinAsAlternate
                0x0801271e                TM_GPIO_SetPullResistor
                0x08012748                TM_GPIO_Lock
                0x08012758                TM_GPIO_GetPinSource
                0x0801276c                TM_GPIO_GetPortSource
                0x0801277a                TM_GPIO_INT_EnableClock
                0x0801279c                TM_GPIO_INT_DisableClock
                0x080127c0                TM_GPIO_INT_Init
                0x08012874                TM_GPIO_Init
                0x080128a6                TM_GPIO_InitAlternate
                0x0801290c                TM_GPIO_GetUsedPins
                0x08012924                TM_GPIO_GetFreePins
 .text          0x08012940      0x424 build/tm_stm32_i2c.o
                0x08012940                TM_I2C_GetHandle
                0x08012978                TM_I2C_Read
                0x080129bc                TM_I2C_ReadMulti
                0x08012a02                TM_I2C_ReadNoRegister
                0x08012a28                TM_I2C_ReadMultiNoRegister
                0x08012a52                TM_I2C_Write
                0x08012a82                TM_I2C_WriteMulti
                0x08012ab8                TM_I2C_WriteNoRegister
                0x08012ae2                TM_I2C_WriteMultiNoRegister
                0x08012b0c                TM_I2C_Write16
                0x08012b3e                TM_I2C_Read16
                0x08012b86                TM_I2C_IsDeviceConnected
                0x08012b9c                TM_I2C_WriteReadRepeatedStart
                0x08012bee                TM_I2C_InitCustomPinsCallback
                0x08012bf0                TM_I2C_Init
 .text          0x08012d64      0x390 build/tm_stm32_mpu6050.o
                0x08012d64                TM_MPU6050_SetGyroscope
                0x08012dcc                TM_MPU6050_SetAccelerometer
                0x08012e2c                TM_MPU6050_SetDataRate
                0x08012e48                TM_MPU6050_Init
                0x08012ee0                TM_MPU6050_EnableInterrupts
                0x08012f20                TM_MPU6050_DisableInterrupts
                0x08012f3c                TM_MPU6050_ReadInterrupts
                0x08012f68                TM_MPU6050_ReadAccelerometer
                0x08012fb0                TM_MPU6050_ReadGyroscope
                0x08012ff8                TM_MPU6050_ReadTemperature
                0x08013048                TM_MPU6050_ReadAll
 .text          0x080130f4        0x0 c:/users/baile/documents/mcha toolchain/toolchain/gcc-arm-none-eabi/bin/../lib/gcc/arm-none-eabi/9.2.1/../../../../arm-none-eabi/lib/thumb/v7e-m+fp/hard\libm.a(lib_a-s_sin.o)
 .text          0x080130f4        0x0 c:/users/baile/documents/mcha toolchain/toolchain/gcc-arm-none-eabi/bin/../lib/gcc/arm-none-eabi/9.2.1/../../../../arm-none-eabi/lib/thumb/v7e-m+fp/hard\libm.a(lib_a-w_atan2.o)
 .text          0x080130f4        0x0 c:/users/baile/documents/mcha toolchain/toolchain/gcc-arm-none-eabi/bin/../lib/gcc/arm-none-eabi/9.2.1/../../../../arm-none-eabi/lib/thumb/v7e-m+fp/hard\libm.a(lib_a-wf_sqrt.o)
 .text          0x080130f4        0x0 c:/users/baile/documents/mcha toolchain/toolchain/gcc-arm-none-eabi/bin/../lib/gcc/arm-none-eabi/9.2.1/../../../../arm-none-eabi/lib/thumb/v7e-m+fp/hard\libm.a(lib_a-e_atan2.o)
 .text          0x080130f4        0x0 c:/users/baile/documents/mcha toolchain/toolchain/gcc-arm-none-eabi/bin/../lib/gcc/arm-none-eabi/9.2.1/../../../../arm-none-eabi/lib/thumb/v7e-m+fp/hard\libm.a(lib_a-e_rem_pio2.o)
 .text          0x080130f4        0x0 c:/users/baile/documents/mcha toolchain/toolchain/gcc-arm-none-eabi/bin/../lib/gcc/arm-none-eabi/9.2.1/../../../../arm-none-eabi/lib/thumb/v7e-m+fp/hard\libm.a(lib_a-ef_sqrt.o)
 .text          0x080130f4        0x0 c:/users/baile/documents/mcha toolchain/toolchain/gcc-arm-none-eabi/bin/../lib/gcc/arm-none-eabi/9.2.1/../../../../arm-none-eabi/lib/thumb/v7e-m+fp/hard\libm.a(lib_a-k_cos.o)
 .text          0x080130f4        0x0 c:/users/baile/documents/mcha toolchain/toolchain/gcc-arm-none-eabi/bin/../lib/gcc/arm-none-eabi/9.2.1/../../../../arm-none-eabi/lib/thumb/v7e-m+fp/hard\libm.a(lib_a-k_rem_pio2.o)
 .text          0x080130f4        0x0 c:/users/baile/documents/mcha toolchain/toolchain/gcc-arm-none-eabi/bin/../lib/gcc/arm-none-eabi/9.2.1/../../../../arm-none-eabi/lib/thumb/v7e-m+fp/hard\libm.a(lib_a-k_sin.o)
 .text          0x080130f4        0x0 c:/users/baile/documents/mcha toolchain/toolchain/gcc-arm-none-eabi/bin/../lib/gcc/arm-none-eabi/9.2.1/../../../../arm-none-eabi/lib/thumb/v7e-m+fp/hard\libm.a(lib_a-s_atan.o)
 .text          0x080130f4        0x0 c:/users/baile/documents/mcha toolchain/toolchain/gcc-arm-none-eabi/bin/../lib/gcc/arm-none-eabi/9.2.1/../../../../arm-none-eabi/lib/thumb/v7e-m+fp/hard\libm.a(lib_a-s_fabs.o)
 .text          0x080130f4        0x0 c:/users/baile/documents/mcha toolchain/toolchain/gcc-arm-none-eabi/bin/../lib/gcc/arm-none-eabi/9.2.1/../../../../arm-none-eabi/lib/thumb/v7e-m+fp/hard\libm.a(lib_a-s_floor.o)
 .text          0x080130f4        0x0 c:/users/baile/documents/mcha toolchain/toolchain/gcc-arm-none-eabi/bin/../lib/gcc/arm-none-eabi/9.2.1/../../../../arm-none-eabi/lib/thumb/v7e-m+fp/hard\libm.a(lib_a-s_lib_ver.o)
 .text          0x080130f4        0x0 c:/users/baile/documents/mcha toolchain/toolchain/gcc-arm-none-eabi/bin/../lib/gcc/arm-none-eabi/9.2.1/../../../../arm-none-eabi/lib/thumb/v7e-m+fp/hard\libm.a(lib_a-s_matherr.o)
 .text          0x080130f4        0x0 c:/users/baile/documents/mcha toolchain/toolchain/gcc-arm-none-eabi/bin/../lib/gcc/arm-none-eabi/9.2.1/../../../../arm-none-eabi/lib/thumb/v7e-m+fp/hard\libm.a(lib_a-s_scalbn.o)
 .text          0x080130f4        0x0 ../STM32Cube_F4_FW/Drivers/CMSIS/Lib/GCC/libarm_cortexM4lf_math.a(arm_mat_sub_f32.o)
 .text          0x080130f4        0x0 ../STM32Cube_F4_FW/Drivers/CMSIS/Lib/GCC/libarm_cortexM4lf_math.a(arm_mat_mult_f32.o)
 .text          0x080130f4        0x0 ../STM32Cube_F4_FW/Drivers/CMSIS/Lib/GCC/libarm_cortexM4lf_math.a(arm_mat_init_f32.o)
 .text          0x080130f4        0x0 ../STM32Cube_F4_FW/Drivers/CMSIS/Lib/GCC/libarm_cortexM4lf_math.a(arm_mat_add_f32.o)
 .text          0x080130f4      0x254 c:/users/baile/documents/mcha toolchain/toolchain/gcc-arm-none-eabi/bin/../lib/gcc/arm-none-eabi/9.2.1/thumb/v7e-m+fp/hard\libgcc.a(_arm_muldf3.o)
 .text          0x08013348      0x378 c:/users/baile/documents/mcha toolchain/toolchain/gcc-arm-none-eabi/bin/../lib/gcc/arm-none-eabi/9.2.1/thumb/v7e-m+fp/hard\libgcc.a(_arm_addsubdf3.o)
                0x08013348                __aeabi_drsub
                0x08013350                __aeabi_dsub
                0x08013350                __subdf3
                0x08013354                __aeabi_dadd
                0x08013354                __adddf3
                0x080135cc                __floatunsidf
                0x080135cc                __aeabi_ui2d
                0x080135ec                __floatsidf
                0x080135ec                __aeabi_i2d
                0x08013610                __aeabi_f2d
                0x08013610                __extendsfdf2
                0x08013654                __floatundidf
                0x08013654                __aeabi_ul2d
                0x08013664                __floatdidf
                0x08013664                __aeabi_l2d
 .text          0x080136c0      0x424 c:/users/baile/documents/mcha toolchain/toolchain/gcc-arm-none-eabi/bin/../lib/gcc/arm-none-eabi/9.2.1/thumb/v7e-m+fp/hard\libgcc.a(_arm_muldivdf3.o)
                0x080136c0                __aeabi_dmul
                0x080136c0                __muldf3
                0x08013914                __divdf3
                0x08013914                __aeabi_ddiv
 .text          0x08013ae4      0x110 c:/users/baile/documents/mcha toolchain/toolchain/gcc-arm-none-eabi/bin/../lib/gcc/arm-none-eabi/9.2.1/thumb/v7e-m+fp/hard\libgcc.a(_arm_cmpdf2.o)
                0x08013ae4                __gtdf2
                0x08013ae4                __gedf2
                0x08013aec                __ltdf2
                0x08013aec                __ledf2
                0x08013af4                __nedf2
                0x08013af4                __eqdf2
                0x08013af4                __cmpdf2
                0x08013b70                __aeabi_cdrcmple
                0x08013b80                __aeabi_cdcmpeq
                0x08013b80                __aeabi_cdcmple
                0x08013b90                __aeabi_dcmpeq
                0x08013ba4                __aeabi_dcmplt
                0x08013bb8                __aeabi_dcmple
                0x08013bcc                __aeabi_dcmpge
                0x08013be0                __aeabi_dcmpgt
 .text          0x08013bf4       0x50 c:/users/baile/documents/mcha toolchain/toolchain/gcc-arm-none-eabi/bin/../lib/gcc/arm-none-eabi/9.2.1/thumb/v7e-m+fp/hard\libgcc.a(_arm_fixdfsi.o)
                0x08013bf4                __aeabi_d2iz
                0x08013bf4                __fixdfsi
 .text          0x08013c44       0xa0 c:/users/baile/documents/mcha toolchain/toolchain/gcc-arm-none-eabi/bin/../lib/gcc/arm-none-eabi/9.2.1/thumb/v7e-m+fp/hard\libgcc.a(_arm_truncdfsf2.o)
                0x08013c44                __truncdfsf2
                0x08013c44                __aeabi_d2f
 .text          0x08013ce4       0xa0 c:/users/baile/documents/mcha toolchain/toolchain/gcc-arm-none-eabi/bin/../lib/gcc/arm-none-eabi/9.2.1/thumb/v7e-m+fp/hard\libgcc.a(_aeabi_ldivmod.o)
                0x08013ce4                __aeabi_ldivmod
 .text          0x08013d84       0x30 c:/users/baile/documents/mcha toolchain/toolchain/gcc-arm-none-eabi/bin/../lib/gcc/arm-none-eabi/9.2.1/thumb/v7e-m+fp/hard\libgcc.a(_aeabi_uldivmod.o)
                0x08013d84                __aeabi_uldivmod
 .text          0x08013db4      0x2c4 c:/users/baile/documents/mcha toolchain/toolchain/gcc-arm-none-eabi/bin/../lib/gcc/arm-none-eabi/9.2.1/thumb/v7e-m+fp/hard\libgcc.a(_udivmoddi4.o)
                0x08013db4                __udivmoddi4
 .text          0x08014078        0x4 c:/users/baile/documents/mcha toolchain/toolchain/gcc-arm-none-eabi/bin/../lib/gcc/arm-none-eabi/9.2.1/thumb/v7e-m+fp/hard\libgcc.a(_dvmd_tls.o)
                0x08014078                __aeabi_idiv0
                0x08014078                __aeabi_ldiv0
 .text          0x0801407c        0x0 c:/users/baile/documents/mcha toolchain/toolchain/gcc-arm-none-eabi/bin/../lib/gcc/arm-none-eabi/9.2.1/../../../../arm-none-eabi/lib/thumb/v7e-m+fp/hard\libc_nano.a(lib_a-atof.o)
 .text          0x0801407c        0x0 c:/users/baile/documents/mcha toolchain/toolchain/gcc-arm-none-eabi/bin/../lib/gcc/arm-none-eabi/9.2.1/../../../../arm-none-eabi/lib/thumb/v7e-m+fp/hard\libc_nano.a(lib_a-ctype_.o)
 .text          0x0801407c        0x0 c:/users/baile/documents/mcha toolchain/toolchain/gcc-arm-none-eabi/bin/../lib/gcc/arm-none-eabi/9.2.1/../../../../arm-none-eabi/lib/thumb/v7e-m+fp/hard\libc_nano.a(lib_a-errno.o)
 .text          0x0801407c        0x0 c:/users/baile/documents/mcha toolchain/toolchain/gcc-arm-none-eabi/bin/../lib/gcc/arm-none-eabi/9.2.1/../../../../arm-none-eabi/lib/thumb/v7e-m+fp/hard\libc_nano.a(lib_a-exit.o)
 .text          0x0801407c        0x0 c:/users/baile/documents/mcha toolchain/toolchain/gcc-arm-none-eabi/bin/../lib/gcc/arm-none-eabi/9.2.1/../../../../arm-none-eabi/lib/thumb/v7e-m+fp/hard\libc_nano.a(lib_a-getchar.o)
 .text          0x0801407c        0x0 c:/users/baile/documents/mcha toolchain/toolchain/gcc-arm-none-eabi/bin/../lib/gcc/arm-none-eabi/9.2.1/../../../../arm-none-eabi/lib/thumb/v7e-m+fp/hard\libc_nano.a(lib_a-impure.o)
 .text          0x0801407c        0x0 c:/users/baile/documents/mcha toolchain/toolchain/gcc-arm-none-eabi/bin/../lib/gcc/arm-none-eabi/9.2.1/../../../../arm-none-eabi/lib/thumb/v7e-m+fp/hard\libc_nano.a(lib_a-init.o)
 .text          0x0801407c        0x0 c:/users/baile/documents/mcha toolchain/toolchain/gcc-arm-none-eabi/bin/../lib/gcc/arm-none-eabi/9.2.1/../../../../arm-none-eabi/lib/thumb/v7e-m+fp/hard\libc_nano.a(lib_a-malloc.o)
 .text          0x0801407c        0x0 c:/users/baile/documents/mcha toolchain/toolchain/gcc-arm-none-eabi/bin/../lib/gcc/arm-none-eabi/9.2.1/../../../../arm-none-eabi/lib/thumb/v7e-m+fp/hard\libc_nano.a(lib_a-memcpy-stub.o)
 .text          0x0801407c        0x0 c:/users/baile/documents/mcha toolchain/toolchain/gcc-arm-none-eabi/bin/../lib/gcc/arm-none-eabi/9.2.1/../../../../arm-none-eabi/lib/thumb/v7e-m+fp/hard\libc_nano.a(lib_a-memset.o)
 .text          0x0801407c        0x0 c:/users/baile/documents/mcha toolchain/toolchain/gcc-arm-none-eabi/bin/../lib/gcc/arm-none-eabi/9.2.1/../../../../arm-none-eabi/lib/thumb/v7e-m+fp/hard\libc_nano.a(lib_a-mstats.o)
 .text          0x0801407c        0x0 c:/users/baile/documents/mcha toolchain/toolchain/gcc-arm-none-eabi/bin/../lib/gcc/arm-none-eabi/9.2.1/../../../../arm-none-eabi/lib/thumb/v7e-m+fp/hard\libc_nano.a(lib_a-nano-freer.o)
 .text          0x0801407c        0x0 c:/users/baile/documents/mcha toolchain/toolchain/gcc-arm-none-eabi/bin/../lib/gcc/arm-none-eabi/9.2.1/../../../../arm-none-eabi/lib/thumb/v7e-m+fp/hard\libc_nano.a(lib_a-nano-mallinfor.o)
 .text          0x0801407c        0x0 c:/users/baile/documents/mcha toolchain/toolchain/gcc-arm-none-eabi/bin/../lib/gcc/arm-none-eabi/9.2.1/../../../../arm-none-eabi/lib/thumb/v7e-m+fp/hard\libc_nano.a(lib_a-nano-mallocr.o)
 .text          0x0801407c        0x0 c:/users/baile/documents/mcha toolchain/toolchain/gcc-arm-none-eabi/bin/../lib/gcc/arm-none-eabi/9.2.1/../../../../arm-none-eabi/lib/thumb/v7e-m+fp/hard\libc_nano.a(lib_a-nano-malloptr.o)
 .text          0x0801407c        0x0 c:/users/baile/documents/mcha toolchain/toolchain/gcc-arm-none-eabi/bin/../lib/gcc/arm-none-eabi/9.2.1/../../../../arm-none-eabi/lib/thumb/v7e-m+fp/hard\libc_nano.a(lib_a-nano-mallstatsr.o)
 .text          0x0801407c        0x0 c:/users/baile/documents/mcha toolchain/toolchain/gcc-arm-none-eabi/bin/../lib/gcc/arm-none-eabi/9.2.1/../../../../arm-none-eabi/lib/thumb/v7e-m+fp/hard\libc_nano.a(lib_a-nano-vfprintf_float.o)
 .text          0x0801407c        0x0 c:/users/baile/documents/mcha toolchain/toolchain/gcc-arm-none-eabi/bin/../lib/gcc/arm-none-eabi/9.2.1/../../../../arm-none-eabi/lib/thumb/v7e-m+fp/hard\libc_nano.a(lib_a-nano-vfprintf_i.o)
 .text          0x0801407c        0x0 c:/users/baile/documents/mcha toolchain/toolchain/gcc-arm-none-eabi/bin/../lib/gcc/arm-none-eabi/9.2.1/../../../../arm-none-eabi/lib/thumb/v7e-m+fp/hard\libc_nano.a(lib_a-nano-vfscanf_float.o)
 .text          0x0801407c        0x0 c:/users/baile/documents/mcha toolchain/toolchain/gcc-arm-none-eabi/bin/../lib/gcc/arm-none-eabi/9.2.1/../../../../arm-none-eabi/lib/thumb/v7e-m+fp/hard\libc_nano.a(lib_a-printf.o)
 .text          0x0801407c        0x0 c:/users/baile/documents/mcha toolchain/toolchain/gcc-arm-none-eabi/bin/../lib/gcc/arm-none-eabi/9.2.1/../../../../arm-none-eabi/lib/thumb/v7e-m+fp/hard\libc_nano.a(lib_a-reent.o)
 .text          0x0801407c        0x0 c:/users/baile/documents/mcha toolchain/toolchain/gcc-arm-none-eabi/bin/../lib/gcc/arm-none-eabi/9.2.1/../../../../arm-none-eabi/lib/thumb/v7e-m+fp/hard\libc_nano.a(lib_a-sbrkr.o)
 .text          0x0801407c        0x0 c:/users/baile/documents/mcha toolchain/toolchain/gcc-arm-none-eabi/bin/../lib/gcc/arm-none-eabi/9.2.1/../../../../arm-none-eabi/lib/thumb/v7e-m+fp/hard\libc_nano.a(lib_a-setvbuf.o)
 .text          0x0801407c        0x0 c:/users/baile/documents/mcha toolchain/toolchain/gcc-arm-none-eabi/bin/../lib/gcc/arm-none-eabi/9.2.1/../../../../arm-none-eabi/lib/thumb/v7e-m+fp/hard\libc_nano.a(lib_a-sf_nan.o)
 .text          0x0801407c        0x0 c:/users/baile/documents/mcha toolchain/toolchain/gcc-arm-none-eabi/bin/../lib/gcc/arm-none-eabi/9.2.1/../../../../arm-none-eabi/lib/thumb/v7e-m+fp/hard\libc_nano.a(lib_a-sprintf.o)
 .text          0x0801407c       0x14 c:/users/baile/documents/mcha toolchain/toolchain/gcc-arm-none-eabi/bin/../lib/gcc/arm-none-eabi/9.2.1/../../../../arm-none-eabi/lib/thumb/v7e-m+fp/hard\libc_nano.a(lib_a-strcmp.o)
                0x0801407c                strcmp
 .text          0x08014090        0x0 c:/users/baile/documents/mcha toolchain/toolchain/gcc-arm-none-eabi/bin/../lib/gcc/arm-none-eabi/9.2.1/../../../../arm-none-eabi/lib/thumb/v7e-m+fp/hard\libc_nano.a(lib_a-strcpy.o)
 .text          0x08014090       0x10 c:/users/baile/documents/mcha toolchain/toolchain/gcc-arm-none-eabi/bin/../lib/gcc/arm-none-eabi/9.2.1/../../../../arm-none-eabi/lib/thumb/v7e-m+fp/hard\libc_nano.a(lib_a-strlen.o)
                0x08014090                strlen
 .text          0x080140a0        0x0 c:/users/baile/documents/mcha toolchain/toolchain/gcc-arm-none-eabi/bin/../lib/gcc/arm-none-eabi/9.2.1/../../../../arm-none-eabi/lib/thumb/v7e-m+fp/hard\libc_nano.a(lib_a-strtod.o)
 .text          0x080140a0        0x0 c:/users/baile/documents/mcha toolchain/toolchain/gcc-arm-none-eabi/bin/../lib/gcc/arm-none-eabi/9.2.1/../../../../arm-none-eabi/lib/thumb/v7e-m+fp/hard\libc_nano.a(lib_a-strtol.o)
 .text          0x080140a0        0x0 c:/users/baile/documents/mcha toolchain/toolchain/gcc-arm-none-eabi/bin/../lib/gcc/arm-none-eabi/9.2.1/../../../../arm-none-eabi/lib/thumb/v7e-m+fp/hard\libc_nano.a(lib_a-vprintf.o)
 .text          0x080140a0        0x0 c:/users/baile/documents/mcha toolchain/toolchain/gcc-arm-none-eabi/bin/../lib/gcc/arm-none-eabi/9.2.1/../../../../arm-none-eabi/lib/thumb/v7e-m+fp/hard\libc_nano.a(lib_a-dtoa.o)
 .text          0x080140a0        0x0 c:/users/baile/documents/mcha toolchain/toolchain/gcc-arm-none-eabi/bin/../lib/gcc/arm-none-eabi/9.2.1/../../../../arm-none-eabi/lib/thumb/v7e-m+fp/hard\libc_nano.a(lib_a-fflush.o)
 .text          0x080140a0        0x0 c:/users/baile/documents/mcha toolchain/toolchain/gcc-arm-none-eabi/bin/../lib/gcc/arm-none-eabi/9.2.1/../../../../arm-none-eabi/lib/thumb/v7e-m+fp/hard\libc_nano.a(lib_a-findfp.o)
 .text          0x080140a0        0x0 c:/users/baile/documents/mcha toolchain/toolchain/gcc-arm-none-eabi/bin/../lib/gcc/arm-none-eabi/9.2.1/../../../../arm-none-eabi/lib/thumb/v7e-m+fp/hard\libc_nano.a(lib_a-fprintf.o)
 .text          0x080140a0        0x0 c:/users/baile/documents/mcha toolchain/toolchain/gcc-arm-none-eabi/bin/../lib/gcc/arm-none-eabi/9.2.1/../../../../arm-none-eabi/lib/thumb/v7e-m+fp/hard\libc_nano.a(lib_a-fwalk.o)
 .text          0x080140a0        0x0 c:/users/baile/documents/mcha toolchain/toolchain/gcc-arm-none-eabi/bin/../lib/gcc/arm-none-eabi/9.2.1/../../../../arm-none-eabi/lib/thumb/v7e-m+fp/hard\libc_nano.a(lib_a-gdtoa-gethex.o)
 .text          0x080140a0        0x0 c:/users/baile/documents/mcha toolchain/toolchain/gcc-arm-none-eabi/bin/../lib/gcc/arm-none-eabi/9.2.1/../../../../arm-none-eabi/lib/thumb/v7e-m+fp/hard\libc_nano.a(lib_a-gdtoa-hexnan.o)
 .text          0x080140a0        0x0 c:/users/baile/documents/mcha toolchain/toolchain/gcc-arm-none-eabi/bin/../lib/gcc/arm-none-eabi/9.2.1/../../../../arm-none-eabi/lib/thumb/v7e-m+fp/hard\libc_nano.a(lib_a-getc.o)
 .text          0x080140a0        0x0 c:/users/baile/documents/mcha toolchain/toolchain/gcc-arm-none-eabi/bin/../lib/gcc/arm-none-eabi/9.2.1/../../../../arm-none-eabi/lib/thumb/v7e-m+fp/hard\libc_nano.a(lib_a-lnumeric.o)
 .text          0x080140a0        0x0 c:/users/baile/documents/mcha toolchain/toolchain/gcc-arm-none-eabi/bin/../lib/gcc/arm-none-eabi/9.2.1/../../../../arm-none-eabi/lib/thumb/v7e-m+fp/hard\libc_nano.a(lib_a-locale.o)
 .text          0x080140a0        0x0 c:/users/baile/documents/mcha toolchain/toolchain/gcc-arm-none-eabi/bin/../lib/gcc/arm-none-eabi/9.2.1/../../../../arm-none-eabi/lib/thumb/v7e-m+fp/hard\libc_nano.a(lib_a-localeconv.o)
 .text          0x080140a0        0x0 c:/users/baile/documents/mcha toolchain/toolchain/gcc-arm-none-eabi/bin/../lib/gcc/arm-none-eabi/9.2.1/../../../../arm-none-eabi/lib/thumb/v7e-m+fp/hard\libc_nano.a(lib_a-lock.o)
 .text          0x080140a0        0x0 c:/users/baile/documents/mcha toolchain/toolchain/gcc-arm-none-eabi/bin/../lib/gcc/arm-none-eabi/9.2.1/../../../../arm-none-eabi/lib/thumb/v7e-m+fp/hard\libc_nano.a(lib_a-makebuf.o)
 .text          0x080140a0        0x0 c:/users/baile/documents/mcha toolchain/toolchain/gcc-arm-none-eabi/bin/../lib/gcc/arm-none-eabi/9.2.1/../../../../arm-none-eabi/lib/thumb/v7e-m+fp/hard\libc_nano.a(lib_a-mbtowc_r.o)
 .text          0x080140a0       0xa0 c:/users/baile/documents/mcha toolchain/toolchain/gcc-arm-none-eabi/bin/../lib/gcc/arm-none-eabi/9.2.1/../../../../arm-none-eabi/lib/thumb/v7e-m+fp/hard\libc_nano.a(lib_a-memchr.o)
                0x080140a0                memchr
 .text          0x08014140        0x0 c:/users/baile/documents/mcha toolchain/toolchain/gcc-arm-none-eabi/bin/../lib/gcc/arm-none-eabi/9.2.1/../../../../arm-none-eabi/lib/thumb/v7e-m+fp/hard\libc_nano.a(lib_a-mprec.o)
 .text          0x08014140        0x0 c:/users/baile/documents/mcha toolchain/toolchain/gcc-arm-none-eabi/bin/../lib/gcc/arm-none-eabi/9.2.1/../../../../arm-none-eabi/lib/thumb/v7e-m+fp/hard\libc_nano.a(lib_a-nano-callocr.o)
 .text          0x08014140        0x0 c:/users/baile/documents/mcha toolchain/toolchain/gcc-arm-none-eabi/bin/../lib/gcc/arm-none-eabi/9.2.1/../../../../arm-none-eabi/lib/thumb/v7e-m+fp/hard\libc_nano.a(lib_a-nano-svfprintf.o)
 .text          0x08014140        0x0 c:/users/baile/documents/mcha toolchain/toolchain/gcc-arm-none-eabi/bin/../lib/gcc/arm-none-eabi/9.2.1/../../../../arm-none-eabi/lib/thumb/v7e-m+fp/hard\libc_nano.a(lib_a-nano-vfprintf.o)
 .text          0x08014140        0x0 c:/users/baile/documents/mcha toolchain/toolchain/gcc-arm-none-eabi/bin/../lib/gcc/arm-none-eabi/9.2.1/../../../../arm-none-eabi/lib/thumb/v7e-m+fp/hard\libc_nano.a(lib_a-rget.o)
 .text          0x08014140        0x0 c:/users/baile/documents/mcha toolchain/toolchain/gcc-arm-none-eabi/bin/../lib/gcc/arm-none-eabi/9.2.1/../../../../arm-none-eabi/lib/thumb/v7e-m+fp/hard\libc_nano.a(lib_a-s_nan.o)
 .text          0x08014140        0x0 c:/users/baile/documents/mcha toolchain/toolchain/gcc-arm-none-eabi/bin/../lib/gcc/arm-none-eabi/9.2.1/../../../../arm-none-eabi/lib/thumb/v7e-m+fp/hard\libc_nano.a(lib_a-stdio.o)
 .text          0x08014140        0x0 c:/users/baile/documents/mcha toolchain/toolchain/gcc-arm-none-eabi/bin/../lib/gcc/arm-none-eabi/9.2.1/../../../../arm-none-eabi/lib/thumb/v7e-m+fp/hard\libc_nano.a(lib_a-strncmp.o)
 .text          0x08014140        0x0 c:/users/baile/documents/mcha toolchain/toolchain/gcc-arm-none-eabi/bin/../lib/gcc/arm-none-eabi/9.2.1/../../../../arm-none-eabi/lib/thumb/v7e-m+fp/hard\libc_nano.a(lib_a-wbuf.o)
 .text          0x08014140        0x0 c:/users/baile/documents/mcha toolchain/toolchain/gcc-arm-none-eabi/bin/../lib/gcc/arm-none-eabi/9.2.1/../../../../arm-none-eabi/lib/thumb/v7e-m+fp/hard\libc_nano.a(lib_a-wctomb_r.o)
 .text          0x08014140        0x0 c:/users/baile/documents/mcha toolchain/toolchain/gcc-arm-none-eabi/bin/../lib/gcc/arm-none-eabi/9.2.1/../../../../arm-none-eabi/lib/thumb/v7e-m+fp/hard\libc_nano.a(lib_a-writer.o)
 .text          0x08014140        0x0 c:/users/baile/documents/mcha toolchain/toolchain/gcc-arm-none-eabi/bin/../lib/gcc/arm-none-eabi/9.2.1/../../../../arm-none-eabi/lib/thumb/v7e-m+fp/hard\libc_nano.a(lib_a-wsetup.o)
 .text          0x08014140        0x0 c:/users/baile/documents/mcha toolchain/toolchain/gcc-arm-none-eabi/bin/../lib/gcc/arm-none-eabi/9.2.1/../../../../arm-none-eabi/lib/thumb/v7e-m+fp/hard\libc_nano.a(lib_a-closer.o)
 .text          0x08014140        0x0 c:/users/baile/documents/mcha toolchain/toolchain/gcc-arm-none-eabi/bin/../lib/gcc/arm-none-eabi/9.2.1/../../../../arm-none-eabi/lib/thumb/v7e-m+fp/hard\libc_nano.a(lib_a-fstatr.o)
 .text          0x08014140        0x0 c:/users/baile/documents/mcha toolchain/toolchain/gcc-arm-none-eabi/bin/../lib/gcc/arm-none-eabi/9.2.1/../../../../arm-none-eabi/lib/thumb/v7e-m+fp/hard\libc_nano.a(lib_a-fvwrite.o)
 .text          0x08014140        0x0 c:/users/baile/documents/mcha toolchain/toolchain/gcc-arm-none-eabi/bin/../lib/gcc/arm-none-eabi/9.2.1/../../../../arm-none-eabi/lib/thumb/v7e-m+fp/hard\libc_nano.a(lib_a-isattyr.o)
 .text          0x08014140        0x0 c:/users/baile/documents/mcha toolchain/toolchain/gcc-arm-none-eabi/bin/../lib/gcc/arm-none-eabi/9.2.1/../../../../arm-none-eabi/lib/thumb/v7e-m+fp/hard\libc_nano.a(lib_a-lseekr.o)
 .text          0x08014140        0x0 c:/users/baile/documents/mcha toolchain/toolchain/gcc-arm-none-eabi/bin/../lib/gcc/arm-none-eabi/9.2.1/../../../../arm-none-eabi/lib/thumb/v7e-m+fp/hard\libc_nano.a(lib_a-memmove.o)
 .text          0x08014140        0x0 c:/users/baile/documents/mcha toolchain/toolchain/gcc-arm-none-eabi/bin/../lib/gcc/arm-none-eabi/9.2.1/../../../../arm-none-eabi/lib/thumb/v7e-m+fp/hard\libc_nano.a(lib_a-nano-reallocr.o)
 .text          0x08014140        0x0 c:/users/baile/documents/mcha toolchain/toolchain/gcc-arm-none-eabi/bin/../lib/gcc/arm-none-eabi/9.2.1/../../../../arm-none-eabi/lib/thumb/v7e-m+fp/hard\libc_nano.a(lib_a-readr.o)
 .text          0x08014140        0x0 c:/users/baile/documents/mcha toolchain/toolchain/gcc-arm-none-eabi/bin/../lib/gcc/arm-none-eabi/9.2.1/../../../../arm-none-eabi/lib/thumb/v7e-m+fp/hard\libc_nano.a(lib_a-refill.o)
 .text          0x08014140        0x0 c:/users/baile/documents/mcha toolchain/toolchain/gcc-arm-none-eabi/bin/../lib/gcc/arm-none-eabi/9.2.1/../../../../arm-none-eabi/lib/thumb/v7e-m+fp/hard\libc_nano.a(lib_a-nano-msizer.o)
 .text          0x08014140       0x2c c:/users/baile/documents/mcha toolchain/toolchain/gcc-arm-none-eabi/bin/../lib/gcc/arm-none-eabi/9.2.1/thumb/v7e-m+fp/hard\libgcc.a(_arm_unorddf2.o)
                0x08014140                __unorddf2
                0x08014140                __aeabi_dcmpun
 .text          0x0801416c       0x40 c:/users/baile/documents/mcha toolchain/toolchain/gcc-arm-none-eabi/bin/../lib/gcc/arm-none-eabi/9.2.1/thumb/v7e-m+fp/hard\libgcc.a(_arm_fixunsdfsi.o)
                0x0801416c                __aeabi_d2uiz
                0x0801416c                __fixunsdfsi
 .text          0x080141ac       0x30 c:/users/baile/documents/mcha toolchain/toolchain/gcc-arm-none-eabi/bin/../lib/gcc/arm-none-eabi/9.2.1/thumb/v7e-m+fp/hard\libgcc.a(_fixdfdi.o)
                0x080141ac                __fixdfdi
                0x080141ac                __aeabi_d2lz
 .text          0x080141dc       0x3c c:/users/baile/documents/mcha toolchain/toolchain/gcc-arm-none-eabi/bin/../lib/gcc/arm-none-eabi/9.2.1/thumb/v7e-m+fp/hard\libgcc.a(_fixunsdfdi.o)
                0x080141dc                __fixunsdfdi
                0x080141dc                __aeabi_d2ulz
 .text          0x08014218        0x0 c:/users/baile/documents/mcha toolchain/toolchain/gcc-arm-none-eabi/bin/../lib/gcc/arm-none-eabi/9.2.1/../../../../arm-none-eabi/lib/thumb/v7e-m+fp/hard\libnosys.a(close.o)
 .text          0x08014218        0x0 c:/users/baile/documents/mcha toolchain/toolchain/gcc-arm-none-eabi/bin/../lib/gcc/arm-none-eabi/9.2.1/../../../../arm-none-eabi/lib/thumb/v7e-m+fp/hard\libnosys.a(fstat.o)
 .text          0x08014218        0x0 c:/users/baile/documents/mcha toolchain/toolchain/gcc-arm-none-eabi/bin/../lib/gcc/arm-none-eabi/9.2.1/../../../../arm-none-eabi/lib/thumb/v7e-m+fp/hard\libnosys.a(isatty.o)
 .text          0x08014218        0x0 c:/users/baile/documents/mcha toolchain/toolchain/gcc-arm-none-eabi/bin/../lib/gcc/arm-none-eabi/9.2.1/../../../../arm-none-eabi/lib/thumb/v7e-m+fp/hard\libnosys.a(lseek.o)
 .text          0x08014218        0x0 c:/users/baile/documents/mcha toolchain/toolchain/gcc-arm-none-eabi/bin/../lib/gcc/arm-none-eabi/9.2.1/../../../../arm-none-eabi/lib/thumb/v7e-m+fp/hard\libnosys.a(_exit.o)
 .text          0x08014218        0x0 c:/users/baile/documents/mcha toolchain/toolchain/gcc-arm-none-eabi/bin/../lib/gcc/arm-none-eabi/9.2.1/thumb/v7e-m+fp/hard/crtend.o
 .text          0x08014218        0x0 c:/users/baile/documents/mcha toolchain/toolchain/gcc-arm-none-eabi/bin/../lib/gcc/arm-none-eabi/9.2.1/thumb/v7e-m+fp/hard/crtn.o
 *(.text*)
 .text.startup  0x08014218       0xcc build/main.o
                0x08014218                main
 .text.Reset_Handler
                0x080142e4       0x50 build/startup_stm32f446xx.o
                0x080142e4                Reset_Handler
 .text.Default_Handler
                0x08014334        0x2 build/startup_stm32f446xx.o
                0x08014334                RTC_Alarm_IRQHandler
                0x08014334                TIM8_CC_IRQHandler
                0x08014334                SPI4_IRQHandler
                0x08014334                TIM1_CC_IRQHandler
                0x08014334                DMA2_Stream5_IRQHandler
                0x08014334                DMA1_Stream5_IRQHandler
                0x08014334                PVD_IRQHandler
                0x08014334                SDIO_IRQHandler
                0x08014334                TAMP_STAMP_IRQHandler
                0x08014334                CAN2_RX1_IRQHandler
                0x08014334                TIM8_TRG_COM_TIM14_IRQHandler
                0x08014334                TIM1_UP_TIM10_IRQHandler
                0x08014334                TIM8_UP_TIM13_IRQHandler
                0x08014334                I2C3_ER_IRQHandler
                0x08014334                FMPI2C1_Event_IRQHandler
                0x08014334                I2C2_EV_IRQHandler
                0x08014334                DMA1_Stream2_IRQHandler
                0x08014334                CAN1_RX0_IRQHandler
                0x08014334                FPU_IRQHandler
                0x08014334                OTG_HS_WKUP_IRQHandler
                0x08014334                CAN2_SCE_IRQHandler
                0x08014334                DMA2_Stream2_IRQHandler
                0x08014334                SPI1_IRQHandler
                0x08014334                TIM6_DAC_IRQHandler
                0x08014334                TIM1_BRK_TIM9_IRQHandler
                0x08014334                DCMI_IRQHandler
                0x08014334                CAN2_RX0_IRQHandler
                0x08014334                DMA2_Stream3_IRQHandler
                0x08014334                SAI2_IRQHandler
                0x08014334                USART6_IRQHandler
                0x08014334                USART3_IRQHandler
                0x08014334                CAN1_RX1_IRQHandler
                0x08014334                UART5_IRQHandler
                0x08014334                DMA2_Stream0_IRQHandler
                0x08014334                TIM4_IRQHandler
                0x08014334                QUADSPI_IRQHandler
                0x08014334                I2C1_EV_IRQHandler
                0x08014334                DMA1_Stream6_IRQHandler
                0x08014334                DMA1_Stream1_IRQHandler
                0x08014334                UART4_IRQHandler
                0x08014334                TIM3_IRQHandler
                0x08014334                RCC_IRQHandler
                0x08014334                TIM8_BRK_TIM12_IRQHandler
                0x08014334                Default_Handler
                0x08014334                CEC_IRQHandler
                0x08014334                EXTI15_10_IRQHandler
                0x08014334                ADC_IRQHandler
                0x08014334                DMA1_Stream7_IRQHandler
                0x08014334                TIM7_IRQHandler
                0x08014334                CAN2_TX_IRQHandler
                0x08014334                TIM5_IRQHandler
                0x08014334                DMA2_Stream7_IRQHandler
                0x08014334                I2C3_EV_IRQHandler
                0x08014334                EXTI9_5_IRQHandler
                0x08014334                RTC_WKUP_IRQHandler
                0x08014334                SPDIF_RX_IRQHandler
                0x08014334                SPI2_IRQHandler
                0x08014334                OTG_HS_EP1_IN_IRQHandler
                0x08014334                DMA1_Stream0_IRQHandler
                0x08014334                CAN1_TX_IRQHandler
                0x08014334                EXTI4_IRQHandler
                0x08014334                OTG_HS_EP1_OUT_IRQHandler
                0x08014334                WWDG_IRQHandler
                0x08014334                TIM2_IRQHandler
                0x08014334                OTG_FS_WKUP_IRQHandler
                0x08014334                TIM1_TRG_COM_TIM11_IRQHandler
                0x08014334                OTG_HS_IRQHandler
                0x08014334                I2C2_ER_IRQHandler
                0x08014334                DMA2_Stream1_IRQHandler
                0x08014334                CAN1_SCE_IRQHandler
                0x08014334                FLASH_IRQHandler
                0x08014334                DMA2_Stream4_IRQHandler
                0x08014334                USART1_IRQHandler
                0x08014334                OTG_FS_IRQHandler
                0x08014334                SPI3_IRQHandler
                0x08014334                DMA1_Stream4_IRQHandler
                0x08014334                I2C1_ER_IRQHandler
                0x08014334                FMC_IRQHandler
                0x08014334                DMA2_Stream6_IRQHandler
                0x08014334                SAI1_IRQHandler
                0x08014334                DMA1_Stream3_IRQHandler
                0x08014334                FMPI2C1_Error_IRQHandler
 *fill*         0x08014336        0x2 
 .text.sin      0x08014338       0xb0 c:/users/baile/documents/mcha toolchain/toolchain/gcc-arm-none-eabi/bin/../lib/gcc/arm-none-eabi/9.2.1/../../../../arm-none-eabi/lib/thumb/v7e-m+fp/hard\libm.a(lib_a-s_sin.o)
                0x08014338                sin
 .text.atan2    0x080143e8        0x4 c:/users/baile/documents/mcha toolchain/toolchain/gcc-arm-none-eabi/bin/../lib/gcc/arm-none-eabi/9.2.1/../../../../arm-none-eabi/lib/thumb/v7e-m+fp/hard\libm.a(lib_a-w_atan2.o)
                0x080143e8                atan2
 .text.sqrtf    0x080143ec       0xb0 c:/users/baile/documents/mcha toolchain/toolchain/gcc-arm-none-eabi/bin/../lib/gcc/arm-none-eabi/9.2.1/../../../../arm-none-eabi/lib/thumb/v7e-m+fp/hard\libm.a(lib_a-wf_sqrt.o)
                0x080143ec                sqrtf
 *fill*         0x0801449c        0x4 
 .text.__ieee754_atan2
                0x080144a0      0x1fc c:/users/baile/documents/mcha toolchain/toolchain/gcc-arm-none-eabi/bin/../lib/gcc/arm-none-eabi/9.2.1/../../../../arm-none-eabi/lib/thumb/v7e-m+fp/hard\libm.a(lib_a-e_atan2.o)
                0x080144a0                __ieee754_atan2
 *fill*         0x0801469c        0x4 
 .text.__ieee754_rem_pio2
                0x080146a0      0x46c c:/users/baile/documents/mcha toolchain/toolchain/gcc-arm-none-eabi/bin/../lib/gcc/arm-none-eabi/9.2.1/../../../../arm-none-eabi/lib/thumb/v7e-m+fp/hard\libm.a(lib_a-e_rem_pio2.o)
                0x080146a0                __ieee754_rem_pio2
 .text.__ieee754_sqrtf
                0x08014b0c        0x8 c:/users/baile/documents/mcha toolchain/toolchain/gcc-arm-none-eabi/bin/../lib/gcc/arm-none-eabi/9.2.1/../../../../arm-none-eabi/lib/thumb/v7e-m+fp/hard\libm.a(lib_a-ef_sqrt.o)
                0x08014b0c                __ieee754_sqrtf
 *fill*         0x08014b14        0x4 
 .text.__kernel_cos
                0x08014b18      0x27c c:/users/baile/documents/mcha toolchain/toolchain/gcc-arm-none-eabi/bin/../lib/gcc/arm-none-eabi/9.2.1/../../../../arm-none-eabi/lib/thumb/v7e-m+fp/hard\libm.a(lib_a-k_cos.o)
                0x08014b18                __kernel_cos
 *fill*         0x08014d94        0x4 
 .text.__kernel_rem_pio2
                0x08014d98      0x850 c:/users/baile/documents/mcha toolchain/toolchain/gcc-arm-none-eabi/bin/../lib/gcc/arm-none-eabi/9.2.1/../../../../arm-none-eabi/lib/thumb/v7e-m+fp/hard\libm.a(lib_a-k_rem_pio2.o)
                0x08014d98                __kernel_rem_pio2
 .text.__kernel_sin
                0x080155e8      0x17c c:/users/baile/documents/mcha toolchain/toolchain/gcc-arm-none-eabi/bin/../lib/gcc/arm-none-eabi/9.2.1/../../../../arm-none-eabi/lib/thumb/v7e-m+fp/hard\libm.a(lib_a-k_sin.o)
                0x080155e8                __kernel_sin
 *fill*         0x08015764        0x4 
 .text.atan     0x08015768      0x368 c:/users/baile/documents/mcha toolchain/toolchain/gcc-arm-none-eabi/bin/../lib/gcc/arm-none-eabi/9.2.1/../../../../arm-none-eabi/lib/thumb/v7e-m+fp/hard\libm.a(lib_a-s_atan.o)
                0x08015768                atan
 .text.fabs     0x08015ad0       0x14 c:/users/baile/documents/mcha toolchain/toolchain/gcc-arm-none-eabi/bin/../lib/gcc/arm-none-eabi/9.2.1/../../../../arm-none-eabi/lib/thumb/v7e-m+fp/hard\libm.a(lib_a-s_fabs.o)
                0x08015ad0                fabs
 *fill*         0x08015ae4        0x4 
 .text.floor    0x08015ae8      0x108 c:/users/baile/documents/mcha toolchain/toolchain/gcc-arm-none-eabi/bin/../lib/gcc/arm-none-eabi/9.2.1/../../../../arm-none-eabi/lib/thumb/v7e-m+fp/hard\libm.a(lib_a-s_floor.o)
                0x08015ae8                floor
 .text.matherr  0x08015bf0        0x4 c:/users/baile/documents/mcha toolchain/toolchain/gcc-arm-none-eabi/bin/../lib/gcc/arm-none-eabi/9.2.1/../../../../arm-none-eabi/lib/thumb/v7e-m+fp/hard\libm.a(lib_a-s_matherr.o)
                0x08015bf0                matherr
 *fill*         0x08015bf4        0x4 
 .text.scalbn   0x08015bf8      0x124 c:/users/baile/documents/mcha toolchain/toolchain/gcc-arm-none-eabi/bin/../lib/gcc/arm-none-eabi/9.2.1/../../../../arm-none-eabi/lib/thumb/v7e-m+fp/hard\libm.a(lib_a-s_scalbn.o)
                0x08015bf8                scalbn
 .text.arm_mat_sub_f32
                0x08015d1c       0xb4 ../STM32Cube_F4_FW/Drivers/CMSIS/Lib/GCC/libarm_cortexM4lf_math.a(arm_mat_sub_f32.o)
                0x08015d1c                arm_mat_sub_f32
 .text.arm_mat_mult_f32
                0x08015dd0      0x14c ../STM32Cube_F4_FW/Drivers/CMSIS/Lib/GCC/libarm_cortexM4lf_math.a(arm_mat_mult_f32.o)
                0x08015dd0                arm_mat_mult_f32
 .text.arm_mat_init_f32
                0x08015f1c        0x8 ../STM32Cube_F4_FW/Drivers/CMSIS/Lib/GCC/libarm_cortexM4lf_math.a(arm_mat_init_f32.o)
                0x08015f1c                arm_mat_init_f32
 .text.arm_mat_add_f32
                0x08015f24       0xb4 ../STM32Cube_F4_FW/Drivers/CMSIS/Lib/GCC/libarm_cortexM4lf_math.a(arm_mat_add_f32.o)
                0x08015f24                arm_mat_add_f32
 .text.atof     0x08015fd8        0x6 c:/users/baile/documents/mcha toolchain/toolchain/gcc-arm-none-eabi/bin/../lib/gcc/arm-none-eabi/9.2.1/../../../../arm-none-eabi/lib/thumb/v7e-m+fp/hard\libc_nano.a(lib_a-atof.o)
                0x08015fd8                atof
 *fill*         0x08015fde        0x2 
 .text.__errno  0x08015fe0        0xc c:/users/baile/documents/mcha toolchain/toolchain/gcc-arm-none-eabi/bin/../lib/gcc/arm-none-eabi/9.2.1/../../../../arm-none-eabi/lib/thumb/v7e-m+fp/hard\libc_nano.a(lib_a-errno.o)
                0x08015fe0                __errno
 .text.exit     0x08015fec       0x28 c:/users/baile/documents/mcha toolchain/toolchain/gcc-arm-none-eabi/bin/../lib/gcc/arm-none-eabi/9.2.1/../../../../arm-none-eabi/lib/thumb/v7e-m+fp/hard\libc_nano.a(lib_a-exit.o)
                0x08015fec                exit
 .text._getchar_r
                0x08016014       0x1a c:/users/baile/documents/mcha toolchain/toolchain/gcc-arm-none-eabi/bin/../lib/gcc/arm-none-eabi/9.2.1/../../../../arm-none-eabi/lib/thumb/v7e-m+fp/hard\libc_nano.a(lib_a-getchar.o)
                0x08016014                _getchar_r
 *fill*         0x0801602e        0x2 
 .text.getchar  0x08016030       0x24 c:/users/baile/documents/mcha toolchain/toolchain/gcc-arm-none-eabi/bin/../lib/gcc/arm-none-eabi/9.2.1/../../../../arm-none-eabi/lib/thumb/v7e-m+fp/hard\libc_nano.a(lib_a-getchar.o)
                0x08016030                getchar
 .text.__libc_init_array
                0x08016054       0x48 c:/users/baile/documents/mcha toolchain/toolchain/gcc-arm-none-eabi/bin/../lib/gcc/arm-none-eabi/9.2.1/../../../../arm-none-eabi/lib/thumb/v7e-m+fp/hard\libc_nano.a(lib_a-init.o)
                0x08016054                __libc_init_array
 .text.malloc   0x0801609c       0x10 c:/users/baile/documents/mcha toolchain/toolchain/gcc-arm-none-eabi/bin/../lib/gcc/arm-none-eabi/9.2.1/../../../../arm-none-eabi/lib/thumb/v7e-m+fp/hard\libc_nano.a(lib_a-malloc.o)
                0x0801609c                malloc
 .text.free     0x080160ac       0x10 c:/users/baile/documents/mcha toolchain/toolchain/gcc-arm-none-eabi/bin/../lib/gcc/arm-none-eabi/9.2.1/../../../../arm-none-eabi/lib/thumb/v7e-m+fp/hard\libc_nano.a(lib_a-malloc.o)
                0x080160ac                free
 .text.memcpy   0x080160bc       0x1c c:/users/baile/documents/mcha toolchain/toolchain/gcc-arm-none-eabi/bin/../lib/gcc/arm-none-eabi/9.2.1/../../../../arm-none-eabi/lib/thumb/v7e-m+fp/hard\libc_nano.a(lib_a-memcpy-stub.o)
                0x080160bc                memcpy
 .text.memset   0x080160d8       0x10 c:/users/baile/documents/mcha toolchain/toolchain/gcc-arm-none-eabi/bin/../lib/gcc/arm-none-eabi/9.2.1/../../../../arm-none-eabi/lib/thumb/v7e-m+fp/hard\libc_nano.a(lib_a-memset.o)
                0x080160d8                memset
 .text.mallinfo
                0x080160e8       0x14 c:/users/baile/documents/mcha toolchain/toolchain/gcc-arm-none-eabi/bin/../lib/gcc/arm-none-eabi/9.2.1/../../../../arm-none-eabi/lib/thumb/v7e-m+fp/hard\libc_nano.a(lib_a-mstats.o)
                0x080160e8                mallinfo
 .text.malloc_stats
                0x080160fc        0xc c:/users/baile/documents/mcha toolchain/toolchain/gcc-arm-none-eabi/bin/../lib/gcc/arm-none-eabi/9.2.1/../../../../arm-none-eabi/lib/thumb/v7e-m+fp/hard\libc_nano.a(lib_a-mstats.o)
                0x080160fc                malloc_stats
 .text.mallopt  0x08016108       0x10 c:/users/baile/documents/mcha toolchain/toolchain/gcc-arm-none-eabi/bin/../lib/gcc/arm-none-eabi/9.2.1/../../../../arm-none-eabi/lib/thumb/v7e-m+fp/hard\libc_nano.a(lib_a-mstats.o)
                0x08016108                mallopt
 .text._mstats_r
                0x08016118       0x2c c:/users/baile/documents/mcha toolchain/toolchain/gcc-arm-none-eabi/bin/../lib/gcc/arm-none-eabi/9.2.1/../../../../arm-none-eabi/lib/thumb/v7e-m+fp/hard\libc_nano.a(lib_a-mstats.o)
                0x08016118                _mstats_r
 .text.mstats   0x08016144       0x10 c:/users/baile/documents/mcha toolchain/toolchain/gcc-arm-none-eabi/bin/../lib/gcc/arm-none-eabi/9.2.1/../../../../arm-none-eabi/lib/thumb/v7e-m+fp/hard\libc_nano.a(lib_a-mstats.o)
                0x08016144                mstats
 .text._free_r  0x08016154       0xa0 c:/users/baile/documents/mcha toolchain/toolchain/gcc-arm-none-eabi/bin/../lib/gcc/arm-none-eabi/9.2.1/../../../../arm-none-eabi/lib/thumb/v7e-m+fp/hard\libc_nano.a(lib_a-nano-freer.o)
                0x08016154                _free_r
 .text._mallinfo_r
                0x080161f4       0x68 c:/users/baile/documents/mcha toolchain/toolchain/gcc-arm-none-eabi/bin/../lib/gcc/arm-none-eabi/9.2.1/../../../../arm-none-eabi/lib/thumb/v7e-m+fp/hard\libc_nano.a(lib_a-nano-mallinfor.o)
                0x080161f4                _mallinfo_r
 .text._malloc_r
                0x0801625c       0xb4 c:/users/baile/documents/mcha toolchain/toolchain/gcc-arm-none-eabi/bin/../lib/gcc/arm-none-eabi/9.2.1/../../../../arm-none-eabi/lib/thumb/v7e-m+fp/hard\libc_nano.a(lib_a-nano-mallocr.o)
                0x0801625c                _malloc_r
 .text._mallopt_r
                0x08016310        0x4 c:/users/baile/documents/mcha toolchain/toolchain/gcc-arm-none-eabi/bin/../lib/gcc/arm-none-eabi/9.2.1/../../../../arm-none-eabi/lib/thumb/v7e-m+fp/hard\libc_nano.a(lib_a-nano-malloptr.o)
                0x08016310                _mallopt_r
 .text._malloc_stats_r
                0x08016314       0x50 c:/users/baile/documents/mcha toolchain/toolchain/gcc-arm-none-eabi/bin/../lib/gcc/arm-none-eabi/9.2.1/../../../../arm-none-eabi/lib/thumb/v7e-m+fp/hard\libc_nano.a(lib_a-nano-mallstatsr.o)
                0x08016314                _malloc_stats_r
 .text.__cvt    0x08016364       0xc4 c:/users/baile/documents/mcha toolchain/toolchain/gcc-arm-none-eabi/bin/../lib/gcc/arm-none-eabi/9.2.1/../../../../arm-none-eabi/lib/thumb/v7e-m+fp/hard\libc_nano.a(lib_a-nano-vfprintf_float.o)
                0x08016364                __cvt
 .text.__exponent
                0x08016428       0x7c c:/users/baile/documents/mcha toolchain/toolchain/gcc-arm-none-eabi/bin/../lib/gcc/arm-none-eabi/9.2.1/../../../../arm-none-eabi/lib/thumb/v7e-m+fp/hard\libc_nano.a(lib_a-nano-vfprintf_float.o)
                0x08016428                __exponent
 .text._printf_float
                0x080164a4      0x46c c:/users/baile/documents/mcha toolchain/toolchain/gcc-arm-none-eabi/bin/../lib/gcc/arm-none-eabi/9.2.1/../../../../arm-none-eabi/lib/thumb/v7e-m+fp/hard\libc_nano.a(lib_a-nano-vfprintf_float.o)
                0x080164a4                _printf_float
 .text._printf_common
                0x08016910       0xda c:/users/baile/documents/mcha toolchain/toolchain/gcc-arm-none-eabi/bin/../lib/gcc/arm-none-eabi/9.2.1/../../../../arm-none-eabi/lib/thumb/v7e-m+fp/hard\libc_nano.a(lib_a-nano-vfprintf_i.o)
                0x08016910                _printf_common
 *fill*         0x080169ea        0x2 
 .text._printf_i
                0x080169ec      0x24c c:/users/baile/documents/mcha toolchain/toolchain/gcc-arm-none-eabi/bin/../lib/gcc/arm-none-eabi/9.2.1/../../../../arm-none-eabi/lib/thumb/v7e-m+fp/hard\libc_nano.a(lib_a-nano-vfprintf_i.o)
                0x080169ec                _printf_i
 .text._scanf_float
                0x08016c38      0x420 c:/users/baile/documents/mcha toolchain/toolchain/gcc-arm-none-eabi/bin/../lib/gcc/arm-none-eabi/9.2.1/../../../../arm-none-eabi/lib/thumb/v7e-m+fp/hard\libc_nano.a(lib_a-nano-vfscanf_float.o)
                0x08016c38                _scanf_float
 .text._printf_r
                0x08017058       0x28 c:/users/baile/documents/mcha toolchain/toolchain/gcc-arm-none-eabi/bin/../lib/gcc/arm-none-eabi/9.2.1/../../../../arm-none-eabi/lib/thumb/v7e-m+fp/hard\libc_nano.a(lib_a-printf.o)
                0x08017058                _iprintf_r
                0x08017058                _printf_r
 .text.printf   0x08017080       0x30 c:/users/baile/documents/mcha toolchain/toolchain/gcc-arm-none-eabi/bin/../lib/gcc/arm-none-eabi/9.2.1/../../../../arm-none-eabi/lib/thumb/v7e-m+fp/hard\libc_nano.a(lib_a-printf.o)
                0x08017080                iprintf
                0x08017080                printf
 .text.cleanup_glue
                0x080170b0       0x1a c:/users/baile/documents/mcha toolchain/toolchain/gcc-arm-none-eabi/bin/../lib/gcc/arm-none-eabi/9.2.1/../../../../arm-none-eabi/lib/thumb/v7e-m+fp/hard\libc_nano.a(lib_a-reent.o)
                0x080170b0                cleanup_glue
 *fill*         0x080170ca        0x2 
 .text._reclaim_reent
                0x080170cc       0xb8 c:/users/baile/documents/mcha toolchain/toolchain/gcc-arm-none-eabi/bin/../lib/gcc/arm-none-eabi/9.2.1/../../../../arm-none-eabi/lib/thumb/v7e-m+fp/hard\libc_nano.a(lib_a-reent.o)
                0x080170cc                _reclaim_reent
 .text._sbrk_r  0x08017184       0x20 c:/users/baile/documents/mcha toolchain/toolchain/gcc-arm-none-eabi/bin/../lib/gcc/arm-none-eabi/9.2.1/../../../../arm-none-eabi/lib/thumb/v7e-m+fp/hard\libc_nano.a(lib_a-sbrkr.o)
                0x08017184                _sbrk_r
 .text.setvbuf  0x080171a4      0x18c c:/users/baile/documents/mcha toolchain/toolchain/gcc-arm-none-eabi/bin/../lib/gcc/arm-none-eabi/9.2.1/../../../../arm-none-eabi/lib/thumb/v7e-m+fp/hard\libc_nano.a(lib_a-setvbuf.o)
                0x080171a4                setvbuf
 .text.nanf     0x08017330        0xc c:/users/baile/documents/mcha toolchain/toolchain/gcc-arm-none-eabi/bin/../lib/gcc/arm-none-eabi/9.2.1/../../../../arm-none-eabi/lib/thumb/v7e-m+fp/hard\libc_nano.a(lib_a-sf_nan.o)
                0x08017330                nanf
 .text._sprintf_r
                0x0801733c       0x38 c:/users/baile/documents/mcha toolchain/toolchain/gcc-arm-none-eabi/bin/../lib/gcc/arm-none-eabi/9.2.1/../../../../arm-none-eabi/lib/thumb/v7e-m+fp/hard\libc_nano.a(lib_a-sprintf.o)
                0x0801733c                _sprintf_r
                0x0801733c                _siprintf_r
 .text.sprintf  0x08017374       0x40 c:/users/baile/documents/mcha toolchain/toolchain/gcc-arm-none-eabi/bin/../lib/gcc/arm-none-eabi/9.2.1/../../../../arm-none-eabi/lib/thumb/v7e-m+fp/hard\libc_nano.a(lib_a-sprintf.o)
                0x08017374                siprintf
                0x08017374                sprintf
 .text.strcpy   0x080173b4       0x10 c:/users/baile/documents/mcha toolchain/toolchain/gcc-arm-none-eabi/bin/../lib/gcc/arm-none-eabi/9.2.1/../../../../arm-none-eabi/lib/thumb/v7e-m+fp/hard\libc_nano.a(lib_a-strcpy.o)
                0x080173b4                strcpy
 .text.sulp     0x080173c4       0x38 c:/users/baile/documents/mcha toolchain/toolchain/gcc-arm-none-eabi/bin/../lib/gcc/arm-none-eabi/9.2.1/../../../../arm-none-eabi/lib/thumb/v7e-m+fp/hard\libc_nano.a(lib_a-strtod.o)
 *fill*         0x080173fc        0x4 
 .text._strtod_l
                0x08017400      0xc14 c:/users/baile/documents/mcha toolchain/toolchain/gcc-arm-none-eabi/bin/../lib/gcc/arm-none-eabi/9.2.1/../../../../arm-none-eabi/lib/thumb/v7e-m+fp/hard\libc_nano.a(lib_a-strtod.o)
                0x08017400                _strtod_l
 .text._strtod_r
                0x08018014        0xc c:/users/baile/documents/mcha toolchain/toolchain/gcc-arm-none-eabi/bin/../lib/gcc/arm-none-eabi/9.2.1/../../../../arm-none-eabi/lib/thumb/v7e-m+fp/hard\libc_nano.a(lib_a-strtod.o)
                0x08018014                _strtod_r
 .text.strtod_l
                0x08018020       0x14 c:/users/baile/documents/mcha toolchain/toolchain/gcc-arm-none-eabi/bin/../lib/gcc/arm-none-eabi/9.2.1/../../../../arm-none-eabi/lib/thumb/v7e-m+fp/hard\libc_nano.a(lib_a-strtod.o)
                0x08018020                strtod_l
 .text.strtod   0x08018034       0x18 c:/users/baile/documents/mcha toolchain/toolchain/gcc-arm-none-eabi/bin/../lib/gcc/arm-none-eabi/9.2.1/../../../../arm-none-eabi/lib/thumb/v7e-m+fp/hard\libc_nano.a(lib_a-strtod.o)
                0x08018034                strtod
 .text.strtof_l
                0x0801804c       0xb0 c:/users/baile/documents/mcha toolchain/toolchain/gcc-arm-none-eabi/bin/../lib/gcc/arm-none-eabi/9.2.1/../../../../arm-none-eabi/lib/thumb/v7e-m+fp/hard\libc_nano.a(lib_a-strtod.o)
                0x0801804c                strtof_l
 .text.strtof   0x080180fc       0xb4 c:/users/baile/documents/mcha toolchain/toolchain/gcc-arm-none-eabi/bin/../lib/gcc/arm-none-eabi/9.2.1/../../../../arm-none-eabi/lib/thumb/v7e-m+fp/hard\libc_nano.a(lib_a-strtod.o)
                0x080180fc                strtof
 .text._strtol_l.isra.0
                0x080181b0       0xf4 c:/users/baile/documents/mcha toolchain/toolchain/gcc-arm-none-eabi/bin/../lib/gcc/arm-none-eabi/9.2.1/../../../../arm-none-eabi/lib/thumb/v7e-m+fp/hard\libc_nano.a(lib_a-strtol.o)
 .text._strtol_r
                0x080182a4        0x4 c:/users/baile/documents/mcha toolchain/toolchain/gcc-arm-none-eabi/bin/../lib/gcc/arm-none-eabi/9.2.1/../../../../arm-none-eabi/lib/thumb/v7e-m+fp/hard\libc_nano.a(lib_a-strtol.o)
                0x080182a4                _strtol_r
 .text.strtol_l
                0x080182a8       0x14 c:/users/baile/documents/mcha toolchain/toolchain/gcc-arm-none-eabi/bin/../lib/gcc/arm-none-eabi/9.2.1/../../../../arm-none-eabi/lib/thumb/v7e-m+fp/hard\libc_nano.a(lib_a-strtol.o)
                0x080182a8                strtol_l
 .text.strtol   0x080182bc       0x14 c:/users/baile/documents/mcha toolchain/toolchain/gcc-arm-none-eabi/bin/../lib/gcc/arm-none-eabi/9.2.1/../../../../arm-none-eabi/lib/thumb/v7e-m+fp/hard\libc_nano.a(lib_a-strtol.o)
                0x080182bc                strtol
 .text.vprintf  0x080182d0       0x30 c:/users/baile/documents/mcha toolchain/toolchain/gcc-arm-none-eabi/bin/../lib/gcc/arm-none-eabi/9.2.1/../../../../arm-none-eabi/lib/thumb/v7e-m+fp/hard\libc_nano.a(lib_a-vprintf.o)
                0x080182d0                viprintf
                0x080182d0                vprintf
 .text._vprintf_r
                0x08018300       0x26 c:/users/baile/documents/mcha toolchain/toolchain/gcc-arm-none-eabi/bin/../lib/gcc/arm-none-eabi/9.2.1/../../../../arm-none-eabi/lib/thumb/v7e-m+fp/hard\libc_nano.a(lib_a-vprintf.o)
                0x08018300                _vprintf_r
                0x08018300                _viprintf_r
 .text.quorem   0x08018326      0x116 c:/users/baile/documents/mcha toolchain/toolchain/gcc-arm-none-eabi/bin/../lib/gcc/arm-none-eabi/9.2.1/../../../../arm-none-eabi/lib/thumb/v7e-m+fp/hard\libc_nano.a(lib_a-dtoa.o)
 *fill*         0x0801843c        0x4 
 .text._dtoa_r  0x08018440      0xbbc c:/users/baile/documents/mcha toolchain/toolchain/gcc-arm-none-eabi/bin/../lib/gcc/arm-none-eabi/9.2.1/../../../../arm-none-eabi/lib/thumb/v7e-m+fp/hard\libc_nano.a(lib_a-dtoa.o)
                0x08018440                _dtoa_r
 .text.__sflush_r
                0x08018ffc      0x10c c:/users/baile/documents/mcha toolchain/toolchain/gcc-arm-none-eabi/bin/../lib/gcc/arm-none-eabi/9.2.1/../../../../arm-none-eabi/lib/thumb/v7e-m+fp/hard\libc_nano.a(lib_a-fflush.o)
                0x08018ffc                __sflush_r
 .text._fflush_r
                0x08019108       0x78 c:/users/baile/documents/mcha toolchain/toolchain/gcc-arm-none-eabi/bin/../lib/gcc/arm-none-eabi/9.2.1/../../../../arm-none-eabi/lib/thumb/v7e-m+fp/hard\libc_nano.a(lib_a-fflush.o)
                0x08019108                _fflush_r
 .text.fflush   0x08019180       0x24 c:/users/baile/documents/mcha toolchain/toolchain/gcc-arm-none-eabi/bin/../lib/gcc/arm-none-eabi/9.2.1/../../../../arm-none-eabi/lib/thumb/v7e-m+fp/hard\libc_nano.a(lib_a-fflush.o)
                0x08019180                fflush
 .text.std      0x080191a4       0x48 c:/users/baile/documents/mcha toolchain/toolchain/gcc-arm-none-eabi/bin/../lib/gcc/arm-none-eabi/9.2.1/../../../../arm-none-eabi/lib/thumb/v7e-m+fp/hard\libc_nano.a(lib_a-findfp.o)
 .text._cleanup_r
                0x080191ec        0xc c:/users/baile/documents/mcha toolchain/toolchain/gcc-arm-none-eabi/bin/../lib/gcc/arm-none-eabi/9.2.1/../../../../arm-none-eabi/lib/thumb/v7e-m+fp/hard\libc_nano.a(lib_a-findfp.o)
                0x080191ec                _cleanup_r
 .text.__fp_lock
                0x080191f8       0x18 c:/users/baile/documents/mcha toolchain/toolchain/gcc-arm-none-eabi/bin/../lib/gcc/arm-none-eabi/9.2.1/../../../../arm-none-eabi/lib/thumb/v7e-m+fp/hard\libc_nano.a(lib_a-findfp.o)
 .text.__fp_unlock
                0x08019210       0x18 c:/users/baile/documents/mcha toolchain/toolchain/gcc-arm-none-eabi/bin/../lib/gcc/arm-none-eabi/9.2.1/../../../../arm-none-eabi/lib/thumb/v7e-m+fp/hard\libc_nano.a(lib_a-findfp.o)
 .text.__sfmoreglue
                0x08019228       0x2c c:/users/baile/documents/mcha toolchain/toolchain/gcc-arm-none-eabi/bin/../lib/gcc/arm-none-eabi/9.2.1/../../../../arm-none-eabi/lib/thumb/v7e-m+fp/hard\libc_nano.a(lib_a-findfp.o)
                0x08019228                __sfmoreglue
 .text._cleanup
                0x08019254        0xc c:/users/baile/documents/mcha toolchain/toolchain/gcc-arm-none-eabi/bin/../lib/gcc/arm-none-eabi/9.2.1/../../../../arm-none-eabi/lib/thumb/v7e-m+fp/hard\libc_nano.a(lib_a-findfp.o)
                0x08019254                _cleanup
 .text.__sfp_lock_acquire
                0x08019260        0xc c:/users/baile/documents/mcha toolchain/toolchain/gcc-arm-none-eabi/bin/../lib/gcc/arm-none-eabi/9.2.1/../../../../arm-none-eabi/lib/thumb/v7e-m+fp/hard\libc_nano.a(lib_a-findfp.o)
                0x08019260                __sfp_lock_acquire
 .text.__sfp_lock_release
                0x0801926c        0xc c:/users/baile/documents/mcha toolchain/toolchain/gcc-arm-none-eabi/bin/../lib/gcc/arm-none-eabi/9.2.1/../../../../arm-none-eabi/lib/thumb/v7e-m+fp/hard\libc_nano.a(lib_a-findfp.o)
                0x0801926c                __sfp_lock_release
 .text.__sinit_lock_acquire
                0x08019278        0xc c:/users/baile/documents/mcha toolchain/toolchain/gcc-arm-none-eabi/bin/../lib/gcc/arm-none-eabi/9.2.1/../../../../arm-none-eabi/lib/thumb/v7e-m+fp/hard\libc_nano.a(lib_a-findfp.o)
                0x08019278                __sinit_lock_acquire
 .text.__sinit_lock_release
                0x08019284        0xc c:/users/baile/documents/mcha toolchain/toolchain/gcc-arm-none-eabi/bin/../lib/gcc/arm-none-eabi/9.2.1/../../../../arm-none-eabi/lib/thumb/v7e-m+fp/hard\libc_nano.a(lib_a-findfp.o)
                0x08019284                __sinit_lock_release
 .text.__sinit  0x08019290       0x70 c:/users/baile/documents/mcha toolchain/toolchain/gcc-arm-none-eabi/bin/../lib/gcc/arm-none-eabi/9.2.1/../../../../arm-none-eabi/lib/thumb/v7e-m+fp/hard\libc_nano.a(lib_a-findfp.o)
                0x08019290                __sinit
 .text.__sfp    0x08019300       0x8c c:/users/baile/documents/mcha toolchain/toolchain/gcc-arm-none-eabi/bin/../lib/gcc/arm-none-eabi/9.2.1/../../../../arm-none-eabi/lib/thumb/v7e-m+fp/hard\libc_nano.a(lib_a-findfp.o)
                0x08019300                __sfp
 .text.__fp_lock_all
                0x0801938c       0x1c c:/users/baile/documents/mcha toolchain/toolchain/gcc-arm-none-eabi/bin/../lib/gcc/arm-none-eabi/9.2.1/../../../../arm-none-eabi/lib/thumb/v7e-m+fp/hard\libc_nano.a(lib_a-findfp.o)
                0x0801938c                __fp_lock_all
 .text.__fp_unlock_all
                0x080193a8       0x1c c:/users/baile/documents/mcha toolchain/toolchain/gcc-arm-none-eabi/bin/../lib/gcc/arm-none-eabi/9.2.1/../../../../arm-none-eabi/lib/thumb/v7e-m+fp/hard\libc_nano.a(lib_a-findfp.o)
                0x080193a8                __fp_unlock_all
 .text._fprintf_r
                0x080193c4       0x1a c:/users/baile/documents/mcha toolchain/toolchain/gcc-arm-none-eabi/bin/../lib/gcc/arm-none-eabi/9.2.1/../../../../arm-none-eabi/lib/thumb/v7e-m+fp/hard\libc_nano.a(lib_a-fprintf.o)
                0x080193c4                _fiprintf_r
                0x080193c4                _fprintf_r
 *fill*         0x080193de        0x2 
 .text.fprintf  0x080193e0       0x24 c:/users/baile/documents/mcha toolchain/toolchain/gcc-arm-none-eabi/bin/../lib/gcc/arm-none-eabi/9.2.1/../../../../arm-none-eabi/lib/thumb/v7e-m+fp/hard\libc_nano.a(lib_a-fprintf.o)
                0x080193e0                fiprintf
                0x080193e0                fprintf
 .text._fwalk   0x08019404       0x3a c:/users/baile/documents/mcha toolchain/toolchain/gcc-arm-none-eabi/bin/../lib/gcc/arm-none-eabi/9.2.1/../../../../arm-none-eabi/lib/thumb/v7e-m+fp/hard\libc_nano.a(lib_a-fwalk.o)
                0x08019404                _fwalk
 .text._fwalk_reent
                0x0801943e       0x3e c:/users/baile/documents/mcha toolchain/toolchain/gcc-arm-none-eabi/bin/../lib/gcc/arm-none-eabi/9.2.1/../../../../arm-none-eabi/lib/thumb/v7e-m+fp/hard\libc_nano.a(lib_a-fwalk.o)
                0x0801943e                _fwalk_reent
 .text.rshift   0x0801947c       0xa4 c:/users/baile/documents/mcha toolchain/toolchain/gcc-arm-none-eabi/bin/../lib/gcc/arm-none-eabi/9.2.1/../../../../arm-none-eabi/lib/thumb/v7e-m+fp/hard\libc_nano.a(lib_a-gdtoa-gethex.o)
 .text.__hexdig_fun
                0x08019520       0x2a c:/users/baile/documents/mcha toolchain/toolchain/gcc-arm-none-eabi/bin/../lib/gcc/arm-none-eabi/9.2.1/../../../../arm-none-eabi/lib/thumb/v7e-m+fp/hard\libc_nano.a(lib_a-gdtoa-gethex.o)
                0x08019520                __hexdig_fun
 *fill*         0x0801954a        0x2 
 .text.__gethex
                0x0801954c      0x468 c:/users/baile/documents/mcha toolchain/toolchain/gcc-arm-none-eabi/bin/../lib/gcc/arm-none-eabi/9.2.1/../../../../arm-none-eabi/lib/thumb/v7e-m+fp/hard\libc_nano.a(lib_a-gdtoa-gethex.o)
                0x0801954c                __gethex
 .text.L_shift  0x080199b4       0x24 c:/users/baile/documents/mcha toolchain/toolchain/gcc-arm-none-eabi/bin/../lib/gcc/arm-none-eabi/9.2.1/../../../../arm-none-eabi/lib/thumb/v7e-m+fp/hard\libc_nano.a(lib_a-gdtoa-hexnan.o)
 .text.__match  0x080199d8       0x28 c:/users/baile/documents/mcha toolchain/toolchain/gcc-arm-none-eabi/bin/../lib/gcc/arm-none-eabi/9.2.1/../../../../arm-none-eabi/lib/thumb/v7e-m+fp/hard\libc_nano.a(lib_a-gdtoa-hexnan.o)
                0x080199d8                __match
 .text.__hexnan
                0x08019a00      0x138 c:/users/baile/documents/mcha toolchain/toolchain/gcc-arm-none-eabi/bin/../lib/gcc/arm-none-eabi/9.2.1/../../../../arm-none-eabi/lib/thumb/v7e-m+fp/hard\libc_nano.a(lib_a-gdtoa-hexnan.o)
                0x08019a00                __hexnan
 .text._getc_r  0x08019b38       0x80 c:/users/baile/documents/mcha toolchain/toolchain/gcc-arm-none-eabi/bin/../lib/gcc/arm-none-eabi/9.2.1/../../../../arm-none-eabi/lib/thumb/v7e-m+fp/hard\libc_nano.a(lib_a-getc.o)
                0x08019b38                _getc_r
 .text.getc     0x08019bb8       0x88 c:/users/baile/documents/mcha toolchain/toolchain/gcc-arm-none-eabi/bin/../lib/gcc/arm-none-eabi/9.2.1/../../../../arm-none-eabi/lib/thumb/v7e-m+fp/hard\libc_nano.a(lib_a-getc.o)
                0x08019bb8                getc
 .text.__numeric_load_locale
                0x08019c40        0x4 c:/users/baile/documents/mcha toolchain/toolchain/gcc-arm-none-eabi/bin/../lib/gcc/arm-none-eabi/9.2.1/../../../../arm-none-eabi/lib/thumb/v7e-m+fp/hard\libc_nano.a(lib_a-lnumeric.o)
                0x08019c40                __numeric_load_locale
 .text._setlocale_r
                0x08019c44       0x40 c:/users/baile/documents/mcha toolchain/toolchain/gcc-arm-none-eabi/bin/../lib/gcc/arm-none-eabi/9.2.1/../../../../arm-none-eabi/lib/thumb/v7e-m+fp/hard\libc_nano.a(lib_a-locale.o)
                0x08019c44                _setlocale_r
 .text.__locale_mb_cur_max
                0x08019c84        0xc c:/users/baile/documents/mcha toolchain/toolchain/gcc-arm-none-eabi/bin/../lib/gcc/arm-none-eabi/9.2.1/../../../../arm-none-eabi/lib/thumb/v7e-m+fp/hard\libc_nano.a(lib_a-locale.o)
                0x08019c84                __locale_mb_cur_max
 .text.setlocale
                0x08019c90       0x10 c:/users/baile/documents/mcha toolchain/toolchain/gcc-arm-none-eabi/bin/../lib/gcc/arm-none-eabi/9.2.1/../../../../arm-none-eabi/lib/thumb/v7e-m+fp/hard\libc_nano.a(lib_a-locale.o)
                0x08019c90                setlocale
 .text.__localeconv_l
                0x08019ca0        0x4 c:/users/baile/documents/mcha toolchain/toolchain/gcc-arm-none-eabi/bin/../lib/gcc/arm-none-eabi/9.2.1/../../../../arm-none-eabi/lib/thumb/v7e-m+fp/hard\libc_nano.a(lib_a-localeconv.o)
                0x08019ca0                __localeconv_l
 .text._localeconv_r
                0x08019ca4        0x8 c:/users/baile/documents/mcha toolchain/toolchain/gcc-arm-none-eabi/bin/../lib/gcc/arm-none-eabi/9.2.1/../../../../arm-none-eabi/lib/thumb/v7e-m+fp/hard\libc_nano.a(lib_a-localeconv.o)
                0x08019ca4                _localeconv_r
 .text.localeconv
                0x08019cac        0x8 c:/users/baile/documents/mcha toolchain/toolchain/gcc-arm-none-eabi/bin/../lib/gcc/arm-none-eabi/9.2.1/../../../../arm-none-eabi/lib/thumb/v7e-m+fp/hard\libc_nano.a(lib_a-localeconv.o)
                0x08019cac                localeconv
 .text.__retarget_lock_init
                0x08019cb4        0x2 c:/users/baile/documents/mcha toolchain/toolchain/gcc-arm-none-eabi/bin/../lib/gcc/arm-none-eabi/9.2.1/../../../../arm-none-eabi/lib/thumb/v7e-m+fp/hard\libc_nano.a(lib_a-lock.o)
                0x08019cb4                __retarget_lock_init
 .text.__retarget_lock_init_recursive
                0x08019cb6        0x2 c:/users/baile/documents/mcha toolchain/toolchain/gcc-arm-none-eabi/bin/../lib/gcc/arm-none-eabi/9.2.1/../../../../arm-none-eabi/lib/thumb/v7e-m+fp/hard\libc_nano.a(lib_a-lock.o)
                0x08019cb6                __retarget_lock_init_recursive
 .text.__retarget_lock_close
                0x08019cb8        0x2 c:/users/baile/documents/mcha toolchain/toolchain/gcc-arm-none-eabi/bin/../lib/gcc/arm-none-eabi/9.2.1/../../../../arm-none-eabi/lib/thumb/v7e-m+fp/hard\libc_nano.a(lib_a-lock.o)
                0x08019cb8                __retarget_lock_close
 .text.__retarget_lock_close_recursive
                0x08019cba        0x2 c:/users/baile/documents/mcha toolchain/toolchain/gcc-arm-none-eabi/bin/../lib/gcc/arm-none-eabi/9.2.1/../../../../arm-none-eabi/lib/thumb/v7e-m+fp/hard\libc_nano.a(lib_a-lock.o)
                0x08019cba                __retarget_lock_close_recursive
 .text.__retarget_lock_acquire
                0x08019cbc        0x2 c:/users/baile/documents/mcha toolchain/toolchain/gcc-arm-none-eabi/bin/../lib/gcc/arm-none-eabi/9.2.1/../../../../arm-none-eabi/lib/thumb/v7e-m+fp/hard\libc_nano.a(lib_a-lock.o)
                0x08019cbc                __retarget_lock_acquire
 .text.__retarget_lock_acquire_recursive
                0x08019cbe        0x2 c:/users/baile/documents/mcha toolchain/toolchain/gcc-arm-none-eabi/bin/../lib/gcc/arm-none-eabi/9.2.1/../../../../arm-none-eabi/lib/thumb/v7e-m+fp/hard\libc_nano.a(lib_a-lock.o)
                0x08019cbe                __retarget_lock_acquire_recursive
 .text.__retarget_lock_try_acquire
                0x08019cc0        0x4 c:/users/baile/documents/mcha toolchain/toolchain/gcc-arm-none-eabi/bin/../lib/gcc/arm-none-eabi/9.2.1/../../../../arm-none-eabi/lib/thumb/v7e-m+fp/hard\libc_nano.a(lib_a-lock.o)
                0x08019cc0                __retarget_lock_try_acquire
 .text.__retarget_lock_try_acquire_recursive
                0x08019cc4        0x4 c:/users/baile/documents/mcha toolchain/toolchain/gcc-arm-none-eabi/bin/../lib/gcc/arm-none-eabi/9.2.1/../../../../arm-none-eabi/lib/thumb/v7e-m+fp/hard\libc_nano.a(lib_a-lock.o)
                0x08019cc4                __retarget_lock_try_acquire_recursive
 .text.__retarget_lock_release
                0x08019cc8        0x2 c:/users/baile/documents/mcha toolchain/toolchain/gcc-arm-none-eabi/bin/../lib/gcc/arm-none-eabi/9.2.1/../../../../arm-none-eabi/lib/thumb/v7e-m+fp/hard\libc_nano.a(lib_a-lock.o)
                0x08019cc8                __retarget_lock_release
 .text.__retarget_lock_release_recursive
                0x08019cca        0x2 c:/users/baile/documents/mcha toolchain/toolchain/gcc-arm-none-eabi/bin/../lib/gcc/arm-none-eabi/9.2.1/../../../../arm-none-eabi/lib/thumb/v7e-m+fp/hard\libc_nano.a(lib_a-lock.o)
                0x08019cca                __retarget_lock_release_recursive
 .text.__swhatbuf_r
                0x08019ccc       0x48 c:/users/baile/documents/mcha toolchain/toolchain/gcc-arm-none-eabi/bin/../lib/gcc/arm-none-eabi/9.2.1/../../../../arm-none-eabi/lib/thumb/v7e-m+fp/hard\libc_nano.a(lib_a-makebuf.o)
                0x08019ccc                __swhatbuf_r
 .text.__smakebuf_r
                0x08019d14       0x80 c:/users/baile/documents/mcha toolchain/toolchain/gcc-arm-none-eabi/bin/../lib/gcc/arm-none-eabi/9.2.1/../../../../arm-none-eabi/lib/thumb/v7e-m+fp/hard\libc_nano.a(lib_a-makebuf.o)
                0x08019d14                __smakebuf_r
 .text._mbtowc_r
                0x08019d94       0x14 c:/users/baile/documents/mcha toolchain/toolchain/gcc-arm-none-eabi/bin/../lib/gcc/arm-none-eabi/9.2.1/../../../../arm-none-eabi/lib/thumb/v7e-m+fp/hard\libc_nano.a(lib_a-mbtowc_r.o)
                0x08019d94                _mbtowc_r
 .text.__ascii_mbtowc
                0x08019da8       0x24 c:/users/baile/documents/mcha toolchain/toolchain/gcc-arm-none-eabi/bin/../lib/gcc/arm-none-eabi/9.2.1/../../../../arm-none-eabi/lib/thumb/v7e-m+fp/hard\libc_nano.a(lib_a-mbtowc_r.o)
                0x08019da8                __ascii_mbtowc
 .text._Balloc  0x08019dcc       0x68 c:/users/baile/documents/mcha toolchain/toolchain/gcc-arm-none-eabi/bin/../lib/gcc/arm-none-eabi/9.2.1/../../../../arm-none-eabi/lib/thumb/v7e-m+fp/hard\libc_nano.a(lib_a-mprec.o)
                0x08019dcc                _Balloc
 .text._Bfree   0x08019e34       0x2e c:/users/baile/documents/mcha toolchain/toolchain/gcc-arm-none-eabi/bin/../lib/gcc/arm-none-eabi/9.2.1/../../../../arm-none-eabi/lib/thumb/v7e-m+fp/hard\libc_nano.a(lib_a-mprec.o)
                0x08019e34                _Bfree
 .text.__multadd
                0x08019e62       0x7c c:/users/baile/documents/mcha toolchain/toolchain/gcc-arm-none-eabi/bin/../lib/gcc/arm-none-eabi/9.2.1/../../../../arm-none-eabi/lib/thumb/v7e-m+fp/hard\libc_nano.a(lib_a-mprec.o)
                0x08019e62                __multadd
 .text.__s2b    0x08019ede       0x7c c:/users/baile/documents/mcha toolchain/toolchain/gcc-arm-none-eabi/bin/../lib/gcc/arm-none-eabi/9.2.1/../../../../arm-none-eabi/lib/thumb/v7e-m+fp/hard\libc_nano.a(lib_a-mprec.o)
                0x08019ede                __s2b
 .text.__hi0bits
                0x08019f5a       0x40 c:/users/baile/documents/mcha toolchain/toolchain/gcc-arm-none-eabi/bin/../lib/gcc/arm-none-eabi/9.2.1/../../../../arm-none-eabi/lib/thumb/v7e-m+fp/hard\libc_nano.a(lib_a-mprec.o)
                0x08019f5a                __hi0bits
 .text.__lo0bits
                0x08019f9a       0x60 c:/users/baile/documents/mcha toolchain/toolchain/gcc-arm-none-eabi/bin/../lib/gcc/arm-none-eabi/9.2.1/../../../../arm-none-eabi/lib/thumb/v7e-m+fp/hard\libc_nano.a(lib_a-mprec.o)
                0x08019f9a                __lo0bits
 .text.__i2b    0x08019ffa       0x12 c:/users/baile/documents/mcha toolchain/toolchain/gcc-arm-none-eabi/bin/../lib/gcc/arm-none-eabi/9.2.1/../../../../arm-none-eabi/lib/thumb/v7e-m+fp/hard\libc_nano.a(lib_a-mprec.o)
                0x08019ffa                __i2b
 .text.__multiply
                0x0801a00c      0x138 c:/users/baile/documents/mcha toolchain/toolchain/gcc-arm-none-eabi/bin/../lib/gcc/arm-none-eabi/9.2.1/../../../../arm-none-eabi/lib/thumb/v7e-m+fp/hard\libc_nano.a(lib_a-mprec.o)
                0x0801a00c                __multiply
 .text.__pow5mult
                0x0801a144       0x9c c:/users/baile/documents/mcha toolchain/toolchain/gcc-arm-none-eabi/bin/../lib/gcc/arm-none-eabi/9.2.1/../../../../arm-none-eabi/lib/thumb/v7e-m+fp/hard\libc_nano.a(lib_a-mprec.o)
                0x0801a144                __pow5mult
 .text.__lshift
                0x0801a1e0       0xbe c:/users/baile/documents/mcha toolchain/toolchain/gcc-arm-none-eabi/bin/../lib/gcc/arm-none-eabi/9.2.1/../../../../arm-none-eabi/lib/thumb/v7e-m+fp/hard\libc_nano.a(lib_a-mprec.o)
                0x0801a1e0                __lshift
 .text.__mcmp   0x0801a29e       0x38 c:/users/baile/documents/mcha toolchain/toolchain/gcc-arm-none-eabi/bin/../lib/gcc/arm-none-eabi/9.2.1/../../../../arm-none-eabi/lib/thumb/v7e-m+fp/hard\libc_nano.a(lib_a-mprec.o)
                0x0801a29e                __mcmp
 .text.__mdiff  0x0801a2d6       0xec c:/users/baile/documents/mcha toolchain/toolchain/gcc-arm-none-eabi/bin/../lib/gcc/arm-none-eabi/9.2.1/../../../../arm-none-eabi/lib/thumb/v7e-m+fp/hard\libc_nano.a(lib_a-mprec.o)
                0x0801a2d6                __mdiff
 *fill*         0x0801a3c2        0x2 
 .text.__ulp    0x0801a3c4       0x58 c:/users/baile/documents/mcha toolchain/toolchain/gcc-arm-none-eabi/bin/../lib/gcc/arm-none-eabi/9.2.1/../../../../arm-none-eabi/lib/thumb/v7e-m+fp/hard\libc_nano.a(lib_a-mprec.o)
                0x0801a3c4                __ulp
 .text.__b2d    0x0801a41c       0xa0 c:/users/baile/documents/mcha toolchain/toolchain/gcc-arm-none-eabi/bin/../lib/gcc/arm-none-eabi/9.2.1/../../../../arm-none-eabi/lib/thumb/v7e-m+fp/hard\libc_nano.a(lib_a-mprec.o)
                0x0801a41c                __b2d
 .text.__d2b    0x0801a4bc       0xa0 c:/users/baile/documents/mcha toolchain/toolchain/gcc-arm-none-eabi/bin/../lib/gcc/arm-none-eabi/9.2.1/../../../../arm-none-eabi/lib/thumb/v7e-m+fp/hard\libc_nano.a(lib_a-mprec.o)
                0x0801a4bc                __d2b
 .text.__ratio  0x0801a55c       0x66 c:/users/baile/documents/mcha toolchain/toolchain/gcc-arm-none-eabi/bin/../lib/gcc/arm-none-eabi/9.2.1/../../../../arm-none-eabi/lib/thumb/v7e-m+fp/hard\libc_nano.a(lib_a-mprec.o)
                0x0801a55c                __ratio
 *fill*         0x0801a5c2        0x2 
 .text._mprec_log10
                0x0801a5c4       0x3c c:/users/baile/documents/mcha toolchain/toolchain/gcc-arm-none-eabi/bin/../lib/gcc/arm-none-eabi/9.2.1/../../../../arm-none-eabi/lib/thumb/v7e-m+fp/hard\libc_nano.a(lib_a-mprec.o)
                0x0801a5c4                _mprec_log10
 .text.__copybits
                0x0801a600       0x46 c:/users/baile/documents/mcha toolchain/toolchain/gcc-arm-none-eabi/bin/../lib/gcc/arm-none-eabi/9.2.1/../../../../arm-none-eabi/lib/thumb/v7e-m+fp/hard\libc_nano.a(lib_a-mprec.o)
                0x0801a600                __copybits
 .text.__any_on
                0x0801a646       0x42 c:/users/baile/documents/mcha toolchain/toolchain/gcc-arm-none-eabi/bin/../lib/gcc/arm-none-eabi/9.2.1/../../../../arm-none-eabi/lib/thumb/v7e-m+fp/hard\libc_nano.a(lib_a-mprec.o)
                0x0801a646                __any_on
 .text._calloc_r
                0x0801a688       0x1e c:/users/baile/documents/mcha toolchain/toolchain/gcc-arm-none-eabi/bin/../lib/gcc/arm-none-eabi/9.2.1/../../../../arm-none-eabi/lib/thumb/v7e-m+fp/hard\libc_nano.a(lib_a-nano-callocr.o)
                0x0801a688                _calloc_r
 .text.__ssputs_r
                0x0801a6a6       0xb6 c:/users/baile/documents/mcha toolchain/toolchain/gcc-arm-none-eabi/bin/../lib/gcc/arm-none-eabi/9.2.1/../../../../arm-none-eabi/lib/thumb/v7e-m+fp/hard\libc_nano.a(lib_a-nano-svfprintf.o)
                0x0801a6a6                __ssputs_r
 .text.__ssprint_r
                0x0801a75c       0xf6 c:/users/baile/documents/mcha toolchain/toolchain/gcc-arm-none-eabi/bin/../lib/gcc/arm-none-eabi/9.2.1/../../../../arm-none-eabi/lib/thumb/v7e-m+fp/hard\libc_nano.a(lib_a-nano-svfprintf.o)
                0x0801a75c                __ssprint_r
 *fill*         0x0801a852        0x2 
 .text._svfprintf_r
                0x0801a854      0x200 c:/users/baile/documents/mcha toolchain/toolchain/gcc-arm-none-eabi/bin/../lib/gcc/arm-none-eabi/9.2.1/../../../../arm-none-eabi/lib/thumb/v7e-m+fp/hard\libc_nano.a(lib_a-nano-svfprintf.o)
                0x0801a854                _svfiprintf_r
                0x0801a854                _svfprintf_r
 .text.__sfputc_r
                0x0801aa54       0x2e c:/users/baile/documents/mcha toolchain/toolchain/gcc-arm-none-eabi/bin/../lib/gcc/arm-none-eabi/9.2.1/../../../../arm-none-eabi/lib/thumb/v7e-m+fp/hard\libc_nano.a(lib_a-nano-vfprintf.o)
 .text.__sfputs_r
                0x0801aa82       0x24 c:/users/baile/documents/mcha toolchain/toolchain/gcc-arm-none-eabi/bin/../lib/gcc/arm-none-eabi/9.2.1/../../../../arm-none-eabi/lib/thumb/v7e-m+fp/hard\libc_nano.a(lib_a-nano-vfprintf.o)
                0x0801aa82                __sfputs_r
 .text.__sprint_r
                0x0801aaa6       0x1a c:/users/baile/documents/mcha toolchain/toolchain/gcc-arm-none-eabi/bin/../lib/gcc/arm-none-eabi/9.2.1/../../../../arm-none-eabi/lib/thumb/v7e-m+fp/hard\libc_nano.a(lib_a-nano-vfprintf.o)
                0x0801aaa6                __sprint_r
 .text._vfprintf_r
                0x0801aac0      0x260 c:/users/baile/documents/mcha toolchain/toolchain/gcc-arm-none-eabi/bin/../lib/gcc/arm-none-eabi/9.2.1/../../../../arm-none-eabi/lib/thumb/v7e-m+fp/hard\libc_nano.a(lib_a-nano-vfprintf.o)
                0x0801aac0                _vfprintf_r
                0x0801aac0                _vfiprintf_r
 .text.vfprintf
                0x0801ad20       0x14 c:/users/baile/documents/mcha toolchain/toolchain/gcc-arm-none-eabi/bin/../lib/gcc/arm-none-eabi/9.2.1/../../../../arm-none-eabi/lib/thumb/v7e-m+fp/hard\libc_nano.a(lib_a-nano-vfprintf.o)
                0x0801ad20                vfprintf
                0x0801ad20                vfiprintf
 .text.__srget_r
                0x0801ad34       0x58 c:/users/baile/documents/mcha toolchain/toolchain/gcc-arm-none-eabi/bin/../lib/gcc/arm-none-eabi/9.2.1/../../../../arm-none-eabi/lib/thumb/v7e-m+fp/hard\libc_nano.a(lib_a-rget.o)
                0x0801ad34                __srget_r
 .text.__srget  0x0801ad8c       0x10 c:/users/baile/documents/mcha toolchain/toolchain/gcc-arm-none-eabi/bin/../lib/gcc/arm-none-eabi/9.2.1/../../../../arm-none-eabi/lib/thumb/v7e-m+fp/hard\libc_nano.a(lib_a-rget.o)
                0x0801ad8c                __srget
 *fill*         0x0801ad9c        0x4 
 .text.nan      0x0801ada0       0x10 c:/users/baile/documents/mcha toolchain/toolchain/gcc-arm-none-eabi/bin/../lib/gcc/arm-none-eabi/9.2.1/../../../../arm-none-eabi/lib/thumb/v7e-m+fp/hard\libc_nano.a(lib_a-s_nan.o)
                0x0801ada0                nan
 .text.__sread  0x0801adb0       0x22 c:/users/baile/documents/mcha toolchain/toolchain/gcc-arm-none-eabi/bin/../lib/gcc/arm-none-eabi/9.2.1/../../../../arm-none-eabi/lib/thumb/v7e-m+fp/hard\libc_nano.a(lib_a-stdio.o)
                0x0801adb0                __sread
 .text.__seofread
                0x0801add2        0x4 c:/users/baile/documents/mcha toolchain/toolchain/gcc-arm-none-eabi/bin/../lib/gcc/arm-none-eabi/9.2.1/../../../../arm-none-eabi/lib/thumb/v7e-m+fp/hard\libc_nano.a(lib_a-stdio.o)
                0x0801add2                __seofread
 .text.__swrite
                0x0801add6       0x38 c:/users/baile/documents/mcha toolchain/toolchain/gcc-arm-none-eabi/bin/../lib/gcc/arm-none-eabi/9.2.1/../../../../arm-none-eabi/lib/thumb/v7e-m+fp/hard\libc_nano.a(lib_a-stdio.o)
                0x0801add6                __swrite
 .text.__sseek  0x0801ae0e       0x24 c:/users/baile/documents/mcha toolchain/toolchain/gcc-arm-none-eabi/bin/../lib/gcc/arm-none-eabi/9.2.1/../../../../arm-none-eabi/lib/thumb/v7e-m+fp/hard\libc_nano.a(lib_a-stdio.o)
                0x0801ae0e                __sseek
 .text.__sclose
                0x0801ae32        0x8 c:/users/baile/documents/mcha toolchain/toolchain/gcc-arm-none-eabi/bin/../lib/gcc/arm-none-eabi/9.2.1/../../../../arm-none-eabi/lib/thumb/v7e-m+fp/hard\libc_nano.a(lib_a-stdio.o)
                0x0801ae32                __sclose
 .text.strncmp  0x0801ae3a       0x24 c:/users/baile/documents/mcha toolchain/toolchain/gcc-arm-none-eabi/bin/../lib/gcc/arm-none-eabi/9.2.1/../../../../arm-none-eabi/lib/thumb/v7e-m+fp/hard\libc_nano.a(lib_a-strncmp.o)
                0x0801ae3a                strncmp
 *fill*         0x0801ae5e        0x2 
 .text.__swbuf_r
                0x0801ae60       0xa4 c:/users/baile/documents/mcha toolchain/toolchain/gcc-arm-none-eabi/bin/../lib/gcc/arm-none-eabi/9.2.1/../../../../arm-none-eabi/lib/thumb/v7e-m+fp/hard\libc_nano.a(lib_a-wbuf.o)
                0x0801ae60                __swbuf_r
 .text.__swbuf  0x0801af04       0x10 c:/users/baile/documents/mcha toolchain/toolchain/gcc-arm-none-eabi/bin/../lib/gcc/arm-none-eabi/9.2.1/../../../../arm-none-eabi/lib/thumb/v7e-m+fp/hard\libc_nano.a(lib_a-wbuf.o)
                0x0801af04                __swbuf
 .text._wctomb_r
                0x0801af14       0x14 c:/users/baile/documents/mcha toolchain/toolchain/gcc-arm-none-eabi/bin/../lib/gcc/arm-none-eabi/9.2.1/../../../../arm-none-eabi/lib/thumb/v7e-m+fp/hard\libc_nano.a(lib_a-wctomb_r.o)
                0x0801af14                _wctomb_r
 .text.__ascii_wctomb
                0x0801af28       0x1a c:/users/baile/documents/mcha toolchain/toolchain/gcc-arm-none-eabi/bin/../lib/gcc/arm-none-eabi/9.2.1/../../../../arm-none-eabi/lib/thumb/v7e-m+fp/hard\libc_nano.a(lib_a-wctomb_r.o)
                0x0801af28                __ascii_wctomb
 *fill*         0x0801af42        0x2 
 .text._write_r
                0x0801af44       0x24 c:/users/baile/documents/mcha toolchain/toolchain/gcc-arm-none-eabi/bin/../lib/gcc/arm-none-eabi/9.2.1/../../../../arm-none-eabi/lib/thumb/v7e-m+fp/hard\libc_nano.a(lib_a-writer.o)
                0x0801af44                _write_r
 .text.__swsetup_r
                0x0801af68       0xdc c:/users/baile/documents/mcha toolchain/toolchain/gcc-arm-none-eabi/bin/../lib/gcc/arm-none-eabi/9.2.1/../../../../arm-none-eabi/lib/thumb/v7e-m+fp/hard\libc_nano.a(lib_a-wsetup.o)
                0x0801af68                __swsetup_r
 .text._close_r
                0x0801b044       0x20 c:/users/baile/documents/mcha toolchain/toolchain/gcc-arm-none-eabi/bin/../lib/gcc/arm-none-eabi/9.2.1/../../../../arm-none-eabi/lib/thumb/v7e-m+fp/hard\libc_nano.a(lib_a-closer.o)
                0x0801b044                _close_r
 .text._fstat_r
                0x0801b064       0x24 c:/users/baile/documents/mcha toolchain/toolchain/gcc-arm-none-eabi/bin/../lib/gcc/arm-none-eabi/9.2.1/../../../../arm-none-eabi/lib/thumb/v7e-m+fp/hard\libc_nano.a(lib_a-fstatr.o)
                0x0801b064                _fstat_r
 .text.__sfvwrite_r
                0x0801b088      0x294 c:/users/baile/documents/mcha toolchain/toolchain/gcc-arm-none-eabi/bin/../lib/gcc/arm-none-eabi/9.2.1/../../../../arm-none-eabi/lib/thumb/v7e-m+fp/hard\libc_nano.a(lib_a-fvwrite.o)
                0x0801b088                __sfvwrite_r
 .text._isatty_r
                0x0801b31c       0x20 c:/users/baile/documents/mcha toolchain/toolchain/gcc-arm-none-eabi/bin/../lib/gcc/arm-none-eabi/9.2.1/../../../../arm-none-eabi/lib/thumb/v7e-m+fp/hard\libc_nano.a(lib_a-isattyr.o)
                0x0801b31c                _isatty_r
 .text._lseek_r
                0x0801b33c       0x24 c:/users/baile/documents/mcha toolchain/toolchain/gcc-arm-none-eabi/bin/../lib/gcc/arm-none-eabi/9.2.1/../../../../arm-none-eabi/lib/thumb/v7e-m+fp/hard\libc_nano.a(lib_a-lseekr.o)
                0x0801b33c                _lseek_r
 .text.memmove  0x0801b360       0x34 c:/users/baile/documents/mcha toolchain/toolchain/gcc-arm-none-eabi/bin/../lib/gcc/arm-none-eabi/9.2.1/../../../../arm-none-eabi/lib/thumb/v7e-m+fp/hard\libc_nano.a(lib_a-memmove.o)
                0x0801b360                memmove
 .text._realloc_r
                0x0801b394       0x4c c:/users/baile/documents/mcha toolchain/toolchain/gcc-arm-none-eabi/bin/../lib/gcc/arm-none-eabi/9.2.1/../../../../arm-none-eabi/lib/thumb/v7e-m+fp/hard\libc_nano.a(lib_a-nano-reallocr.o)
                0x0801b394                _realloc_r
 .text._read_r  0x0801b3e0       0x24 c:/users/baile/documents/mcha toolchain/toolchain/gcc-arm-none-eabi/bin/../lib/gcc/arm-none-eabi/9.2.1/../../../../arm-none-eabi/lib/thumb/v7e-m+fp/hard\libc_nano.a(lib_a-readr.o)
                0x0801b3e0                _read_r
 .text.lflush   0x0801b404       0x12 c:/users/baile/documents/mcha toolchain/toolchain/gcc-arm-none-eabi/bin/../lib/gcc/arm-none-eabi/9.2.1/../../../../arm-none-eabi/lib/thumb/v7e-m+fp/hard\libc_nano.a(lib_a-refill.o)
 *fill*         0x0801b416        0x2 
 .text.__srefill_r
                0x0801b418      0x114 c:/users/baile/documents/mcha toolchain/toolchain/gcc-arm-none-eabi/bin/../lib/gcc/arm-none-eabi/9.2.1/../../../../arm-none-eabi/lib/thumb/v7e-m+fp/hard\libc_nano.a(lib_a-refill.o)
                0x0801b418                __srefill_r
 .text._malloc_usable_size_r
                0x0801b52c       0x10 c:/users/baile/documents/mcha toolchain/toolchain/gcc-arm-none-eabi/bin/../lib/gcc/arm-none-eabi/9.2.1/../../../../arm-none-eabi/lib/thumb/v7e-m+fp/hard\libc_nano.a(lib_a-nano-msizer.o)
                0x0801b52c                _malloc_usable_size_r
 .text._close   0x0801b53c       0x10 c:/users/baile/documents/mcha toolchain/toolchain/gcc-arm-none-eabi/bin/../lib/gcc/arm-none-eabi/9.2.1/../../../../arm-none-eabi/lib/thumb/v7e-m+fp/hard\libnosys.a(close.o)
                0x0801b53c                _close
 .text._fstat   0x0801b54c       0x10 c:/users/baile/documents/mcha toolchain/toolchain/gcc-arm-none-eabi/bin/../lib/gcc/arm-none-eabi/9.2.1/../../../../arm-none-eabi/lib/thumb/v7e-m+fp/hard\libnosys.a(fstat.o)
                0x0801b54c                _fstat
 .text._isatty  0x0801b55c       0x10 c:/users/baile/documents/mcha toolchain/toolchain/gcc-arm-none-eabi/bin/../lib/gcc/arm-none-eabi/9.2.1/../../../../arm-none-eabi/lib/thumb/v7e-m+fp/hard\libnosys.a(isatty.o)
                0x0801b55c                _isatty
 .text._lseek   0x0801b56c       0x10 c:/users/baile/documents/mcha toolchain/toolchain/gcc-arm-none-eabi/bin/../lib/gcc/arm-none-eabi/9.2.1/../../../../arm-none-eabi/lib/thumb/v7e-m+fp/hard\libnosys.a(lseek.o)
                0x0801b56c                _lseek
 .text._exit    0x0801b57c        0x4 c:/users/baile/documents/mcha toolchain/toolchain/gcc-arm-none-eabi/bin/../lib/gcc/arm-none-eabi/9.2.1/../../../../arm-none-eabi/lib/thumb/v7e-m+fp/hard\libnosys.a(_exit.o)
                0x0801b57c                _exit
 *(.glue_7)
 .glue_7        0x0801b580        0x0 linker stubs
 *(.glue_7t)
 .glue_7t       0x0801b580        0x0 linker stubs
 *(.eh_frame)
 .eh_frame      0x0801b580        0x0 c:/users/baile/documents/mcha toolchain/toolchain/gcc-arm-none-eabi/bin/../lib/gcc/arm-none-eabi/9.2.1/thumb/v7e-m+fp/hard/crtbegin.o
 .eh_frame      0x0801b580        0x4 c:/users/baile/documents/mcha toolchain/toolchain/gcc-arm-none-eabi/bin/../lib/gcc/arm-none-eabi/9.2.1/thumb/v7e-m+fp/hard/crtend.o
 *(.init)
 .init          0x0801b584        0x4 c:/users/baile/documents/mcha toolchain/toolchain/gcc-arm-none-eabi/bin/../lib/gcc/arm-none-eabi/9.2.1/thumb/v7e-m+fp/hard/crti.o
                0x0801b584                _init
 .init          0x0801b588        0x8 c:/users/baile/documents/mcha toolchain/toolchain/gcc-arm-none-eabi/bin/../lib/gcc/arm-none-eabi/9.2.1/thumb/v7e-m+fp/hard/crtn.o
 *(.fini)
 .fini          0x0801b590        0x4 c:/users/baile/documents/mcha toolchain/toolchain/gcc-arm-none-eabi/bin/../lib/gcc/arm-none-eabi/9.2.1/thumb/v7e-m+fp/hard/crti.o
                0x0801b590                _fini
 .fini          0x0801b594        0x8 c:/users/baile/documents/mcha toolchain/toolchain/gcc-arm-none-eabi/bin/../lib/gcc/arm-none-eabi/9.2.1/thumb/v7e-m+fp/hard/crtn.o
                0x0801b59c                . = ALIGN (0x4)
                0x0801b59c                _etext = .

.vfp11_veneer   0x0801b59c        0x0
 .vfp11_veneer  0x0801b59c        0x0 linker stubs

.v4_bx          0x0801b59c        0x0
 .v4_bx         0x0801b59c        0x0 linker stubs

.iplt           0x0801b59c        0x0
 .iplt          0x0801b59c        0x0 c:/users/baile/documents/mcha toolchain/toolchain/gcc-arm-none-eabi/bin/../lib/gcc/arm-none-eabi/9.2.1/thumb/v7e-m+fp/hard/crtbegin.o

.rodata         0x0801b5a0     0x1628
                0x0801b5a0                . = ALIGN (0x4)
 *(.rodata)
 .rodata        0x0801b5a0       0x18 build/system_stm32f4xx.o
                0x0801b5a0                AHBPrescTable
                0x0801b5b0                APBPrescTable
 .rodata        0x0801b5b8       0xc0 build/cmd_parser.o
 .rodata        0x0801b678       0x24 build/cmd_task.o
                0x0801b678                cmdTask_attr
 .rodata        0x0801b69c        0x8 build/stm32f4_HAL/stm32f4xx_hal_dma.o
 .rodata        0x0801b6a4        0x8 build/stm32f4_HAL/stm32f4xx_ll_dma.o
 .rodata        0x0801b6ac        0x5 build/FreeRTOS/cmsis_os2.o
 *(.rodata*)
 .rodata.str1.1
                0x0801b6b1       0x25 build/cmd_line_buffer.o
 .rodata.str1.1
                0x0801b6d6      0x92e build/cmd_parser.o
                                0x938 (size before relaxing)
 .rodata.str1.1
                0x0801c004        0xe build/cmd_task.o
 .rodata.str1.1
                0x0801c012       0x7e build/uart.o
 .rodata.str1.1
                0x0801c090        0xa build/heartbeat_task.o
 .rodata.str1.1
                0x0801c090       0xb4 build/heartbeat_cmd.o
 .rodata.str1.1
                0x0801c144        0xa build/dummy_task.o
 .rodata.str1.1
                0x0801c144       0x23 build/data_logging.o
                                 0x2d (size before relaxing)
 .rodata.str1.1
                0x0801c167        0xc build/Observer.o
 .rodata.str1.1
                0x0801c173      0x3ec build/qpas_sub_noblas.o
                                0x419 (size before relaxing)
 .rodata.str1.1
                0x0801c55f        0x5 build/FreeRTOS/tasks.o
 .rodata.str1.1
                0x0801c564        0x8 build/FreeRTOS/timers.o
 .rodata.str1.1
                0x0801c56c       0x11 build/FreeRTOS/cmsis_os2.o
 .rodata.str1.1
                0x0801c57d       0x37 build/tm_stm32_mpu6050.o
 .rodata.sqrtf.str1.4
                0x0801c5b4        0x6 c:/users/baile/documents/mcha toolchain/toolchain/gcc-arm-none-eabi/bin/../lib/gcc/arm-none-eabi/9.2.1/../../../../arm-none-eabi/lib/thumb/v7e-m+fp/hard\libm.a(lib_a-wf_sqrt.o)
 *fill*         0x0801c5ba        0x6 
 .rodata.CSWTCH.8
                0x0801c5c0       0x18 c:/users/baile/documents/mcha toolchain/toolchain/gcc-arm-none-eabi/bin/../lib/gcc/arm-none-eabi/9.2.1/../../../../arm-none-eabi/lib/thumb/v7e-m+fp/hard\libm.a(lib_a-e_atan2.o)
 .rodata.CSWTCH.9
                0x0801c5d8       0x18 c:/users/baile/documents/mcha toolchain/toolchain/gcc-arm-none-eabi/bin/../lib/gcc/arm-none-eabi/9.2.1/../../../../arm-none-eabi/lib/thumb/v7e-m+fp/hard\libm.a(lib_a-e_atan2.o)
 .rodata.npio2_hw
                0x0801c5f0       0x80 c:/users/baile/documents/mcha toolchain/toolchain/gcc-arm-none-eabi/bin/../lib/gcc/arm-none-eabi/9.2.1/../../../../arm-none-eabi/lib/thumb/v7e-m+fp/hard\libm.a(lib_a-e_rem_pio2.o)
 .rodata.two_over_pi
                0x0801c670      0x108 c:/users/baile/documents/mcha toolchain/toolchain/gcc-arm-none-eabi/bin/../lib/gcc/arm-none-eabi/9.2.1/../../../../arm-none-eabi/lib/thumb/v7e-m+fp/hard\libm.a(lib_a-e_rem_pio2.o)
 .rodata.PIo2   0x0801c778       0x40 c:/users/baile/documents/mcha toolchain/toolchain/gcc-arm-none-eabi/bin/../lib/gcc/arm-none-eabi/9.2.1/../../../../arm-none-eabi/lib/thumb/v7e-m+fp/hard\libm.a(lib_a-k_rem_pio2.o)
 .rodata.init_jk
                0x0801c7b8       0x10 c:/users/baile/documents/mcha toolchain/toolchain/gcc-arm-none-eabi/bin/../lib/gcc/arm-none-eabi/9.2.1/../../../../arm-none-eabi/lib/thumb/v7e-m+fp/hard\libm.a(lib_a-k_rem_pio2.o)
 .rodata.atanhi
                0x0801c7c8       0x20 c:/users/baile/documents/mcha toolchain/toolchain/gcc-arm-none-eabi/bin/../lib/gcc/arm-none-eabi/9.2.1/../../../../arm-none-eabi/lib/thumb/v7e-m+fp/hard\libm.a(lib_a-s_atan.o)
 .rodata.atanlo
                0x0801c7e8       0x20 c:/users/baile/documents/mcha toolchain/toolchain/gcc-arm-none-eabi/bin/../lib/gcc/arm-none-eabi/9.2.1/../../../../arm-none-eabi/lib/thumb/v7e-m+fp/hard\libm.a(lib_a-s_atan.o)
 .rodata._ctype_
                0x0801c808      0x101 c:/users/baile/documents/mcha toolchain/toolchain/gcc-arm-none-eabi/bin/../lib/gcc/arm-none-eabi/9.2.1/../../../../arm-none-eabi/lib/thumb/v7e-m+fp/hard\libc_nano.a(lib_a-ctype_.o)
                0x0801c808                _ctype_
 *fill*         0x0801c909        0x3 
 .rodata._global_impure_ptr
                0x0801c90c        0x4 c:/users/baile/documents/mcha toolchain/toolchain/gcc-arm-none-eabi/bin/../lib/gcc/arm-none-eabi/9.2.1/../../../../arm-none-eabi/lib/thumb/v7e-m+fp/hard\libc_nano.a(lib_a-impure.o)
                0x0801c90c                _global_impure_ptr
 .rodata._mstats_r.str1.1
                0x0801c910       0x21 c:/users/baile/documents/mcha toolchain/toolchain/gcc-arm-none-eabi/bin/../lib/gcc/arm-none-eabi/9.2.1/../../../../arm-none-eabi/lib/thumb/v7e-m+fp/hard\libc_nano.a(lib_a-mstats.o)
 .rodata._malloc_stats_r.str1.1
                0x0801c931       0x4b c:/users/baile/documents/mcha toolchain/toolchain/gcc-arm-none-eabi/bin/../lib/gcc/arm-none-eabi/9.2.1/../../../../arm-none-eabi/lib/thumb/v7e-m+fp/hard\libc_nano.a(lib_a-nano-mallstatsr.o)
 .rodata._printf_float.str1.1
                0x0801c97c       0x12 c:/users/baile/documents/mcha toolchain/toolchain/gcc-arm-none-eabi/bin/../lib/gcc/arm-none-eabi/9.2.1/../../../../arm-none-eabi/lib/thumb/v7e-m+fp/hard\libc_nano.a(lib_a-nano-vfprintf_float.o)
 .rodata._printf_i.str1.1
                0x0801c98e       0x22 c:/users/baile/documents/mcha toolchain/toolchain/gcc-arm-none-eabi/bin/../lib/gcc/arm-none-eabi/9.2.1/../../../../arm-none-eabi/lib/thumb/v7e-m+fp/hard\libc_nano.a(lib_a-nano-vfprintf_i.o)
 .rodata._scanf_float.str1.1
                0x0801c9b0        0x5 c:/users/baile/documents/mcha toolchain/toolchain/gcc-arm-none-eabi/bin/../lib/gcc/arm-none-eabi/9.2.1/../../../../arm-none-eabi/lib/thumb/v7e-m+fp/hard\libc_nano.a(lib_a-nano-vfscanf_float.o)
                                  0x6 (size before relaxing)
 .rodata._strtod_l.str1.1
                0x0801c9b5        0x5 c:/users/baile/documents/mcha toolchain/toolchain/gcc-arm-none-eabi/bin/../lib/gcc/arm-none-eabi/9.2.1/../../../../arm-none-eabi/lib/thumb/v7e-m+fp/hard\libc_nano.a(lib_a-strtod.o)
                                  0xd (size before relaxing)
 *fill*         0x0801c9b5        0x3 
 .rodata.fpi.7566
                0x0801c9b8       0x14 c:/users/baile/documents/mcha toolchain/toolchain/gcc-arm-none-eabi/bin/../lib/gcc/arm-none-eabi/9.2.1/../../../../arm-none-eabi/lib/thumb/v7e-m+fp/hard\libc_nano.a(lib_a-strtod.o)
 .rodata.fpinan.7602
                0x0801c9cc       0x14 c:/users/baile/documents/mcha toolchain/toolchain/gcc-arm-none-eabi/bin/../lib/gcc/arm-none-eabi/9.2.1/../../../../arm-none-eabi/lib/thumb/v7e-m+fp/hard\libc_nano.a(lib_a-strtod.o)
 .rodata.tinytens
                0x0801c9e0       0x28 c:/users/baile/documents/mcha toolchain/toolchain/gcc-arm-none-eabi/bin/../lib/gcc/arm-none-eabi/9.2.1/../../../../arm-none-eabi/lib/thumb/v7e-m+fp/hard\libc_nano.a(lib_a-strtod.o)
 .rodata._dtoa_r.str1.1
                0x0801ca08        0xd c:/users/baile/documents/mcha toolchain/toolchain/gcc-arm-none-eabi/bin/../lib/gcc/arm-none-eabi/9.2.1/../../../../arm-none-eabi/lib/thumb/v7e-m+fp/hard\libc_nano.a(lib_a-dtoa.o)
                                  0xf (size before relaxing)
 *fill*         0x0801ca15        0x3 
 .rodata.__sf_fake_stderr
                0x0801ca18       0x20 c:/users/baile/documents/mcha toolchain/toolchain/gcc-arm-none-eabi/bin/../lib/gcc/arm-none-eabi/9.2.1/../../../../arm-none-eabi/lib/thumb/v7e-m+fp/hard\libc_nano.a(lib_a-findfp.o)
                0x0801ca18                __sf_fake_stderr
 .rodata.__sf_fake_stdin
                0x0801ca38       0x20 c:/users/baile/documents/mcha toolchain/toolchain/gcc-arm-none-eabi/bin/../lib/gcc/arm-none-eabi/9.2.1/../../../../arm-none-eabi/lib/thumb/v7e-m+fp/hard\libc_nano.a(lib_a-findfp.o)
                0x0801ca38                __sf_fake_stdin
 .rodata.__sf_fake_stdout
                0x0801ca58       0x20 c:/users/baile/documents/mcha toolchain/toolchain/gcc-arm-none-eabi/bin/../lib/gcc/arm-none-eabi/9.2.1/../../../../arm-none-eabi/lib/thumb/v7e-m+fp/hard\libc_nano.a(lib_a-findfp.o)
                0x0801ca58                __sf_fake_stdout
 .rodata.str1.1
                0x0801ca78        0xd c:/users/baile/documents/mcha toolchain/toolchain/gcc-arm-none-eabi/bin/../lib/gcc/arm-none-eabi/9.2.1/../../../../arm-none-eabi/lib/thumb/v7e-m+fp/hard\libc_nano.a(lib_a-lnumeric.o)
                                  0x3 (size before relaxing)
 .rodata._C_numeric_locale
                0x0801ca78        0xc c:/users/baile/documents/mcha toolchain/toolchain/gcc-arm-none-eabi/bin/../lib/gcc/arm-none-eabi/9.2.1/../../../../arm-none-eabi/lib/thumb/v7e-m+fp/hard\libc_nano.a(lib_a-lnumeric.o)
                0x0801ca78                _C_numeric_locale
 .rodata._setlocale_r.str1.1
                0x0801ca84        0x8 c:/users/baile/documents/mcha toolchain/toolchain/gcc-arm-none-eabi/bin/../lib/gcc/arm-none-eabi/9.2.1/../../../../arm-none-eabi/lib/thumb/v7e-m+fp/hard\libc_nano.a(lib_a-locale.o)
                                  0x9 (size before relaxing)
 .rodata.str1.1
                0x0801ca8c        0x2 c:/users/baile/documents/mcha toolchain/toolchain/gcc-arm-none-eabi/bin/../lib/gcc/arm-none-eabi/9.2.1/../../../../arm-none-eabi/lib/thumb/v7e-m+fp/hard\libc_nano.a(lib_a-locale.o)
 *fill*         0x0801ca8c        0x4 
 .rodata.__mprec_bigtens
                0x0801ca90       0x28 c:/users/baile/documents/mcha toolchain/toolchain/gcc-arm-none-eabi/bin/../lib/gcc/arm-none-eabi/9.2.1/../../../../arm-none-eabi/lib/thumb/v7e-m+fp/hard\libc_nano.a(lib_a-mprec.o)
                0x0801ca90                __mprec_bigtens
 .rodata.__mprec_tens
                0x0801cab8       0xc8 c:/users/baile/documents/mcha toolchain/toolchain/gcc-arm-none-eabi/bin/../lib/gcc/arm-none-eabi/9.2.1/../../../../arm-none-eabi/lib/thumb/v7e-m+fp/hard\libc_nano.a(lib_a-mprec.o)
                0x0801cab8                __mprec_tens
 .rodata.__mprec_tinytens
                0x0801cb80       0x28 c:/users/baile/documents/mcha toolchain/toolchain/gcc-arm-none-eabi/bin/../lib/gcc/arm-none-eabi/9.2.1/../../../../arm-none-eabi/lib/thumb/v7e-m+fp/hard\libc_nano.a(lib_a-mprec.o)
                0x0801cb80                __mprec_tinytens
 .rodata.p05.7490
                0x0801cba8        0xc c:/users/baile/documents/mcha toolchain/toolchain/gcc-arm-none-eabi/bin/../lib/gcc/arm-none-eabi/9.2.1/../../../../arm-none-eabi/lib/thumb/v7e-m+fp/hard\libc_nano.a(lib_a-mprec.o)
 .rodata._svfprintf_r.str1.1
                0x0801cbb4       0x11 c:/users/baile/documents/mcha toolchain/toolchain/gcc-arm-none-eabi/bin/../lib/gcc/arm-none-eabi/9.2.1/../../../../arm-none-eabi/lib/thumb/v7e-m+fp/hard\libc_nano.a(lib_a-nano-svfprintf.o)
 .rodata._vfprintf_r.str1.1
                0x0801cbc5       0x11 c:/users/baile/documents/mcha toolchain/toolchain/gcc-arm-none-eabi/bin/../lib/gcc/arm-none-eabi/9.2.1/../../../../arm-none-eabi/lib/thumb/v7e-m+fp/hard\libc_nano.a(lib_a-nano-vfprintf.o)
                0x0801cbd8                . = ALIGN (0x4)
 *fill*         0x0801cbc5        0x3 

.ARM.extab      0x0801cbc8        0x0
 *(.ARM.extab* .gnu.linkonce.armextab.*)
 .ARM.extab     0x0801cbc8        0x0 c:/users/baile/documents/mcha toolchain/toolchain/gcc-arm-none-eabi/bin/../lib/gcc/arm-none-eabi/9.2.1/../../../../arm-none-eabi/lib/thumb/v7e-m+fp/hard/crt0.o
 .ARM.extab     0x0801cbc8        0x0 c:/users/baile/documents/mcha toolchain/toolchain/gcc-arm-none-eabi/bin/../lib/gcc/arm-none-eabi/9.2.1/thumb/v7e-m+fp/hard\libgcc.a(_udivmoddi4.o)

.ARM            0x0801cbc8        0x8
                0x0801cbc8                __exidx_start = .
 *(.ARM.exidx*)
 .ARM.exidx     0x0801cbc8        0x8 c:/users/baile/documents/mcha toolchain/toolchain/gcc-arm-none-eabi/bin/../lib/gcc/arm-none-eabi/9.2.1/../../../../arm-none-eabi/lib/thumb/v7e-m+fp/hard/crt0.o
 .ARM.exidx     0x0801cbd0        0x0 c:/users/baile/documents/mcha toolchain/toolchain/gcc-arm-none-eabi/bin/../lib/gcc/arm-none-eabi/9.2.1/thumb/v7e-m+fp/hard\libgcc.a(_udivmoddi4.o)
                                  0x8 (size before relaxing)
                0x0801cbd0                __exidx_end = .

.rel.dyn        0x0801cbd0        0x0
 .rel.iplt      0x0801cbd0        0x0 c:/users/baile/documents/mcha toolchain/toolchain/gcc-arm-none-eabi/bin/../lib/gcc/arm-none-eabi/9.2.1/thumb/v7e-m+fp/hard/crtbegin.o

.preinit_array  0x0801cbd0        0x0
                0x0801cbd0                PROVIDE (__preinit_array_start = .)
 *(.preinit_array*)
                0x0801cbd0                PROVIDE (__preinit_array_end = .)

.init_array     0x0801cbd0        0x4
                0x0801cbd0                PROVIDE (__init_array_start = .)
 *(SORT_BY_NAME(.init_array.*))
 *(.init_array*)
 .init_array    0x0801cbd0        0x4 c:/users/baile/documents/mcha toolchain/toolchain/gcc-arm-none-eabi/bin/../lib/gcc/arm-none-eabi/9.2.1/thumb/v7e-m+fp/hard/crtbegin.o
                0x0801cbd4                PROVIDE (__init_array_end = .)

.fini_array     0x0801cbd4        0x4
                [!provide]                PROVIDE (__fini_array_start = .)
 *(SORT_BY_NAME(.fini_array.*))
 *(.fini_array*)
 .fini_array    0x0801cbd4        0x4 c:/users/baile/documents/mcha toolchain/toolchain/gcc-arm-none-eabi/bin/../lib/gcc/arm-none-eabi/9.2.1/thumb/v7e-m+fp/hard/crtbegin.o
                [!provide]                PROVIDE (__fini_array_end = .)
                0x0801cbd8                _sidata = LOADADDR (.data)

.data           0x20000000      0x9f8 load address 0x0801cbd8
                0x20000000                . = ALIGN (0x4)
                0x20000000                _sdata = .
 *(.data)
 .data          0x20000000        0x0 c:/users/baile/documents/mcha toolchain/toolchain/gcc-arm-none-eabi/bin/../lib/gcc/arm-none-eabi/9.2.1/thumb/v7e-m+fp/hard/crti.o
 .data          0x20000000        0x4 c:/users/baile/documents/mcha toolchain/toolchain/gcc-arm-none-eabi/bin/../lib/gcc/arm-none-eabi/9.2.1/thumb/v7e-m+fp/hard/crtbegin.o
                0x20000000                __dso_handle
 .data          0x20000004        0x0 c:/users/baile/documents/mcha toolchain/toolchain/gcc-arm-none-eabi/bin/../lib/gcc/arm-none-eabi/9.2.1/../../../../arm-none-eabi/lib/thumb/v7e-m+fp/hard/crt0.o
 .data          0x20000004        0x0 build/stm32f4xx_it.o
 .data          0x20000004        0x4 build/system_stm32f4xx.o
                0x20000004                SystemCoreClock
 .data          0x20000008        0x0 build/cmd_line_buffer.o
 .data          0x20000008        0x0 build/cmd_parser.o
 .data          0x20000008        0x8 build/cmd_task.o
 .data          0x20000010        0x0 build/main.o
 .data          0x20000010       0x10 build/uart.o
 .data          0x20000020       0x24 build/heartbeat_task.o
 .data          0x20000044        0x0 build/heartbeat_cmd.o
 .data          0x20000044       0x24 build/dummy_task.o
 .data          0x20000068        0x0 build/Curr_Sen.o
 .data          0x20000068        0x0 build/Meas_Volt.o
 .data          0x20000068        0x0 build/motor.o
 .data          0x20000068        0x4 build/data_logging.o
                0x20000068                exec
 .data          0x2000006c        0x0 build/IMU.o
 .data          0x2000006c      0x5e8 build/controller.o
                0x200000e4                ctrl_fBar
                0x200000ec                ctrl_f
                0x200000f4                ctrl_xHat
                0x200000fc                ctrl_u
 .data          0x20000654       0xbc build/Observer.o
                0x2000066c                obs_Kb
                0x20000698                obs_Ad
                0x200006a0                obs_xh
                0x200006a8                obs_Bd
                0x200006b0                obs_u
                0x200006b8                obs_Adx
                0x200006c0                obs_Bdu
                0x200006c8                obs_AdxpBdu
                0x200006e8                obs_C
                0x200006f0                obs_yh
                0x200006f8                obs_y
                0x20000700                obs_Kyt
                0x20000708                obs_yt
 .data          0x20000710        0x0 build/qpas_sub_noblas.o
 .data          0x20000710        0x0 build/startup_stm32f446xx.o
 .data          0x20000710        0x8 build/stm32f4_HAL/stm32f4xx_hal.o
                0x20000710                uwTickFreq
                0x20000714                uwTickPrio
